{"project/contracts/LandRegistry.sol":{"LandRegistry":{"abi":[{"inputs":[],"stateMutability":"nonpayable","type":"constructor"},{"inputs":[],"name":"AccessControlBadConfirmation","type":"error"},{"inputs":[{"internalType":"address","name":"account","type":"address"},{"internalType":"bytes32","name":"neededRole","type":"bytes32"}],"name":"AccessControlUnauthorizedAccount","type":"error"},{"inputs":[{"internalType":"address","name":"sender","type":"address"},{"internalType":"uint256","name":"tokenId","type":"uint256"},{"internalType":"address","name":"owner","type":"address"}],"name":"ERC721IncorrectOwner","type":"error"},{"inputs":[{"internalType":"address","name":"operator","type":"address"},{"internalType":"uint256","name":"tokenId","type":"uint256"}],"name":"ERC721InsufficientApproval","type":"error"},{"inputs":[{"internalType":"address","name":"approver","type":"address"}],"name":"ERC721InvalidApprover","type":"error"},{"inputs":[{"internalType":"address","name":"operator","type":"address"}],"name":"ERC721InvalidOperator","type":"error"},{"inputs":[{"internalType":"address","name":"owner","type":"address"}],"name":"ERC721InvalidOwner","type":"error"},{"inputs":[{"internalType":"address","name":"receiver","type":"address"}],"name":"ERC721InvalidReceiver","type":"error"},{"inputs":[{"internalType":"address","name":"sender","type":"address"}],"name":"ERC721InvalidSender","type":"error"},{"inputs":[{"internalType":"uint256","name":"tokenId","type":"uint256"}],"name":"ERC721NonexistentToken","type":"error"},{"anonymous":false,"inputs":[{"indexed":true,"internalType":"address","name":"owner","type":"address"},{"indexed":true,"internalType":"address","name":"approved","type":"address"},{"indexed":true,"internalType":"uint256","name":"tokenId","type":"uint256"}],"name":"Approval","type":"event"},{"anonymous":false,"inputs":[{"indexed":true,"internalType":"address","name":"owner","type":"address"},{"indexed":true,"internalType":"address","name":"operator","type":"address"},{"indexed":false,"internalType":"bool","name":"approved","type":"bool"}],"name":"ApprovalForAll","type":"event"},{"anonymous":false,"inputs":[{"indexed":false,"internalType":"uint256","name":"_fromTokenId","type":"uint256"},{"indexed":false,"internalType":"uint256","name":"_toTokenId","type":"uint256"}],"name":"BatchMetadataUpdate","type":"event"},{"anonymous":false,"inputs":[{"indexed":true,"internalType":"uint256","name":"tokenId","type":"uint256"},{"indexed":true,"internalType":"address","name":"buyer","type":"address"},{"indexed":false,"internalType":"uint256","name":"amount","type":"uint256"}],"name":"FundsLocked","type":"event"},{"anonymous":false,"inputs":[{"indexed":true,"internalType":"uint256","name":"tokenId","type":"uint256"},{"indexed":true,"internalType":"address","name":"tenant","type":"address"},{"indexed":false,"internalType":"uint256","name":"expiry","type":"uint256"}],"name":"LeaseApproved","type":"event"},{"anonymous":false,"inputs":[{"indexed":true,"internalType":"uint256","name":"tokenId","type":"uint256"},{"indexed":true,"internalType":"address","name":"tenant","type":"address"},{"indexed":false,"internalType":"uint256","name":"rent","type":"uint256"},{"indexed":false,"internalType":"uint256","name":"durationDays","type":"uint256"}],"name":"LeaseInitiated","type":"event"},{"anonymous":false,"inputs":[{"indexed":false,"internalType":"uint256","name":"_tokenId","type":"uint256"}],"name":"MetadataUpdate","type":"event"},{"anonymous":false,"inputs":[{"indexed":true,"internalType":"uint256","name":"requestId","type":"uint256"},{"indexed":true,"internalType":"address","name":"seller","type":"address"},{"indexed":false,"internalType":"uint256","name":"price","type":"uint256"},{"indexed":false,"internalType":"string","name":"uri","type":"string"}],"name":"MintRequested","type":"event"},{"anonymous":false,"inputs":[{"indexed":true,"internalType":"uint256","name":"tokenId","type":"uint256"},{"indexed":true,"internalType":"address","name":"seller","type":"address"},{"indexed":true,"internalType":"address","name":"buyer","type":"address"},{"indexed":false,"internalType":"uint256","name":"amount","type":"uint256"}],"name":"OwnershipTransferred","type":"event"},{"anonymous":false,"inputs":[{"indexed":true,"internalType":"uint256","name":"tokenId","type":"uint256"},{"indexed":false,"internalType":"address[]","name":"partners","type":"address[]"},{"indexed":false,"internalType":"uint256[]","name":"percentages","type":"uint256[]"}],"name":"PartnershipCreated","type":"event"},{"anonymous":false,"inputs":[{"indexed":true,"internalType":"uint256","name":"tokenId","type":"uint256"},{"indexed":false,"internalType":"address","name":"partner","type":"address"},{"indexed":false,"internalType":"address","name":"buyer","type":"address"}],"name":"PartnershipTrustVoted","type":"event"},{"anonymous":false,"inputs":[{"indexed":true,"internalType":"uint256","name":"tokenId","type":"uint256"},{"indexed":false,"internalType":"string","name":"reason","type":"string"},{"indexed":false,"internalType":"string","name":"courtOrderIPFS","type":"string"}],"name":"PropertyFrozen","type":"event"},{"anonymous":false,"inputs":[{"indexed":true,"internalType":"uint256","name":"tokenId","type":"uint256"},{"indexed":true,"internalType":"address","name":"seller","type":"address"},{"indexed":false,"internalType":"uint256","name":"price","type":"uint256"},{"indexed":false,"internalType":"string","name":"uri","type":"string"}],"name":"PropertyMinted","type":"event"},{"anonymous":false,"inputs":[{"indexed":true,"internalType":"uint256","name":"tokenId","type":"uint256"}],"name":"PropertyUnfrozen","type":"event"},{"anonymous":false,"inputs":[{"indexed":true,"internalType":"bytes32","name":"role","type":"bytes32"},{"indexed":true,"internalType":"bytes32","name":"previousAdminRole","type":"bytes32"},{"indexed":true,"internalType":"bytes32","name":"newAdminRole","type":"bytes32"}],"name":"RoleAdminChanged","type":"event"},{"anonymous":false,"inputs":[{"indexed":true,"internalType":"bytes32","name":"role","type":"bytes32"},{"indexed":true,"internalType":"address","name":"account","type":"address"},{"indexed":true,"internalType":"address","name":"sender","type":"address"}],"name":"RoleGranted","type":"event"},{"anonymous":false,"inputs":[{"indexed":true,"internalType":"bytes32","name":"role","type":"bytes32"},{"indexed":true,"internalType":"address","name":"account","type":"address"},{"indexed":true,"internalType":"address","name":"sender","type":"address"}],"name":"RoleRevoked","type":"event"},{"anonymous":false,"inputs":[{"indexed":true,"internalType":"uint256","name":"tokenId","type":"uint256"},{"indexed":true,"internalType":"address","name":"seller","type":"address"}],"name":"SellerConfirmed","type":"event"},{"anonymous":false,"inputs":[{"indexed":true,"internalType":"address","name":"from","type":"address"},{"indexed":true,"internalType":"address","name":"to","type":"address"},{"indexed":true,"internalType":"uint256","name":"tokenId","type":"uint256"}],"name":"Transfer","type":"event"},{"anonymous":false,"inputs":[{"indexed":true,"internalType":"uint256","name":"tokenId","type":"uint256"},{"indexed":true,"internalType":"address","name":"seller","type":"address"},{"indexed":true,"internalType":"address","name":"buyer","type":"address"}],"name":"TrustEstablished","type":"event"},{"inputs":[],"name":"DEFAULT_ADMIN_ROLE","outputs":[{"internalType":"bytes32","name":"","type":"bytes32"}],"stateMutability":"view","type":"function"},{"inputs":[],"name":"REGISTRAR_ROLE","outputs":[{"internalType":"bytes32","name":"","type":"bytes32"}],"stateMutability":"view","type":"function"},{"inputs":[],"name":"TENANT_ROLE","outputs":[{"internalType":"bytes32","name":"","type":"bytes32"}],"stateMutability":"view","type":"function"},{"inputs":[{"internalType":"address","name":"to","type":"address"},{"internalType":"uint256","name":"tokenId","type":"uint256"}],"name":"approve","outputs":[],"stateMutability":"nonpayable","type":"function"},{"inputs":[{"internalType":"uint256","name":"requestId","type":"uint256"}],"name":"approveAndMint","outputs":[],"stateMutability":"nonpayable","type":"function"},{"inputs":[{"internalType":"uint256","name":"tokenId","type":"uint256"}],"name":"approveLease","outputs":[],"stateMutability":"nonpayable","type":"function"},{"inputs":[{"internalType":"address","name":"owner","type":"address"}],"name":"balanceOf","outputs":[{"internalType":"uint256","name":"","type":"uint256"}],"stateMutability":"view","type":"function"},{"inputs":[{"internalType":"uint256","name":"tokenId","type":"uint256"}],"name":"confirmFunds","outputs":[],"stateMutability":"nonpayable","type":"function"},{"inputs":[{"internalType":"uint256","name":"tokenId","type":"uint256"},{"internalType":"address","name":"partner2","type":"address"}],"name":"createPartnership","outputs":[],"stateMutability":"nonpayable","type":"function"},{"inputs":[{"internalType":"uint256","name":"tokenId","type":"uint256"}],"name":"depositFunds","outputs":[],"stateMutability":"payable","type":"function"},{"inputs":[{"internalType":"uint256","name":"","type":"uint256"}],"name":"disputes","outputs":[{"internalType":"string","name":"reason","type":"string"},{"internalType":"string","name":"courtOrderIPFS","type":"string"}],"stateMutability":"view","type":"function"},{"inputs":[{"internalType":"uint256","name":"tokenId","type":"uint256"}],"name":"finalizeTransfer","outputs":[],"stateMutability":"nonpayable","type":"function"},{"inputs":[{"internalType":"uint256","name":"tokenId","type":"uint256"},{"internalType":"string","name":"reason","type":"string"},{"internalType":"string","name":"courtOrderIPFS","type":"string"}],"name":"freezeProperty","outputs":[],"stateMutability":"nonpayable","type":"function"},{"inputs":[{"internalType":"uint256","name":"tokenId","type":"uint256"}],"name":"getApproved","outputs":[{"internalType":"address","name":"","type":"address"}],"stateMutability":"view","type":"function"},{"inputs":[{"internalType":"uint256","name":"tokenId","type":"uint256"}],"name":"getLease","outputs":[{"internalType":"address","name":"tenant","type":"address"},{"internalType":"uint256","name":"expiry","type":"uint256"},{"internalType":"uint256","name":"rent","type":"uint256"},{"internalType":"bool","name":"isApproved","type":"bool"}],"stateMutability":"view","type":"function"},{"inputs":[{"internalType":"uint256","name":"tokenId","type":"uint256"}],"name":"getPartnership","outputs":[{"internalType":"address[]","name":"partners","type":"address[]"},{"internalType":"uint256[]","name":"sharePercentages","type":"uint256[]"},{"internalType":"bool","name":"isActive","type":"bool"}],"stateMutability":"view","type":"function"},{"inputs":[{"internalType":"uint256","name":"tokenId","type":"uint256"}],"name":"getProperty","outputs":[{"internalType":"uint256","name":"price","type":"uint256"},{"internalType":"enum LandRegistry.Status","name":"status","type":"uint8"},{"internalType":"address","name":"seller","type":"address"},{"internalType":"address","name":"potentialBuyer","type":"address"},{"internalType":"bool","name":"trustRecorded","type":"bool"},{"internalType":"bool","name":"sellerConfirmed","type":"bool"},{"internalType":"uint256","name":"escrow","type":"uint256"},{"internalType":"bool","name":"frozen","type":"bool"}],"stateMutability":"view","type":"function"},{"inputs":[{"internalType":"bytes32","name":"role","type":"bytes32"}],"name":"getRoleAdmin","outputs":[{"internalType":"bytes32","name":"","type":"bytes32"}],"stateMutability":"view","type":"function"},{"inputs":[{"internalType":"bytes32","name":"role","type":"bytes32"},{"internalType":"address","name":"account","type":"address"}],"name":"grantRole","outputs":[],"stateMutability":"nonpayable","type":"function"},{"inputs":[{"internalType":"bytes32","name":"role","type":"bytes32"},{"internalType":"address","name":"account","type":"address"}],"name":"hasRole","outputs":[{"internalType":"bool","name":"","type":"bool"}],"stateMutability":"view","type":"function"},{"inputs":[{"internalType":"uint256","name":"tokenId","type":"uint256"},{"internalType":"address","name":"tenant","type":"address"},{"internalType":"uint256","name":"durationDays","type":"uint256"}],"name":"initiateLease","outputs":[],"stateMutability":"payable","type":"function"},{"inputs":[{"internalType":"address","name":"owner","type":"address"},{"internalType":"address","name":"operator","type":"address"}],"name":"isApprovedForAll","outputs":[{"internalType":"bool","name":"","type":"bool"}],"stateMutability":"view","type":"function"},{"inputs":[],"name":"isDemoMode","outputs":[{"internalType":"bool","name":"","type":"bool"}],"stateMutability":"view","type":"function"},{"inputs":[{"internalType":"uint256","name":"","type":"uint256"}],"name":"leases","outputs":[{"internalType":"address","name":"tenant","type":"address"},{"internalType":"uint256","name":"expiry","type":"uint256"},{"internalType":"uint256","name":"rent","type":"uint256"},{"internalType":"bool","name":"isApproved","type":"bool"}],"stateMutability":"view","type":"function"},{"inputs":[{"internalType":"uint256","name":"","type":"uint256"}],"name":"mintRequests","outputs":[{"internalType":"address","name":"seller","type":"address"},{"internalType":"string","name":"uri","type":"string"},{"internalType":"uint256","name":"price","type":"uint256"},{"internalType":"bool","name":"isPending","type":"bool"}],"stateMutability":"view","type":"function"},{"inputs":[],"name":"name","outputs":[{"internalType":"string","name":"","type":"string"}],"stateMutability":"view","type":"function"},{"inputs":[],"name":"nextRequestId","outputs":[{"internalType":"uint256","name":"","type":"uint256"}],"stateMutability":"view","type":"function"},{"inputs":[{"internalType":"uint256","name":"tokenId","type":"uint256"}],"name":"ownerOf","outputs":[{"internalType":"address","name":"","type":"address"}],"stateMutability":"view","type":"function"},{"inputs":[{"internalType":"uint256","name":"","type":"uint256"},{"internalType":"address","name":"","type":"address"}],"name":"partnerApprovals","outputs":[{"internalType":"bool","name":"","type":"bool"}],"stateMutability":"view","type":"function"},{"inputs":[{"internalType":"uint256","name":"","type":"uint256"}],"name":"partnerships","outputs":[{"internalType":"bool","name":"isActive","type":"bool"}],"stateMutability":"view","type":"function"},{"inputs":[{"internalType":"uint256","name":"","type":"uint256"}],"name":"properties","outputs":[{"internalType":"uint256","name":"price","type":"uint256"},{"internalType":"enum LandRegistry.Status","name":"status","type":"uint8"},{"internalType":"address","name":"seller","type":"address"},{"internalType":"address","name":"potentialBuyer","type":"address"},{"internalType":"bool","name":"trustRecorded","type":"bool"},{"internalType":"bool","name":"sellerConfirmed","type":"bool"},{"internalType":"uint256","name":"escrow","type":"uint256"},{"internalType":"bool","name":"frozen","type":"bool"}],"stateMutability":"view","type":"function"},{"inputs":[{"internalType":"uint256","name":"tokenId","type":"uint256"},{"internalType":"address","name":"buyerAddress","type":"address"}],"name":"recordTrust","outputs":[],"stateMutability":"nonpayable","type":"function"},{"inputs":[{"internalType":"bytes32","name":"role","type":"bytes32"},{"internalType":"address","name":"callerConfirmation","type":"address"}],"name":"renounceRole","outputs":[],"stateMutability":"nonpayable","type":"function"},{"inputs":[{"internalType":"string","name":"uri","type":"string"},{"internalType":"uint256","name":"price","type":"uint256"}],"name":"requestMint","outputs":[],"stateMutability":"nonpayable","type":"function"},{"inputs":[{"internalType":"bytes32","name":"role","type":"bytes32"},{"internalType":"address","name":"account","type":"address"}],"name":"revokeRole","outputs":[],"stateMutability":"nonpayable","type":"function"},{"inputs":[{"internalType":"address","name":"from","type":"address"},{"internalType":"address","name":"to","type":"address"},{"internalType":"uint256","name":"tokenId","type":"uint256"}],"name":"safeTransferFrom","outputs":[],"stateMutability":"nonpayable","type":"function"},{"inputs":[{"internalType":"address","name":"from","type":"address"},{"internalType":"address","name":"to","type":"address"},{"internalType":"uint256","name":"tokenId","type":"uint256"},{"internalType":"bytes","name":"data","type":"bytes"}],"name":"safeTransferFrom","outputs":[],"stateMutability":"nonpayable","type":"function"},{"inputs":[{"internalType":"address","name":"operator","type":"address"},{"internalType":"bool","name":"approved","type":"bool"}],"name":"setApprovalForAll","outputs":[],"stateMutability":"nonpayable","type":"function"},{"inputs":[{"internalType":"bool","name":"_enabled","type":"bool"}],"name":"setDemoMode","outputs":[],"stateMutability":"nonpayable","type":"function"},{"inputs":[{"internalType":"bytes4","name":"interfaceId","type":"bytes4"}],"name":"supportsInterface","outputs":[{"internalType":"bool","name":"","type":"bool"}],"stateMutability":"view","type":"function"},{"inputs":[],"name":"symbol","outputs":[{"internalType":"string","name":"","type":"string"}],"stateMutability":"view","type":"function"},{"inputs":[{"internalType":"uint256","name":"tokenId","type":"uint256"}],"name":"tokenURI","outputs":[{"internalType":"string","name":"","type":"string"}],"stateMutability":"view","type":"function"},{"inputs":[],"name":"totalProperties","outputs":[{"internalType":"uint256","name":"","type":"uint256"}],"stateMutability":"view","type":"function"},{"inputs":[{"internalType":"address","name":"from","type":"address"},{"internalType":"address","name":"to","type":"address"},{"internalType":"uint256","name":"tokenId","type":"uint256"}],"name":"transferFrom","outputs":[],"stateMutability":"nonpayable","type":"function"},{"inputs":[{"internalType":"uint256","name":"tokenId","type":"uint256"}],"name":"unfreezeProperty","outputs":[],"stateMutability":"nonpayable","type":"function"}],"evm":{"bytecode":{"linkReferences":{},"object":"60806040526010805460ff191690553480156200001a575f80fd5b506040518060400160405280600881526020016713185b991119595960c21b8152506040518060400160405280600381526020016213139160ea1b815250815f90816200006891906200020c565b5060016200007782826200020c565b506200008891505f905033620000bc565b50620000b57fedcc084d3dcd65a1f7f23c65c46722faca6953d28e43150a467cf43e5c30923833620000bc565b50620002d4565b5f8281526007602090815260408083206001600160a01b038516845290915281205460ff1662000163575f8381526007602090815260408083206001600160a01b03861684529091529020805460ff191660011790556200011a3390565b6001600160a01b0316826001600160a01b0316847f2f8788117e7eff1d82e926ec794901d17c78024a50270940304540a733656f0d60405160405180910390a450600162000166565b505f5b92915050565b634e487b7160e01b5f52604160045260245ffd5b600181811c908216806200019557607f821691505b602082108103620001b457634e487b7160e01b5f52602260045260245ffd5b50919050565b601f82111562000207575f81815260208120601f850160051c81016020861015620001e25750805b601f850160051c820191505b818110156200020357828155600101620001ee565b5050505b505050565b81516001600160401b038111156200022857620002286200016c565b620002408162000239845462000180565b84620001ba565b602080601f83116001811462000276575f84156200025e5750858301515b5f19600386901b1c1916600185901b17855562000203565b5f85815260208120601f198616915b82811015620002a65788860151825594840194600190910190840162000285565b5085821015620002c457878501515f19600388901b60f8161c191681555b5050505050600190811b01905550565b6143ee80620002e25f395ff3fe60806040526004361061026a575f3560e01c8063697655581161014a5780639f44657c116100be578063c87b56dd11610078578063c87b56dd14610887578063d547741f146108a6578063dde5e16a146108c5578063e985e9c5146108e4578063f68e955314610903578063f7b1080814610923575f80fd5b80639f44657c14610781578063a217fddf146107cf578063a22cb465146107e2578063a53887f214610801578063aa0ef46a1461083a578063b88d4fde14610868575f80fd5b80638927a1061161010f5780638927a106146106645780638e1e8732146106dd57806391d14854146106fc57806395d89b411461071b5780639875ea2b1461072f5780639de1322e14610762575f80fd5b806369765558146105d95780636a84a985146105f257806370a08231146106075780637edadd541461062657806382a61bf614610645575f80fd5b80633b76594d116101e15780634a406288116101a65780634a40628814610511578063513311d714610530578063564a565d1461054f5780635ad2d6e51461057c5780636352211e1461059b578063682e0101146105ba575f80fd5b80633b76594d1461046c578063424e65751461047f57806342842e0e146104ae57806344f018eb146104cd57806347b257ed146104fe575f80fd5b80631d99d83f116102325780631d99d83f1461033957806323b872dd14610358578063248a9ca3146103775780632f2ff15d146103a557806332665ffb146103c457806336568abe1461044d575f80fd5b806301ffc9a71461026e57806306fdde03146102a2578063081812fc146102c3578063095ea7b3146102fa5780630b3bce201461031b575b5f80fd5b348015610279575f80fd5b5061028d610288366004613a43565b610998565b60405190151581526020015b60405180910390f35b3480156102ad575f80fd5b506102b66109a8565b6040516102999190613aab565b3480156102ce575f80fd5b506102e26102dd366004613abd565b610a37565b6040516001600160a01b039091168152602001610299565b348015610305575f80fd5b50610319610314366004613aef565b610a5e565b005b348015610326575f80fd5b50600e545b604051908152602001610299565b348015610344575f80fd5b50610319610353366004613abd565b610a6d565b348015610363575f80fd5b50610319610372366004613b17565b610c4a565b348015610382575f80fd5b5061032b610391366004613abd565b5f9081526007602052604090206001015490565b3480156103b0575f80fd5b506103196103bf366004613b50565b610cd3565b3480156103cf575f80fd5b506104396103de366004613abd565b5f9081526008602052604090208054600182015460028301546003840154600490940154929460ff808416956001600160a01b0361010090950485169594841694600160a01b8504831694600160a81b900483169391921690565b604051610299989796959493929190613b8e565b348015610458575f80fd5b50610319610467366004613b50565b610cf7565b61031961047a366004613abd565b610d2f565b34801561048a575f80fd5b5061049e610499366004613abd565b610ef0565b6040516102999493929190613bf5565b3480156104b9575f80fd5b506103196104c8366004613b17565b610fac565b3480156104d8575f80fd5b5061028d6104e7366004613abd565b600c6020525f908152604090206002015460ff1681565b61031961050c366004613c30565b610fc6565b34801561051c575f80fd5b5061031961052b366004613cd9565b6112a2565b34801561053b575f80fd5b5061031961054a366004613abd565b61141c565b34801561055a575f80fd5b5061056e610569366004613abd565b611559565b604051610299929190613d2e565b348015610587575f80fd5b50610319610596366004613da0565b611680565b3480156105a6575f80fd5b506102e26105b5366004613abd565b611876565b3480156105c5575f80fd5b506103196105d4366004613abd565b611880565b3480156105e4575f80fd5b5060105461028d9060ff1681565b3480156105fd575f80fd5b5061032b600f5481565b348015610612575f80fd5b5061032b610621366004613e14565b611d0c565b348015610631575f80fd5b50610319610640366004613e3c565b611d51565b348015610650575f80fd5b5061031961065f366004613b50565b611d6f565b34801561066f575f80fd5b506106b161067e366004613abd565b600b6020525f908152604090208054600182015460028301546003909301546001600160a01b0390921692909160ff1684565b604080516001600160a01b03909516855260208501939093529183015215156060820152608001610299565b3480156106e8575f80fd5b506103196106f7366004613abd565b612051565b348015610707575f80fd5b5061028d610716366004613b50565b612311565b348015610726575f80fd5b506102b661233b565b34801561073a575f80fd5b5061032b7f183424541d14cd9bd5d5e4d92b46028be6700d27ec9e3ecc10cbe3e71dea50a581565b34801561076d575f80fd5b5061031961077c366004613abd565b61234a565b34801561078c575f80fd5b506106b161079b366004613abd565b5f908152600b602052604090208054600182015460028301546003909301546001600160a01b039092169390929160ff1690565b3480156107da575f80fd5b5061032b5f81565b3480156107ed575f80fd5b506103196107fc366004613e55565b612887565b34801561080c575f80fd5b5061028d61081b366004613b50565b600d60209081525f928352604080842090915290825290205460ff1681565b348015610845575f80fd5b50610859610854366004613abd565b612892565b60405161029993929190613eed565b348015610873575f80fd5b50610319610882366004613f24565b61296b565b348015610892575f80fd5b506102b66108a1366004613abd565b612983565b3480156108b1575f80fd5b506103196108c0366004613b50565b612a8e565b3480156108d0575f80fd5b506103196108df366004613b50565b612ab2565b3480156108ef575f80fd5b5061028d6108fe366004613f9b565b612f1f565b34801561090e575f80fd5b5061032b5f8051602061439983398151915281565b34801561092e575f80fd5b5061043961093d366004613abd565b60086020525f908152604090208054600182015460028301546003840154600490940154929360ff808416946001600160a01b03610100909504851694841693600160a01b8104831693600160a81b90910483169290911688565b5f6109a282612f4c565b92915050565b60605f80546109b690613fc3565b80601f01602080910402602001604051908101604052809291908181526020018280546109e290613fc3565b8015610a2d5780601f10610a0457610100808354040283529160200191610a2d565b820191905f5260205f20905b815481529060010190602001808311610a1057829003601f168201915b5050505050905090565b5f610a4182612f70565b505f828152600460205260409020546001600160a01b03166109a2565b610a69828233612fa8565b5050565b5f80516020614399833981519152610a8481612fb5565b5f828152600860205260409020600481015460ff16610aea5760405162461bcd60e51b815260206004820152601860248201527f4c616e6452656769737472793a206e6f742066726f7a656e000000000000000060448201526064015b60405180910390fd5b60048101805460ff19908116909155600180830180549092161790555f838152600a6020526040812090610b1e8282613947565b610b2b600183015f613947565b50506002810180546001600160b01b0319169055600381015415610c1b5760028101546003820180545f9091556001600160a01b03909116908115801590610b7257505f81115b15610c18575f826001600160a01b0316826040515f6040518083038185875af1925050503d805f8114610bc0576040519150601f19603f3d011682016040523d82523d5f602084013e610bc5565b606091505b5050905080610c165760405162461bcd60e51b815260206004820152601b60248201527f4c616e6452656769737472793a20726566756e64206661696c656400000000006044820152606401610ae1565b505b50505b60405183907fe37218c5bb556869012c1dacb90e60b24de6d40a9a1341391a847b43260eff97905f90a2505050565b6001600160a01b038216610c7357604051633250574960e11b81525f6004820152602401610ae1565b5f610c7f838333612fc2565b9050836001600160a01b0316816001600160a01b031614610ccd576040516364283d7b60e01b81526001600160a01b0380861660048301526024820184905282166044820152606401610ae1565b50505050565b5f82815260076020526040902060010154610ced81612fb5565b610ccd83836130b4565b6001600160a01b0381163314610d205760405163334bd91960e11b815260040160405180910390fd5b610d2a8282613145565b505050565b5f81815260086020526040902060040154819060ff1615610d625760405162461bcd60e51b8152600401610ae190613ffb565b5f8281526008602052604090206002600182015460ff166006811115610d8a57610d8a613b7a565b14610dd75760405162461bcd60e51b815260206004820152601f60248201527f4c616e6452656769737472793a206e6f742054727573745265636f72646564006044820152606401610ae1565b60028101546001600160a01b0316331480610df4575060105460ff165b610e4b5760405162461bcd60e51b815260206004820152602260248201527f4c616e6452656769737472793a206e6f742064657369676e617465642062757960448201526132b960f11b6064820152608401610ae1565b80543414610e9b5760405162461bcd60e51b815260206004820152601e60248201527f4c616e6452656769737472793a2073656e6420657861637420707269636500006044820152606401610ae1565b34600382810182905560018301805460ff19169091179055604051908152339084907f091ca0f1322e686f805f4edc01ff8bffb2dbe2d17568b31531060c1d723aad8f906020015b60405180910390a3505050565b60096020525f9081526040902080546001820180546001600160a01b039092169291610f1b90613fc3565b80601f0160208091040260200160405190810160405280929190818152602001828054610f4790613fc3565b8015610f925780601f10610f6957610100808354040283529160200191610f92565b820191905f5260205f20905b815481529060010190602001808311610f7557829003601f168201915b50505050600283015460039093015491929160ff16905084565b610d2a83838360405180602001604052805f81525061296b565b5f83815260086020526040902060040154839060ff1615610ff95760405162461bcd60e51b8152600401610ae190613ffb565b5f84815260086020526040902060018082015460ff16600681111561102057611020613b7a565b146110775760405162461bcd60e51b815260206004820152602160248201527f4c616e6452656769737472793a2070726f7065727479206e6f742061637469766044820152606560f81b6064820152608401610ae1565b600181015461010090046001600160a01b0316331480611099575060105460ff165b6110f15760405162461bcd60e51b815260206004820152602360248201527f4c616e6452656769737472793a206f6e6c792073656c6c65722063616e206c6560448201526261736560e81b6064820152608401610ae1565b6001600160a01b0384166111475760405162461bcd60e51b815260206004820152601c60248201527f4c616e6452656769737472793a20696e76616c69642074656e616e74000000006044820152606401610ae1565b5f34116111965760405162461bcd60e51b815260206004820152601e60248201527f4c616e6452656769737472793a2072656e74206d757374206265203e203000006044820152606401610ae1565b5f6111a48462015180614044565b6111ae904261405b565b90506040518060800160405280866001600160a01b031681526020018281526020013481526020015f1515815250600b5f8881526020019081526020015f205f820151815f015f6101000a8154816001600160a01b0302191690836001600160a01b0316021790555060208201518160010155604082015181600201556060820151816003015f6101000a81548160ff021916908315150217905550905050846001600160a01b0316867f8ffce86c5137688ee547050b94fb05fa5b34c79180ee38ebe8f32f98061555183487604051611292929190918252602082015260400190565b60405180910390a3505050505050565b5f81116112f15760405162461bcd60e51b815260206004820152601f60248201527f4c616e6452656769737472793a207072696365206d757374206265203e2030006044820152606401610ae1565b5f82511161134b5760405162461bcd60e51b815260206004820152602160248201527f4c616e6452656769737472793a205552492063616e6e6f7420626520656d70746044820152607960f81b6064820152608401610ae1565b600f80545f918261135b8361406e565b909155506040805160808101825233815260208082018781528284018790526001606084018190525f868152600990935293909120825181546001600160a01b0319166001600160a01b039091161781559051939450909290918201906113c290826140cb565b5060408281015160028301556060909201516003909101805460ff191691151591909117905551339082907f8e2fbab19f509b3ac0b32e155b0cfaa5c93bbb20ae467d5394f0610793ebaaba90610ee39086908890614187565b5f81815260086020526040902060040154819060ff161561144f5760405162461bcd60e51b8152600401610ae190613ffb565b5f8281526008602052604090206003600182015460ff16600681111561147757611477613b7a565b146114c45760405162461bcd60e51b815260206004820152601d60248201527f4c616e6452656769737472793a206e6f742046756e64734c6f636b65640000006044820152606401610ae1565b600181015461010090046001600160a01b03163314806114e6575060105460ff165b6115025760405162461bcd60e51b8152600401610ae19061419f565b600281018054600160a81b60ff60a81b1990911617905560018101805460ff19166004179055604051339084907f3912f5e66f51daa2463de82e3cb302d1bae85d4bb3a336cd314f36977120bb0f905f90a3505050565b600a6020525f908152604090208054819061157390613fc3565b80601f016020809104026020016040519081016040528092919081815260200182805461159f90613fc3565b80156115ea5780601f106115c1576101008083540402835291602001916115ea565b820191905f5260205f20905b8154815290600101906020018083116115cd57829003601f168201915b5050505050908060010180546115ff90613fc3565b80601f016020809104026020016040519081016040528092919081815260200182805461162b90613fc3565b80156116765780601f1061164d57610100808354040283529160200191611676565b820191905f5260205f20905b81548152906001019060200180831161165957829003601f168201915b5050505050905082565b5f8051602061439983398151915261169781612fb5565b5f8681526008602052604090206005600182015460ff1660068111156116bf576116bf613b7a565b0361170c5760405162461bcd60e51b815260206004820181905260248201527f4c616e6452656769737472793a2063616e6e6f7420667265657a6520736f6c646044820152606401610ae1565b600481015460ff16156117615760405162461bcd60e51b815260206004820152601c60248201527f4c616e6452656769737472793a20616c72656164792066726f7a656e000000006044820152606401610ae1565b60048101805460ff19908116600190811790925590820180549091166006179055604080516020601f880181900402810160609081018352918101878152909182919089908990819085018382808284375f92019190915250505090825250604080516020601f8801819004810282018101909252868152918101919087908790819084018382808284375f920182905250939094525050898152600a602052604090208251909150819061181690826140cb565b506020820151600182019061182b90826140cb565b50905050867f99c64b390fbcd2227222ee160824af876ee0a284c3c34c6157c9eb681c3a01788787878760405161186594939291906141fe565b60405180910390a250505050505050565b5f6109a282612f70565b5f8051602061439983398151915261189781612fb5565b5f82815260086020526040902060040154829060ff16156118ca5760405162461bcd60e51b8152600401610ae190613ffb565b5f838152600b6020526040902080546001600160a01b031661192e5760405162461bcd60e51b815260206004820152601c60248201527f4c616e6452656769737472793a206e6f206c6561736520666f756e64000000006044820152606401610ae1565b600381015460ff16156119835760405162461bcd60e51b815260206004820152601e60248201527f4c616e6452656769737472793a20616c726561647920617070726f76656400006044820152606401610ae1565b5f84815260086020526040902060038201805460ff1916600117905581546119d5907f183424541d14cd9bd5d5e4d92b46028be6700d27ec9e3ecc10cbe3e71dea50a5906001600160a01b03166130b4565b505f858152600c602052604090206002015460ff1615611c05575f858152600c602090815260408083208151815460809481028201850190935260608101838152909391928492849190840182828015611a5657602002820191905f5260205f20905b81546001600160a01b03168152600190910190602001808311611a38575b5050505050815260200160018201805480602002602001604051908101604052809291908181526020018280548015611aac57602002820191905f5260205f20905b815481526020019060010190808311611a98575b50505091835250506002919091015460ff16151560209091015290505f5b815151811015611bfe575f606483602001518381518110611aed57611aed61422f565b60200260200101518660020154611b049190614044565b611b0e9190614243565b90508015611beb575f835f01518381518110611b2c57611b2c61422f565b60200260200101516001600160a01b0316826040515f6040518083038185875af1925050503d805f8114611b7b576040519150601f19603f3d011682016040523d82523d5f602084013e611b80565b606091505b5050905080611be95760405162461bcd60e51b815260206004820152602f60248201527f4c616e6452656769737472793a204c6561736520706172746e6572736869702060448201526e1d1c985b9cd9995c8819985a5b1959608a1b6064820152608401610ae1565b505b5080611bf68161406e565b915050611aca565b5050611cbd565b600181015460028301546040515f9261010090046001600160a01b031691908381818185875af1925050503d805f8114611c5a576040519150601f19603f3d011682016040523d82523d5f602084013e611c5f565b606091505b5050905080611cbb5760405162461bcd60e51b815260206004820152602260248201527f4c616e6452656769737472793a2072656e74207472616e73666572206661696c604482015261195960f21b6064820152608401610ae1565b505b815460018301546040519081526001600160a01b039091169086907f29c1ec3036121902cfcfa4755d1e34984b52346a432c2f8cd8157cb3a1ac48969060200160405180910390a35050505050565b5f6001600160a01b038216611d36576040516322718ad960e21b81525f6004820152602401610ae1565b506001600160a01b03165f9081526003602052604090205490565b5f611d5b81612fb5565b506010805460ff1916911515919091179055565b5f82815260086020526040902060040154829060ff1615611da25760405162461bcd60e51b8152600401610ae190613ffb565b5f838152600860205260409020600181015461010090046001600160a01b0316331480611dd1575060105460ff165b611ded5760405162461bcd60e51b8152600401610ae19061419f565b6001600160a01b038316611e435760405162461bcd60e51b815260206004820152601d60248201527f4c616e6452656769737472793a20696e76616c696420706172746e65720000006044820152606401610ae1565b5f848152600c602052604090206002015460ff1615611ea45760405162461bcd60e51b815260206004820181905260248201527f4c616e6452656769737472793a20706172746e657273686970206578697374736044820152606401610ae1565b6040805160028082526060820183525f926020830190803683370190505090508160010160019054906101000a90046001600160a01b0316815f81518110611eee57611eee61422f565b60200260200101906001600160a01b031690816001600160a01b0316815250508381600181518110611f2257611f2261422f565b6001600160a01b03929092166020928302919091018201526040805160028082526060820183525f9391929091830190803683370190505090506032815f81518110611f7057611f7061422f565b602002602001018181525050603281600181518110611f9157611f9161422f565b602090810291909101810191909152604080516060810182528481528083018490526001818301525f898152600c8452919091208151805192939192611fda928492019061397e565b506020828101518051611ff392600185019201906139e1565b50604091820151600291909101805460ff19169115159190911790555186907faef81879745bd1de42275d206cf11582d3a7b35cd5ce172a2baaa826eb9b858b906120419085908590614262565b60405180910390a2505050505050565b5f8051602061439983398151915261206881612fb5565b5f828152600960205260409020600381015460ff166120d35760405162461bcd60e51b815260206004820152602160248201527f4c616e6452656769737472793a2072657175657374206e6f742070656e64696e6044820152606760f81b6064820152608401610ae1565b60038101805460ff19169055600e80545f91826120ef8361406e565b90915550825490915061210b906001600160a01b0316826131b0565b61219f8183600101805461211e90613fc3565b80601f016020809104026020016040519081016040528092919081815260200182805461214a90613fc3565b80156121955780601f1061216c57610100808354040283529160200191612195565b820191905f5260205f20905b81548152906001019060200180831161217857829003601f168201915b50505050506131c9565b6040805161010081018252600284015481526001602080830182815286546001600160a01b0316848601525f606085018190526080850181905260a0850181905260c0850181905260e08501819052868152600890925293902082518155925183820180549394939192909160ff19169083600681111561222257612222613b7a565b0217905550604082810151600180840180546001600160a01b0393841661010002610100600160a81b0319909116179055606085015160028086018054608089015160a08a01511515600160a81b0260ff60a81b19911515600160a01b026001600160a81b03199093169588169590951791909117169290921790915560c0860151600386015560e0909501516004909401805494151560ff1990951694909417909355855493860154915193169284927fbcb3bb9ab407224c720e86c6c2fee4a888f1ca7fc76ad2a3f46c34d9e2a6bcdd92612303929091880190614286565b60405180910390a350505050565b5f9182526007602090815260408084206001600160a01b0393909316845291905290205460ff1690565b6060600180546109b690613fc3565b5f8051602061439983398151915261236181612fb5565b5f82815260086020526040902060040154829060ff16156123945760405162461bcd60e51b8152600401610ae190613ffb565b5f8381526008602052604090206004600182015460ff1660068111156123bc576123bc613b7a565b146124095760405162461bcd60e51b815260206004820152601f60248201527f4c616e6452656769737472793a206e6f74204177616974696e6746696e616c006044820152606401610ae1565b6002810154600160a01b900460ff166124645760405162461bcd60e51b815260206004820181905260248201527f4c616e6452656769737472793a207472757374206e6f74207265636f726465646044820152606401610ae1565b6002810154600160a81b900460ff166124ca5760405162461bcd60e51b815260206004820152602260248201527f4c616e6452656769737472793a2073656c6c6572206e6f7420636f6e6669726d604482015261195960f21b6064820152608401610ae1565b805460038201541461251e5760405162461bcd60e51b815260206004820152601d60248201527f4c616e6452656769737472793a20657363726f77206d69736d617463680000006044820152606401610ae1565b6001810180546002830154600384018054600560ff198516179094555f90556001600160a01b0361010090920482169291169061255c838389613218565b5f878152600c602052604090206002015460ff1615612785575f878152600c6020908152604080832081518154608094810282018501909352606081018381529093919284928491908401828280156125dc57602002820191905f5260205f20905b81546001600160a01b031681526001909101906020018083116125be575b505050505081526020016001820180548060200260200160405190810160405280929190818152602001828054801561263257602002820191905f5260205f20905b81548152602001906001019080831161261e575b50505091835250506002919091015460ff16151560209091015290505f5b81515181101561277e575f6064836020015183815181106126735761267361422f565b6020026020010151856126869190614044565b6126909190614243565b9050801561276b575f835f015183815181106126ae576126ae61422f565b60200260200101516001600160a01b0316826040515f6040518083038185875af1925050503d805f81146126fd576040519150601f19603f3d011682016040523d82523d5f602084013e612702565b606091505b50509050806127695760405162461bcd60e51b815260206004820152602d60248201527f4c616e6452656769737472793a20504f4c20706172746e65727368697020747260448201526c185b9cd9995c8819985a5b1959609a1b6064820152608401610ae1565b505b50806127768161406e565b915050612650565b5050612830565b5f836001600160a01b0316826040515f6040518083038185875af1925050503d805f81146127ce576040519150601f19603f3d011682016040523d82523d5f602084013e6127d3565b606091505b505090508061282e5760405162461bcd60e51b815260206004820152602160248201527f4c616e6452656769737472793a20504f4c207472616e73666572206661696c656044820152601960fa1b6064820152608401610ae1565b505b816001600160a01b0316836001600160a01b0316887f06f354ec7b9d2ca4e029f73ccb9119943a48c3295704dd66ca8beda0c7bae33f8460405161287691815260200190565b60405180910390a450505050505050565b610a693383836132c5565b5f818152600c6020908152604080832060028101548154835181860281018601909452808452606095869590948493600185019360ff9091169285919083018282801561290657602002820191905f5260205f20905b81546001600160a01b031681526001909101906020018083116128e8575b505050505092508180548060200260200160405190810160405280929190818152602001828054801561295657602002820191905f5260205f20905b815481526020019060010190808311612942575b50505050509150935093509350509193909250565b612976848484610c4a565b610ccd338585858561335b565b606061298e82612f70565b505f82815260066020526040812080546129a790613fc3565b80601f01602080910402602001604051908101604052809291908181526020018280546129d390613fc3565b8015612a1e5780601f106129f557610100808354040283529160200191612a1e565b820191905f5260205f20905b815481529060010190602001808311612a0157829003601f168201915b505050505090505f612a3a60408051602081019091525f815290565b905080515f03612a4b575092915050565b815115612a7d578082604051602001612a65929190614313565b60405160208183030381529060405292505050919050565b612a8684613482565b949350505050565b5f82815260076020526040902060010154612aa881612fb5565b610ccd8383613145565b5f82815260086020526040902060040154829060ff1615612ae55760405162461bcd60e51b8152600401610ae190613ffb565b5f83815260086020526040902060018082015460ff166006811115612b0c57612b0c613b7a565b14612b595760405162461bcd60e51b815260206004820152601860248201527f4c616e6452656769737472793a206e6f742041637469766500000000000000006044820152606401610ae1565b6001600160a01b038316612baf5760405162461bcd60e51b815260206004820152601860248201527f4c616e6452656769737472793a207a65726f20627579657200000000000000006044820152606401610ae1565b60105460ff16612c1e5760018101546001600160a01b03610100909104811690841603612c1e5760405162461bcd60e51b815260206004820152601f60248201527f4c616e6452656769737472793a2063616e6e6f742074727573742073656c66006044820152606401610ae1565b5f848152600c602052604081206002015460ff1615612e61575f858152600c6020526040812081805b8254811015612cf45782543390849083908110612c6657612c6661422f565b5f918252602090912001546001600160a01b031603612c8457600193505b5f898152600d602052604081208454909190859084908110612ca857612ca861422f565b5f9182526020808320909101546001600160a01b0316835282019290925260400190205460ff1615612ce25781612cde8161406e565b9250505b80612cec8161406e565b915050612c47565b508280612d03575060105460ff165b612d4f5760405162461bcd60e51b815260206004820152601b60248201527f4c616e6452656769737472793a206e6f74206120706172746e657200000000006044820152606401610ae1565b5f888152600d6020908152604080832033845290915290205460ff16612da0575f888152600d602090815260408083203384529091529020805460ff1916600117905580612d9c8161406e565b9150505b604080513381526001600160a01b038916602082015289917ff324902ce1c8411ebb2a675e7c505cf197d08bbce985519e7a96d8b5274f9792910160405180910390a281545f90612df2836064614044565b612dfc9190614243565b90506032811180612e0f575060105460ff165b15612e1d5760019450612e58565b60028601546001600160a01b0316612e4d576002860180546001600160a01b0319166001600160a01b038a161790555b505050505050505050565b50505050612ea3565b600182015461010090046001600160a01b0316331480612e83575060105460ff165b612e9f5760405162461bcd60e51b8152600401610ae19061419f565b5060015b8015612f1857600282810180546001600160a81b0319166001600160a01b03878116918217600160a01b1790925560018501805460ff191690931792839055604051909261010090049091169087907f31d1dd3247d4b3bd729e4d498c7b241939e4ef5d13c462fb7327793d4fbaaee3905f90a45b5050505050565b6001600160a01b039182165f90815260056020908152604080832093909416825291909152205460ff1690565b5f6001600160e01b03198216637965db0b60e01b14806109a257506109a2826134f3565b5f818152600260205260408120546001600160a01b0316806109a257604051637e27328960e01b815260048101849052602401610ae1565b610d2a8383836001613517565b612fbf813361361b565b50565b5f828152600260205260408120546001600160a01b0390811690831615612fee57612fee818486613654565b6001600160a01b03811615613028576130095f855f80613517565b6001600160a01b0381165f90815260036020526040902080545f190190555b6001600160a01b03851615613056576001600160a01b0385165f908152600360205260409020805460010190555b5f8481526002602052604080822080546001600160a01b0319166001600160a01b0389811691821790925591518793918516917fddf252ad1be2c89b69c2b068fc378daa952ba7f163c4a11628f55a4df523b3ef91a4949350505050565b5f6130bf8383612311565b61313e575f8381526007602090815260408083206001600160a01b03861684529091529020805460ff191660011790556130f63390565b6001600160a01b0316826001600160a01b0316847f2f8788117e7eff1d82e926ec794901d17c78024a50270940304540a733656f0d60405160405180910390a45060016109a2565b505f6109a2565b5f6131508383612311565b1561313e575f8381526007602090815260408083206001600160a01b0386168085529252808320805460ff1916905551339286917ff6391f5c32d9c69d2a47ea670b442974b53935d1edc7fd64eb21e047a839171b9190a45060016109a2565b610a69828260405180602001604052805f8152506136b8565b5f8281526006602052604090206131e082826140cb565b506040518281527ff8e1a15aba9398e019f0b49df1a4fde98ee17ae345cb5f6b5e2c27f5033e8ce79060200160405180910390a15050565b6001600160a01b03821661324157604051633250574960e11b81525f6004820152602401610ae1565b5f61324d83835f612fc2565b90506001600160a01b03811661327957604051637e27328960e01b815260048101839052602401610ae1565b836001600160a01b0316816001600160a01b031614610ccd576040516364283d7b60e01b81526001600160a01b0380861660048301526024820184905282166044820152606401610ae1565b6001600160a01b0382166132f757604051630b61174360e31b81526001600160a01b0383166004820152602401610ae1565b6001600160a01b038381165f81815260056020908152604080832094871680845294825291829020805460ff191686151590811790915591519182527f17307eab39ab6107e8899845ad3d59bd9653f200f220920489ca2b5937696c319101610ee3565b6001600160a01b0383163b15612f1857604051630a85bd0160e11b81526001600160a01b0384169063150b7a029061339d908890889087908790600401614341565b6020604051808303815f875af19250505080156133d7575060408051601f3d908101601f191682019092526133d49181019061437d565b60015b61343e573d808015613404576040519150601f19603f3d011682016040523d82523d5f602084013e613409565b606091505b5080515f0361343657604051633250574960e11b81526001600160a01b0385166004820152602401610ae1565b805160208201fd5b6001600160e01b03198116630a85bd0160e11b1461347a57604051633250574960e11b81526001600160a01b0385166004820152602401610ae1565b505050505050565b606061348d82612f70565b505f6134a360408051602081019091525f815290565b90505f8151116134c15760405180602001604052805f8152506134ec565b806134cb846136cf565b6040516020016134dc929190614313565b6040516020818303038152906040525b9392505050565b5f6001600160e01b03198216632483248360e11b14806109a257506109a28261375f565b808061352b57506001600160a01b03821615155b156135ec575f61353a84612f70565b90506001600160a01b038316158015906135665750826001600160a01b0316816001600160a01b031614155b801561357957506135778184612f1f565b155b156135a25760405163a9fbf51f60e01b81526001600160a01b0384166004820152602401610ae1565b81156135ea5783856001600160a01b0316826001600160a01b03167f8c5be1e5ebec7d5bd14f71427d1e84f3dd0314c0f7b2291e5b200ac8c7c3b92560405160405180910390a45b505b50505f90815260046020526040902080546001600160a01b0319166001600160a01b0392909216919091179055565b6136258282612311565b610a695760405163e2517d3f60e01b81526001600160a01b038216600482015260248101839052604401610ae1565b61365f8383836137ae565b610d2a576001600160a01b03831661368d57604051637e27328960e01b815260048101829052602401610ae1565b60405163177e802f60e01b81526001600160a01b038316600482015260248101829052604401610ae1565b6136c2838361380f565b610d2a335f85858561335b565b60605f6136db83613870565b60010190505f8167ffffffffffffffff8111156136fa576136fa613c52565b6040519080825280601f01601f191660200182016040528015613724576020820181803683370190505b5090508181016020015b5f19016f181899199a1a9b1b9c1cb0b131b232b360811b600a86061a8153600a850494508461372e57509392505050565b5f6001600160e01b031982166380ac58cd60e01b148061378f57506001600160e01b03198216635b5e139f60e01b145b806109a257506301ffc9a760e01b6001600160e01b03198316146109a2565b5f6001600160a01b03831615801590612a865750826001600160a01b0316846001600160a01b031614806137e757506137e78484612f1f565b80612a865750505f908152600460205260409020546001600160a01b03908116911614919050565b6001600160a01b03821661383857604051633250574960e11b81525f6004820152602401610ae1565b5f61384483835f612fc2565b90506001600160a01b03811615610d2a576040516339e3563760e11b81525f6004820152602401610ae1565b5f8072184f03e93ff9f4daa797ed6e38ed64bf6a1f0160401b83106138ae5772184f03e93ff9f4daa797ed6e38ed64bf6a1f0160401b830492506040015b6d04ee2d6d415b85acef810000000083106138da576d04ee2d6d415b85acef8100000000830492506020015b662386f26fc1000083106138f857662386f26fc10000830492506010015b6305f5e1008310613910576305f5e100830492506008015b612710831061392457612710830492506004015b60648310613936576064830492506002015b600a83106109a25760010192915050565b50805461395390613fc3565b5f825580601f10613962575050565b601f0160209004905f5260205f2090810190612fbf9190613a1a565b828054828255905f5260205f209081019282156139d1579160200282015b828111156139d157825182546001600160a01b0319166001600160a01b0390911617825560209092019160019091019061399c565b506139dd929150613a1a565b5090565b828054828255905f5260205f209081019282156139d1579160200282015b828111156139d15782518255916020019190600101906139ff565b5b808211156139dd575f8155600101613a1b565b6001600160e01b031981168114612fbf575f80fd5b5f60208284031215613a53575f80fd5b81356134ec81613a2e565b5f5b83811015613a78578181015183820152602001613a60565b50505f910152565b5f8151808452613a97816020860160208601613a5e565b601f01601f19169290920160200192915050565b602081525f6134ec6020830184613a80565b5f60208284031215613acd575f80fd5b5035919050565b80356001600160a01b0381168114613aea575f80fd5b919050565b5f8060408385031215613b00575f80fd5b613b0983613ad4565b946020939093013593505050565b5f805f60608486031215613b29575f80fd5b613b3284613ad4565b9250613b4060208501613ad4565b9150604084013590509250925092565b5f8060408385031215613b61575f80fd5b82359150613b7160208401613ad4565b90509250929050565b634e487b7160e01b5f52602160045260245ffd5b888152610100810160078910613bb257634e487b7160e01b5f52602160045260245ffd5b60208201989098526001600160a01b0396871660408201529490951660608501529115156080840152151560a083015260c082015290151560e090910152919050565b6001600160a01b03851681526080602082018190525f90613c1890830186613a80565b60408301949094525090151560609091015292915050565b5f805f60608486031215613c42575f80fd5b83359250613b4060208501613ad4565b634e487b7160e01b5f52604160045260245ffd5b5f67ffffffffffffffff80841115613c8057613c80613c52565b604051601f8501601f19908116603f01168101908282118183101715613ca857613ca8613c52565b81604052809350858152868686011115613cc0575f80fd5b858560208301375f602087830101525050509392505050565b5f8060408385031215613cea575f80fd5b823567ffffffffffffffff811115613d00575f80fd5b8301601f81018513613d10575f80fd5b613d1f85823560208401613c66565b95602094909401359450505050565b604081525f613d406040830185613a80565b8281036020840152613d528185613a80565b95945050505050565b5f8083601f840112613d6b575f80fd5b50813567ffffffffffffffff811115613d82575f80fd5b602083019150836020828501011115613d99575f80fd5b9250929050565b5f805f805f60608688031215613db4575f80fd5b85359450602086013567ffffffffffffffff80821115613dd2575f80fd5b613dde89838a01613d5b565b90965094506040880135915080821115613df6575f80fd5b50613e0388828901613d5b565b969995985093965092949392505050565b5f60208284031215613e24575f80fd5b6134ec82613ad4565b80358015158114613aea575f80fd5b5f60208284031215613e4c575f80fd5b6134ec82613e2d565b5f8060408385031215613e66575f80fd5b613e6f83613ad4565b9150613b7160208401613e2d565b5f8151808452602080850194508084015f5b83811015613eb45781516001600160a01b031687529582019590820190600101613e8f565b509495945050505050565b5f8151808452602080850194508084015f5b83811015613eb457815187529582019590820190600101613ed1565b606081525f613eff6060830186613e7d565b8281036020840152613f118186613ebf565b9150508215156040830152949350505050565b5f805f8060808587031215613f37575f80fd5b613f4085613ad4565b9350613f4e60208601613ad4565b925060408501359150606085013567ffffffffffffffff811115613f70575f80fd5b8501601f81018713613f80575f80fd5b613f8f87823560208401613c66565b91505092959194509250565b5f8060408385031215613fac575f80fd5b613fb583613ad4565b9150613b7160208401613ad4565b600181811c90821680613fd757607f821691505b602082108103613ff557634e487b7160e01b5f52602260045260245ffd5b50919050565b6020808252818101527f4c616e6452656769737472793a2070726f70657274792069732066726f7a656e604082015260600190565b634e487b7160e01b5f52601160045260245ffd5b80820281158282048414176109a2576109a2614030565b808201808211156109a2576109a2614030565b5f6001820161407f5761407f614030565b5060010190565b601f821115610d2a575f81815260208120601f850160051c810160208610156140ac5750805b601f850160051c820191505b8181101561347a578281556001016140b8565b815167ffffffffffffffff8111156140e5576140e5613c52565b6140f9816140f38454613fc3565b84614086565b602080601f83116001811461412c575f84156141155750858301515b5f19600386901b1c1916600185901b17855561347a565b5f85815260208120601f198616915b8281101561415a5788860151825594840194600190910190840161413b565b508582101561417757878501515f19600388901b60f8161c191681555b5050505050600190811b01905550565b828152604060208201525f612a866040830184613a80565b60208082526019908201527f4c616e6452656769737472793a206f6e6c792073656c6c657200000000000000604082015260600190565b81835281816020850137505f828201602090810191909152601f909101601f19169091010190565b604081525f6142116040830186886141d6565b82810360208401526142248185876141d6565b979650505050505050565b634e487b7160e01b5f52603260045260245ffd5b5f8261425d57634e487b7160e01b5f52601260045260245ffd5b500490565b604081525f6142746040830185613e7d565b8281036020840152613d528185613ebf565b8281525f60206040818401525f845461429e81613fc3565b806040870152606060018084165f81146142bf57600181146142d957614304565b60ff1985168984015283151560051b890183019550614304565b895f52865f205f5b858110156142fc5781548b82018601529083019088016142e1565b8a0184019650505b50939998505050505050505050565b5f8351614324818460208801613a5e565b835190830190614338818360208801613a5e565b01949350505050565b6001600160a01b03858116825284166020820152604081018390526080606082018190525f9061437390830184613a80565b9695505050505050565b5f6020828403121561438d575f80fd5b81516134ec81613a2e56feedcc084d3dcd65a1f7f23c65c46722faca6953d28e43150a467cf43e5c309238a264697066735822122062688e58a664d6006943e1e165132e7270669f46835c1b0b94a4e56e73135a4364736f6c63430008140033","opcodes":"PUSH1 0x80 PUSH1 0x40 MSTORE PUSH1 0x10 DUP1 SLOAD PUSH1 0xFF NOT AND SWAP1 SSTORE CALLVALUE DUP1 ISZERO PUSH3 0x1A JUMPI PUSH0 DUP1 REVERT JUMPDEST POP PUSH1 0x40 MLOAD DUP1 PUSH1 0x40 ADD PUSH1 0x40 MSTORE DUP1 PUSH1 0x8 DUP2 MSTORE PUSH1 0x20 ADD PUSH8 0x13185B9911195959 PUSH1 0xC2 SHL DUP2 MSTORE POP PUSH1 0x40 MLOAD DUP1 PUSH1 0x40 ADD PUSH1 0x40 MSTORE DUP1 PUSH1 0x3 DUP2 MSTORE PUSH1 0x20 ADD PUSH3 0x131391 PUSH1 0xEA SHL DUP2 MSTORE POP DUP2 PUSH0 SWAP1 DUP2 PUSH3 0x68 SWAP2 SWAP1 PUSH3 0x20C JUMP JUMPDEST POP PUSH1 0x1 PUSH3 0x77 DUP3 DUP3 PUSH3 0x20C JUMP JUMPDEST POP PUSH3 0x88 SWAP2 POP PUSH0 SWAP1 POP CALLER PUSH3 0xBC JUMP JUMPDEST POP PUSH3 0xB5 PUSH32 0xEDCC084D3DCD65A1F7F23C65C46722FACA6953D28E43150A467CF43E5C309238 CALLER PUSH3 0xBC JUMP JUMPDEST POP PUSH3 0x2D4 JUMP JUMPDEST PUSH0 DUP3 DUP2 MSTORE PUSH1 0x7 PUSH1 0x20 SWAP1 DUP2 MSTORE PUSH1 0x40 DUP1 DUP4 KECCAK256 PUSH1 0x1 PUSH1 0x1 PUSH1 0xA0 SHL SUB DUP6 AND DUP5 MSTORE SWAP1 SWAP2 MSTORE DUP2 KECCAK256 SLOAD PUSH1 0xFF AND PUSH3 0x163 JUMPI PUSH0 DUP4 DUP2 MSTORE PUSH1 0x7 PUSH1 0x20 SWAP1 DUP2 MSTORE PUSH1 0x40 DUP1 DUP4 KECCAK256 PUSH1 0x1 PUSH1 0x1 PUSH1 0xA0 SHL SUB DUP7 AND DUP5 MSTORE SWAP1 SWAP2 MSTORE SWAP1 KECCAK256 DUP1 SLOAD PUSH1 0xFF NOT AND PUSH1 0x1 OR SWAP1 SSTORE PUSH3 0x11A CALLER SWAP1 JUMP JUMPDEST PUSH1 0x1 PUSH1 0x1 PUSH1 0xA0 SHL SUB AND DUP3 PUSH1 0x1 PUSH1 0x1 PUSH1 0xA0 SHL SUB AND DUP5 PUSH32 0x2F8788117E7EFF1D82E926EC794901D17C78024A50270940304540A733656F0D PUSH1 0x40 MLOAD PUSH1 0x40 MLOAD DUP1 SWAP2 SUB SWAP1 LOG4 POP PUSH1 0x1 PUSH3 0x166 JUMP JUMPDEST POP PUSH0 JUMPDEST SWAP3 SWAP2 POP POP JUMP JUMPDEST PUSH4 0x4E487B71 PUSH1 0xE0 SHL PUSH0 MSTORE PUSH1 0x41 PUSH1 0x4 MSTORE PUSH1 0x24 PUSH0 REVERT JUMPDEST PUSH1 0x1 DUP2 DUP2 SHR SWAP1 DUP3 AND DUP1 PUSH3 0x195 JUMPI PUSH1 0x7F DUP3 AND SWAP2 POP JUMPDEST PUSH1 0x20 DUP3 LT DUP2 SUB PUSH3 0x1B4 JUMPI PUSH4 0x4E487B71 PUSH1 0xE0 SHL PUSH0 MSTORE PUSH1 0x22 PUSH1 0x4 MSTORE PUSH1 0x24 PUSH0 REVERT JUMPDEST POP SWAP2 SWAP1 POP JUMP JUMPDEST PUSH1 0x1F DUP3 GT ISZERO PUSH3 0x207 JUMPI PUSH0 DUP2 DUP2 MSTORE PUSH1 0x20 DUP2 KECCAK256 PUSH1 0x1F DUP6 ADD PUSH1 0x5 SHR DUP2 ADD PUSH1 0x20 DUP7 LT ISZERO PUSH3 0x1E2 JUMPI POP DUP1 JUMPDEST PUSH1 0x1F DUP6 ADD PUSH1 0x5 SHR DUP3 ADD SWAP2 POP JUMPDEST DUP2 DUP2 LT ISZERO PUSH3 0x203 JUMPI DUP3 DUP2 SSTORE PUSH1 0x1 ADD PUSH3 0x1EE JUMP JUMPDEST POP POP POP JUMPDEST POP POP POP JUMP JUMPDEST DUP2 MLOAD PUSH1 0x1 PUSH1 0x1 PUSH1 0x40 SHL SUB DUP2 GT ISZERO PUSH3 0x228 JUMPI PUSH3 0x228 PUSH3 0x16C JUMP JUMPDEST PUSH3 0x240 DUP2 PUSH3 0x239 DUP5 SLOAD PUSH3 0x180 JUMP JUMPDEST DUP5 PUSH3 0x1BA JUMP JUMPDEST PUSH1 0x20 DUP1 PUSH1 0x1F DUP4 GT PUSH1 0x1 DUP2 EQ PUSH3 0x276 JUMPI PUSH0 DUP5 ISZERO PUSH3 0x25E JUMPI POP DUP6 DUP4 ADD MLOAD JUMPDEST PUSH0 NOT PUSH1 0x3 DUP7 SWAP1 SHL SHR NOT AND PUSH1 0x1 DUP6 SWAP1 SHL OR DUP6 SSTORE PUSH3 0x203 JUMP JUMPDEST PUSH0 DUP6 DUP2 MSTORE PUSH1 0x20 DUP2 KECCAK256 PUSH1 0x1F NOT DUP7 AND SWAP2 JUMPDEST DUP3 DUP2 LT ISZERO PUSH3 0x2A6 JUMPI DUP9 DUP7 ADD MLOAD DUP3 SSTORE SWAP5 DUP5 ADD SWAP5 PUSH1 0x1 SWAP1 SWAP2 ADD SWAP1 DUP5 ADD PUSH3 0x285 JUMP JUMPDEST POP DUP6 DUP3 LT ISZERO PUSH3 0x2C4 JUMPI DUP8 DUP6 ADD MLOAD PUSH0 NOT PUSH1 0x3 DUP9 SWAP1 SHL PUSH1 0xF8 AND SHR NOT AND DUP2 SSTORE JUMPDEST POP POP POP POP POP PUSH1 0x1 SWAP1 DUP2 SHL ADD SWAP1 SSTORE POP JUMP JUMPDEST PUSH2 0x43EE DUP1 PUSH3 0x2E2 PUSH0 CODECOPY PUSH0 RETURN INVALID PUSH1 0x80 PUSH1 0x40 MSTORE PUSH1 0x4 CALLDATASIZE LT PUSH2 0x26A JUMPI PUSH0 CALLDATALOAD PUSH1 0xE0 SHR DUP1 PUSH4 0x69765558 GT PUSH2 0x14A JUMPI DUP1 PUSH4 0x9F44657C GT PUSH2 0xBE JUMPI DUP1 PUSH4 0xC87B56DD GT PUSH2 0x78 JUMPI DUP1 PUSH4 0xC87B56DD EQ PUSH2 0x887 JUMPI DUP1 PUSH4 0xD547741F EQ PUSH2 0x8A6 JUMPI DUP1 PUSH4 0xDDE5E16A EQ PUSH2 0x8C5 JUMPI DUP1 PUSH4 0xE985E9C5 EQ PUSH2 0x8E4 JUMPI DUP1 PUSH4 0xF68E9553 EQ PUSH2 0x903 JUMPI DUP1 PUSH4 0xF7B10808 EQ PUSH2 0x923 JUMPI PUSH0 DUP1 REVERT JUMPDEST DUP1 PUSH4 0x9F44657C EQ PUSH2 0x781 JUMPI DUP1 PUSH4 0xA217FDDF EQ PUSH2 0x7CF JUMPI DUP1 PUSH4 0xA22CB465 EQ PUSH2 0x7E2 JUMPI DUP1 PUSH4 0xA53887F2 EQ PUSH2 0x801 JUMPI DUP1 PUSH4 0xAA0EF46A EQ PUSH2 0x83A JUMPI DUP1 PUSH4 0xB88D4FDE EQ PUSH2 0x868 JUMPI PUSH0 DUP1 REVERT JUMPDEST DUP1 PUSH4 0x8927A106 GT PUSH2 0x10F JUMPI DUP1 PUSH4 0x8927A106 EQ PUSH2 0x664 JUMPI DUP1 PUSH4 0x8E1E8732 EQ PUSH2 0x6DD JUMPI DUP1 PUSH4 0x91D14854 EQ PUSH2 0x6FC JUMPI DUP1 PUSH4 0x95D89B41 EQ PUSH2 0x71B JUMPI DUP1 PUSH4 0x9875EA2B EQ PUSH2 0x72F JUMPI DUP1 PUSH4 0x9DE1322E EQ PUSH2 0x762 JUMPI PUSH0 DUP1 REVERT JUMPDEST DUP1 PUSH4 0x69765558 EQ PUSH2 0x5D9 JUMPI DUP1 PUSH4 0x6A84A985 EQ PUSH2 0x5F2 JUMPI DUP1 PUSH4 0x70A08231 EQ PUSH2 0x607 JUMPI DUP1 PUSH4 0x7EDADD54 EQ PUSH2 0x626 JUMPI DUP1 PUSH4 0x82A61BF6 EQ PUSH2 0x645 JUMPI PUSH0 DUP1 REVERT JUMPDEST DUP1 PUSH4 0x3B76594D GT PUSH2 0x1E1 JUMPI DUP1 PUSH4 0x4A406288 GT PUSH2 0x1A6 JUMPI DUP1 PUSH4 0x4A406288 EQ PUSH2 0x511 JUMPI DUP1 PUSH4 0x513311D7 EQ PUSH2 0x530 JUMPI DUP1 PUSH4 0x564A565D EQ PUSH2 0x54F JUMPI DUP1 PUSH4 0x5AD2D6E5 EQ PUSH2 0x57C JUMPI DUP1 PUSH4 0x6352211E EQ PUSH2 0x59B JUMPI DUP1 PUSH4 0x682E0101 EQ PUSH2 0x5BA JUMPI PUSH0 DUP1 REVERT JUMPDEST DUP1 PUSH4 0x3B76594D EQ PUSH2 0x46C JUMPI DUP1 PUSH4 0x424E6575 EQ PUSH2 0x47F JUMPI DUP1 PUSH4 0x42842E0E EQ PUSH2 0x4AE JUMPI DUP1 PUSH4 0x44F018EB EQ PUSH2 0x4CD JUMPI DUP1 PUSH4 0x47B257ED EQ PUSH2 0x4FE JUMPI PUSH0 DUP1 REVERT JUMPDEST DUP1 PUSH4 0x1D99D83F GT PUSH2 0x232 JUMPI DUP1 PUSH4 0x1D99D83F EQ PUSH2 0x339 JUMPI DUP1 PUSH4 0x23B872DD EQ PUSH2 0x358 JUMPI DUP1 PUSH4 0x248A9CA3 EQ PUSH2 0x377 JUMPI DUP1 PUSH4 0x2F2FF15D EQ PUSH2 0x3A5 JUMPI DUP1 PUSH4 0x32665FFB EQ PUSH2 0x3C4 JUMPI DUP1 PUSH4 0x36568ABE EQ PUSH2 0x44D JUMPI PUSH0 DUP1 REVERT JUMPDEST DUP1 PUSH4 0x1FFC9A7 EQ PUSH2 0x26E JUMPI DUP1 PUSH4 0x6FDDE03 EQ PUSH2 0x2A2 JUMPI DUP1 PUSH4 0x81812FC EQ PUSH2 0x2C3 JUMPI DUP1 PUSH4 0x95EA7B3 EQ PUSH2 0x2FA JUMPI DUP1 PUSH4 0xB3BCE20 EQ PUSH2 0x31B JUMPI JUMPDEST PUSH0 DUP1 REVERT JUMPDEST CALLVALUE DUP1 ISZERO PUSH2 0x279 JUMPI PUSH0 DUP1 REVERT JUMPDEST POP PUSH2 0x28D PUSH2 0x288 CALLDATASIZE PUSH1 0x4 PUSH2 0x3A43 JUMP JUMPDEST PUSH2 0x998 JUMP JUMPDEST PUSH1 0x40 MLOAD SWAP1 ISZERO ISZERO DUP2 MSTORE PUSH1 0x20 ADD JUMPDEST PUSH1 0x40 MLOAD DUP1 SWAP2 SUB SWAP1 RETURN JUMPDEST CALLVALUE DUP1 ISZERO PUSH2 0x2AD JUMPI PUSH0 DUP1 REVERT JUMPDEST POP PUSH2 0x2B6 PUSH2 0x9A8 JUMP JUMPDEST PUSH1 0x40 MLOAD PUSH2 0x299 SWAP2 SWAP1 PUSH2 0x3AAB JUMP JUMPDEST CALLVALUE DUP1 ISZERO PUSH2 0x2CE JUMPI PUSH0 DUP1 REVERT JUMPDEST POP PUSH2 0x2E2 PUSH2 0x2DD CALLDATASIZE PUSH1 0x4 PUSH2 0x3ABD JUMP JUMPDEST PUSH2 0xA37 JUMP JUMPDEST PUSH1 0x40 MLOAD PUSH1 0x1 PUSH1 0x1 PUSH1 0xA0 SHL SUB SWAP1 SWAP2 AND DUP2 MSTORE PUSH1 0x20 ADD PUSH2 0x299 JUMP JUMPDEST CALLVALUE DUP1 ISZERO PUSH2 0x305 JUMPI PUSH0 DUP1 REVERT JUMPDEST POP PUSH2 0x319 PUSH2 0x314 CALLDATASIZE PUSH1 0x4 PUSH2 0x3AEF JUMP JUMPDEST PUSH2 0xA5E JUMP JUMPDEST STOP JUMPDEST CALLVALUE DUP1 ISZERO PUSH2 0x326 JUMPI PUSH0 DUP1 REVERT JUMPDEST POP PUSH1 0xE SLOAD JUMPDEST PUSH1 0x40 MLOAD SWAP1 DUP2 MSTORE PUSH1 0x20 ADD PUSH2 0x299 JUMP JUMPDEST CALLVALUE DUP1 ISZERO PUSH2 0x344 JUMPI PUSH0 DUP1 REVERT JUMPDEST POP PUSH2 0x319 PUSH2 0x353 CALLDATASIZE PUSH1 0x4 PUSH2 0x3ABD JUMP JUMPDEST PUSH2 0xA6D JUMP JUMPDEST CALLVALUE DUP1 ISZERO PUSH2 0x363 JUMPI PUSH0 DUP1 REVERT JUMPDEST POP PUSH2 0x319 PUSH2 0x372 CALLDATASIZE PUSH1 0x4 PUSH2 0x3B17 JUMP JUMPDEST PUSH2 0xC4A JUMP JUMPDEST CALLVALUE DUP1 ISZERO PUSH2 0x382 JUMPI PUSH0 DUP1 REVERT JUMPDEST POP PUSH2 0x32B PUSH2 0x391 CALLDATASIZE PUSH1 0x4 PUSH2 0x3ABD JUMP JUMPDEST PUSH0 SWAP1 DUP2 MSTORE PUSH1 0x7 PUSH1 0x20 MSTORE PUSH1 0x40 SWAP1 KECCAK256 PUSH1 0x1 ADD SLOAD SWAP1 JUMP JUMPDEST CALLVALUE DUP1 ISZERO PUSH2 0x3B0 JUMPI PUSH0 DUP1 REVERT JUMPDEST POP PUSH2 0x319 PUSH2 0x3BF CALLDATASIZE PUSH1 0x4 PUSH2 0x3B50 JUMP JUMPDEST PUSH2 0xCD3 JUMP JUMPDEST CALLVALUE DUP1 ISZERO PUSH2 0x3CF JUMPI PUSH0 DUP1 REVERT JUMPDEST POP PUSH2 0x439 PUSH2 0x3DE CALLDATASIZE PUSH1 0x4 PUSH2 0x3ABD JUMP JUMPDEST PUSH0 SWAP1 DUP2 MSTORE PUSH1 0x8 PUSH1 0x20 MSTORE PUSH1 0x40 SWAP1 KECCAK256 DUP1 SLOAD PUSH1 0x1 DUP3 ADD SLOAD PUSH1 0x2 DUP4 ADD SLOAD PUSH1 0x3 DUP5 ADD SLOAD PUSH1 0x4 SWAP1 SWAP5 ADD SLOAD SWAP3 SWAP5 PUSH1 0xFF DUP1 DUP5 AND SWAP6 PUSH1 0x1 PUSH1 0x1 PUSH1 0xA0 SHL SUB PUSH2 0x100 SWAP1 SWAP6 DIV DUP6 AND SWAP6 SWAP5 DUP5 AND SWAP5 PUSH1 0x1 PUSH1 0xA0 SHL DUP6 DIV DUP4 AND SWAP5 PUSH1 0x1 PUSH1 0xA8 SHL SWAP1 DIV DUP4 AND SWAP4 SWAP2 SWAP3 AND SWAP1 JUMP JUMPDEST PUSH1 0x40 MLOAD PUSH2 0x299 SWAP9 SWAP8 SWAP7 SWAP6 SWAP5 SWAP4 SWAP3 SWAP2 SWAP1 PUSH2 0x3B8E JUMP JUMPDEST CALLVALUE DUP1 ISZERO PUSH2 0x458 JUMPI PUSH0 DUP1 REVERT JUMPDEST POP PUSH2 0x319 PUSH2 0x467 CALLDATASIZE PUSH1 0x4 PUSH2 0x3B50 JUMP JUMPDEST PUSH2 0xCF7 JUMP JUMPDEST PUSH2 0x319 PUSH2 0x47A CALLDATASIZE PUSH1 0x4 PUSH2 0x3ABD JUMP JUMPDEST PUSH2 0xD2F JUMP JUMPDEST CALLVALUE DUP1 ISZERO PUSH2 0x48A JUMPI PUSH0 DUP1 REVERT JUMPDEST POP PUSH2 0x49E PUSH2 0x499 CALLDATASIZE PUSH1 0x4 PUSH2 0x3ABD JUMP JUMPDEST PUSH2 0xEF0 JUMP JUMPDEST PUSH1 0x40 MLOAD PUSH2 0x299 SWAP5 SWAP4 SWAP3 SWAP2 SWAP1 PUSH2 0x3BF5 JUMP JUMPDEST CALLVALUE DUP1 ISZERO PUSH2 0x4B9 JUMPI PUSH0 DUP1 REVERT JUMPDEST POP PUSH2 0x319 PUSH2 0x4C8 CALLDATASIZE PUSH1 0x4 PUSH2 0x3B17 JUMP JUMPDEST PUSH2 0xFAC JUMP JUMPDEST CALLVALUE DUP1 ISZERO PUSH2 0x4D8 JUMPI PUSH0 DUP1 REVERT JUMPDEST POP PUSH2 0x28D PUSH2 0x4E7 CALLDATASIZE PUSH1 0x4 PUSH2 0x3ABD JUMP JUMPDEST PUSH1 0xC PUSH1 0x20 MSTORE PUSH0 SWAP1 DUP2 MSTORE PUSH1 0x40 SWAP1 KECCAK256 PUSH1 0x2 ADD SLOAD PUSH1 0xFF AND DUP2 JUMP JUMPDEST PUSH2 0x319 PUSH2 0x50C CALLDATASIZE PUSH1 0x4 PUSH2 0x3C30 JUMP JUMPDEST PUSH2 0xFC6 JUMP JUMPDEST CALLVALUE DUP1 ISZERO PUSH2 0x51C JUMPI PUSH0 DUP1 REVERT JUMPDEST POP PUSH2 0x319 PUSH2 0x52B CALLDATASIZE PUSH1 0x4 PUSH2 0x3CD9 JUMP JUMPDEST PUSH2 0x12A2 JUMP JUMPDEST CALLVALUE DUP1 ISZERO PUSH2 0x53B JUMPI PUSH0 DUP1 REVERT JUMPDEST POP PUSH2 0x319 PUSH2 0x54A CALLDATASIZE PUSH1 0x4 PUSH2 0x3ABD JUMP JUMPDEST PUSH2 0x141C JUMP JUMPDEST CALLVALUE DUP1 ISZERO PUSH2 0x55A JUMPI PUSH0 DUP1 REVERT JUMPDEST POP PUSH2 0x56E PUSH2 0x569 CALLDATASIZE PUSH1 0x4 PUSH2 0x3ABD JUMP JUMPDEST PUSH2 0x1559 JUMP JUMPDEST PUSH1 0x40 MLOAD PUSH2 0x299 SWAP3 SWAP2 SWAP1 PUSH2 0x3D2E JUMP JUMPDEST CALLVALUE DUP1 ISZERO PUSH2 0x587 JUMPI PUSH0 DUP1 REVERT JUMPDEST POP PUSH2 0x319 PUSH2 0x596 CALLDATASIZE PUSH1 0x4 PUSH2 0x3DA0 JUMP JUMPDEST PUSH2 0x1680 JUMP JUMPDEST CALLVALUE DUP1 ISZERO PUSH2 0x5A6 JUMPI PUSH0 DUP1 REVERT JUMPDEST POP PUSH2 0x2E2 PUSH2 0x5B5 CALLDATASIZE PUSH1 0x4 PUSH2 0x3ABD JUMP JUMPDEST PUSH2 0x1876 JUMP JUMPDEST CALLVALUE DUP1 ISZERO PUSH2 0x5C5 JUMPI PUSH0 DUP1 REVERT JUMPDEST POP PUSH2 0x319 PUSH2 0x5D4 CALLDATASIZE PUSH1 0x4 PUSH2 0x3ABD JUMP JUMPDEST PUSH2 0x1880 JUMP JUMPDEST CALLVALUE DUP1 ISZERO PUSH2 0x5E4 JUMPI PUSH0 DUP1 REVERT JUMPDEST POP PUSH1 0x10 SLOAD PUSH2 0x28D SWAP1 PUSH1 0xFF AND DUP2 JUMP JUMPDEST CALLVALUE DUP1 ISZERO PUSH2 0x5FD JUMPI PUSH0 DUP1 REVERT JUMPDEST POP PUSH2 0x32B PUSH1 0xF SLOAD DUP2 JUMP JUMPDEST CALLVALUE DUP1 ISZERO PUSH2 0x612 JUMPI PUSH0 DUP1 REVERT JUMPDEST POP PUSH2 0x32B PUSH2 0x621 CALLDATASIZE PUSH1 0x4 PUSH2 0x3E14 JUMP JUMPDEST PUSH2 0x1D0C JUMP JUMPDEST CALLVALUE DUP1 ISZERO PUSH2 0x631 JUMPI PUSH0 DUP1 REVERT JUMPDEST POP PUSH2 0x319 PUSH2 0x640 CALLDATASIZE PUSH1 0x4 PUSH2 0x3E3C JUMP JUMPDEST PUSH2 0x1D51 JUMP JUMPDEST CALLVALUE DUP1 ISZERO PUSH2 0x650 JUMPI PUSH0 DUP1 REVERT JUMPDEST POP PUSH2 0x319 PUSH2 0x65F CALLDATASIZE PUSH1 0x4 PUSH2 0x3B50 JUMP JUMPDEST PUSH2 0x1D6F JUMP JUMPDEST CALLVALUE DUP1 ISZERO PUSH2 0x66F JUMPI PUSH0 DUP1 REVERT JUMPDEST POP PUSH2 0x6B1 PUSH2 0x67E CALLDATASIZE PUSH1 0x4 PUSH2 0x3ABD JUMP JUMPDEST PUSH1 0xB PUSH1 0x20 MSTORE PUSH0 SWAP1 DUP2 MSTORE PUSH1 0x40 SWAP1 KECCAK256 DUP1 SLOAD PUSH1 0x1 DUP3 ADD SLOAD PUSH1 0x2 DUP4 ADD SLOAD PUSH1 0x3 SWAP1 SWAP4 ADD SLOAD PUSH1 0x1 PUSH1 0x1 PUSH1 0xA0 SHL SUB SWAP1 SWAP3 AND SWAP3 SWAP1 SWAP2 PUSH1 0xFF AND DUP5 JUMP JUMPDEST PUSH1 0x40 DUP1 MLOAD PUSH1 0x1 PUSH1 0x1 PUSH1 0xA0 SHL SUB SWAP1 SWAP6 AND DUP6 MSTORE PUSH1 0x20 DUP6 ADD SWAP4 SWAP1 SWAP4 MSTORE SWAP2 DUP4 ADD MSTORE ISZERO ISZERO PUSH1 0x60 DUP3 ADD MSTORE PUSH1 0x80 ADD PUSH2 0x299 JUMP JUMPDEST CALLVALUE DUP1 ISZERO PUSH2 0x6E8 JUMPI PUSH0 DUP1 REVERT JUMPDEST POP PUSH2 0x319 PUSH2 0x6F7 CALLDATASIZE PUSH1 0x4 PUSH2 0x3ABD JUMP JUMPDEST PUSH2 0x2051 JUMP JUMPDEST CALLVALUE DUP1 ISZERO PUSH2 0x707 JUMPI PUSH0 DUP1 REVERT JUMPDEST POP PUSH2 0x28D PUSH2 0x716 CALLDATASIZE PUSH1 0x4 PUSH2 0x3B50 JUMP JUMPDEST PUSH2 0x2311 JUMP JUMPDEST CALLVALUE DUP1 ISZERO PUSH2 0x726 JUMPI PUSH0 DUP1 REVERT JUMPDEST POP PUSH2 0x2B6 PUSH2 0x233B JUMP JUMPDEST CALLVALUE DUP1 ISZERO PUSH2 0x73A JUMPI PUSH0 DUP1 REVERT JUMPDEST POP PUSH2 0x32B PUSH32 0x183424541D14CD9BD5D5E4D92B46028BE6700D27EC9E3ECC10CBE3E71DEA50A5 DUP2 JUMP JUMPDEST CALLVALUE DUP1 ISZERO PUSH2 0x76D JUMPI PUSH0 DUP1 REVERT JUMPDEST POP PUSH2 0x319 PUSH2 0x77C CALLDATASIZE PUSH1 0x4 PUSH2 0x3ABD JUMP JUMPDEST PUSH2 0x234A JUMP JUMPDEST CALLVALUE DUP1 ISZERO PUSH2 0x78C JUMPI PUSH0 DUP1 REVERT JUMPDEST POP PUSH2 0x6B1 PUSH2 0x79B CALLDATASIZE PUSH1 0x4 PUSH2 0x3ABD JUMP JUMPDEST PUSH0 SWAP1 DUP2 MSTORE PUSH1 0xB PUSH1 0x20 MSTORE PUSH1 0x40 SWAP1 KECCAK256 DUP1 SLOAD PUSH1 0x1 DUP3 ADD SLOAD PUSH1 0x2 DUP4 ADD SLOAD PUSH1 0x3 SWAP1 SWAP4 ADD SLOAD PUSH1 0x1 PUSH1 0x1 PUSH1 0xA0 SHL SUB SWAP1 SWAP3 AND SWAP4 SWAP1 SWAP3 SWAP2 PUSH1 0xFF AND SWAP1 JUMP JUMPDEST CALLVALUE DUP1 ISZERO PUSH2 0x7DA JUMPI PUSH0 DUP1 REVERT JUMPDEST POP PUSH2 0x32B PUSH0 DUP2 JUMP JUMPDEST CALLVALUE DUP1 ISZERO PUSH2 0x7ED JUMPI PUSH0 DUP1 REVERT JUMPDEST POP PUSH2 0x319 PUSH2 0x7FC CALLDATASIZE PUSH1 0x4 PUSH2 0x3E55 JUMP JUMPDEST PUSH2 0x2887 JUMP JUMPDEST CALLVALUE DUP1 ISZERO PUSH2 0x80C JUMPI PUSH0 DUP1 REVERT JUMPDEST POP PUSH2 0x28D PUSH2 0x81B CALLDATASIZE PUSH1 0x4 PUSH2 0x3B50 JUMP JUMPDEST PUSH1 0xD PUSH1 0x20 SWAP1 DUP2 MSTORE PUSH0 SWAP3 DUP4 MSTORE PUSH1 0x40 DUP1 DUP5 KECCAK256 SWAP1 SWAP2 MSTORE SWAP1 DUP3 MSTORE SWAP1 KECCAK256 SLOAD PUSH1 0xFF AND DUP2 JUMP JUMPDEST CALLVALUE DUP1 ISZERO PUSH2 0x845 JUMPI PUSH0 DUP1 REVERT JUMPDEST POP PUSH2 0x859 PUSH2 0x854 CALLDATASIZE PUSH1 0x4 PUSH2 0x3ABD JUMP JUMPDEST PUSH2 0x2892 JUMP JUMPDEST PUSH1 0x40 MLOAD PUSH2 0x299 SWAP4 SWAP3 SWAP2 SWAP1 PUSH2 0x3EED JUMP JUMPDEST CALLVALUE DUP1 ISZERO PUSH2 0x873 JUMPI PUSH0 DUP1 REVERT JUMPDEST POP PUSH2 0x319 PUSH2 0x882 CALLDATASIZE PUSH1 0x4 PUSH2 0x3F24 JUMP JUMPDEST PUSH2 0x296B JUMP JUMPDEST CALLVALUE DUP1 ISZERO PUSH2 0x892 JUMPI PUSH0 DUP1 REVERT JUMPDEST POP PUSH2 0x2B6 PUSH2 0x8A1 CALLDATASIZE PUSH1 0x4 PUSH2 0x3ABD JUMP JUMPDEST PUSH2 0x2983 JUMP JUMPDEST CALLVALUE DUP1 ISZERO PUSH2 0x8B1 JUMPI PUSH0 DUP1 REVERT JUMPDEST POP PUSH2 0x319 PUSH2 0x8C0 CALLDATASIZE PUSH1 0x4 PUSH2 0x3B50 JUMP JUMPDEST PUSH2 0x2A8E JUMP JUMPDEST CALLVALUE DUP1 ISZERO PUSH2 0x8D0 JUMPI PUSH0 DUP1 REVERT JUMPDEST POP PUSH2 0x319 PUSH2 0x8DF CALLDATASIZE PUSH1 0x4 PUSH2 0x3B50 JUMP JUMPDEST PUSH2 0x2AB2 JUMP JUMPDEST CALLVALUE DUP1 ISZERO PUSH2 0x8EF JUMPI PUSH0 DUP1 REVERT JUMPDEST POP PUSH2 0x28D PUSH2 0x8FE CALLDATASIZE PUSH1 0x4 PUSH2 0x3F9B JUMP JUMPDEST PUSH2 0x2F1F JUMP JUMPDEST CALLVALUE DUP1 ISZERO PUSH2 0x90E JUMPI PUSH0 DUP1 REVERT JUMPDEST POP PUSH2 0x32B PUSH0 DUP1 MLOAD PUSH1 0x20 PUSH2 0x4399 DUP4 CODECOPY DUP2 MLOAD SWAP2 MSTORE DUP2 JUMP JUMPDEST CALLVALUE DUP1 ISZERO PUSH2 0x92E JUMPI PUSH0 DUP1 REVERT JUMPDEST POP PUSH2 0x439 PUSH2 0x93D CALLDATASIZE PUSH1 0x4 PUSH2 0x3ABD JUMP JUMPDEST PUSH1 0x8 PUSH1 0x20 MSTORE PUSH0 SWAP1 DUP2 MSTORE PUSH1 0x40 SWAP1 KECCAK256 DUP1 SLOAD PUSH1 0x1 DUP3 ADD SLOAD PUSH1 0x2 DUP4 ADD SLOAD PUSH1 0x3 DUP5 ADD SLOAD PUSH1 0x4 SWAP1 SWAP5 ADD SLOAD SWAP3 SWAP4 PUSH1 0xFF DUP1 DUP5 AND SWAP5 PUSH1 0x1 PUSH1 0x1 PUSH1 0xA0 SHL SUB PUSH2 0x100 SWAP1 SWAP6 DIV DUP6 AND SWAP5 DUP5 AND SWAP4 PUSH1 0x1 PUSH1 0xA0 SHL DUP2 DIV DUP4 AND SWAP4 PUSH1 0x1 PUSH1 0xA8 SHL SWAP1 SWAP2 DIV DUP4 AND SWAP3 SWAP1 SWAP2 AND DUP9 JUMP JUMPDEST PUSH0 PUSH2 0x9A2 DUP3 PUSH2 0x2F4C JUMP JUMPDEST SWAP3 SWAP2 POP POP JUMP JUMPDEST PUSH1 0x60 PUSH0 DUP1 SLOAD PUSH2 0x9B6 SWAP1 PUSH2 0x3FC3 JUMP JUMPDEST DUP1 PUSH1 0x1F ADD PUSH1 0x20 DUP1 SWAP2 DIV MUL PUSH1 0x20 ADD PUSH1 0x40 MLOAD SWAP1 DUP2 ADD PUSH1 0x40 MSTORE DUP1 SWAP3 SWAP2 SWAP1 DUP2 DUP2 MSTORE PUSH1 0x20 ADD DUP3 DUP1 SLOAD PUSH2 0x9E2 SWAP1 PUSH2 0x3FC3 JUMP JUMPDEST DUP1 ISZERO PUSH2 0xA2D JUMPI DUP1 PUSH1 0x1F LT PUSH2 0xA04 JUMPI PUSH2 0x100 DUP1 DUP4 SLOAD DIV MUL DUP4 MSTORE SWAP2 PUSH1 0x20 ADD SWAP2 PUSH2 0xA2D JUMP JUMPDEST DUP3 ADD SWAP2 SWAP1 PUSH0 MSTORE PUSH1 0x20 PUSH0 KECCAK256 SWAP1 JUMPDEST DUP2 SLOAD DUP2 MSTORE SWAP1 PUSH1 0x1 ADD SWAP1 PUSH1 0x20 ADD DUP1 DUP4 GT PUSH2 0xA10 JUMPI DUP3 SWAP1 SUB PUSH1 0x1F AND DUP3 ADD SWAP2 JUMPDEST POP POP POP POP POP SWAP1 POP SWAP1 JUMP JUMPDEST PUSH0 PUSH2 0xA41 DUP3 PUSH2 0x2F70 JUMP JUMPDEST POP PUSH0 DUP3 DUP2 MSTORE PUSH1 0x4 PUSH1 0x20 MSTORE PUSH1 0x40 SWAP1 KECCAK256 SLOAD PUSH1 0x1 PUSH1 0x1 PUSH1 0xA0 SHL SUB AND PUSH2 0x9A2 JUMP JUMPDEST PUSH2 0xA69 DUP3 DUP3 CALLER PUSH2 0x2FA8 JUMP JUMPDEST POP POP JUMP JUMPDEST PUSH0 DUP1 MLOAD PUSH1 0x20 PUSH2 0x4399 DUP4 CODECOPY DUP2 MLOAD SWAP2 MSTORE PUSH2 0xA84 DUP2 PUSH2 0x2FB5 JUMP JUMPDEST PUSH0 DUP3 DUP2 MSTORE PUSH1 0x8 PUSH1 0x20 MSTORE PUSH1 0x40 SWAP1 KECCAK256 PUSH1 0x4 DUP2 ADD SLOAD PUSH1 0xFF AND PUSH2 0xAEA JUMPI PUSH1 0x40 MLOAD PUSH3 0x461BCD PUSH1 0xE5 SHL DUP2 MSTORE PUSH1 0x20 PUSH1 0x4 DUP3 ADD MSTORE PUSH1 0x18 PUSH1 0x24 DUP3 ADD MSTORE PUSH32 0x4C616E6452656769737472793A206E6F742066726F7A656E0000000000000000 PUSH1 0x44 DUP3 ADD MSTORE PUSH1 0x64 ADD JUMPDEST PUSH1 0x40 MLOAD DUP1 SWAP2 SUB SWAP1 REVERT JUMPDEST PUSH1 0x4 DUP2 ADD DUP1 SLOAD PUSH1 0xFF NOT SWAP1 DUP2 AND SWAP1 SWAP2 SSTORE PUSH1 0x1 DUP1 DUP4 ADD DUP1 SLOAD SWAP1 SWAP3 AND OR SWAP1 SSTORE PUSH0 DUP4 DUP2 MSTORE PUSH1 0xA PUSH1 0x20 MSTORE PUSH1 0x40 DUP2 KECCAK256 SWAP1 PUSH2 0xB1E DUP3 DUP3 PUSH2 0x3947 JUMP JUMPDEST PUSH2 0xB2B PUSH1 0x1 DUP4 ADD PUSH0 PUSH2 0x3947 JUMP JUMPDEST POP POP PUSH1 0x2 DUP2 ADD DUP1 SLOAD PUSH1 0x1 PUSH1 0x1 PUSH1 0xB0 SHL SUB NOT AND SWAP1 SSTORE PUSH1 0x3 DUP2 ADD SLOAD ISZERO PUSH2 0xC1B JUMPI PUSH1 0x2 DUP2 ADD SLOAD PUSH1 0x3 DUP3 ADD DUP1 SLOAD PUSH0 SWAP1 SWAP2 SSTORE PUSH1 0x1 PUSH1 0x1 PUSH1 0xA0 SHL SUB SWAP1 SWAP2 AND SWAP1 DUP2 ISZERO DUP1 ISZERO SWAP1 PUSH2 0xB72 JUMPI POP PUSH0 DUP2 GT JUMPDEST ISZERO PUSH2 0xC18 JUMPI PUSH0 DUP3 PUSH1 0x1 PUSH1 0x1 PUSH1 0xA0 SHL SUB AND DUP3 PUSH1 0x40 MLOAD PUSH0 PUSH1 0x40 MLOAD DUP1 DUP4 SUB DUP2 DUP6 DUP8 GAS CALL SWAP3 POP POP POP RETURNDATASIZE DUP1 PUSH0 DUP2 EQ PUSH2 0xBC0 JUMPI PUSH1 0x40 MLOAD SWAP2 POP PUSH1 0x1F NOT PUSH1 0x3F RETURNDATASIZE ADD AND DUP3 ADD PUSH1 0x40 MSTORE RETURNDATASIZE DUP3 MSTORE RETURNDATASIZE PUSH0 PUSH1 0x20 DUP5 ADD RETURNDATACOPY PUSH2 0xBC5 JUMP JUMPDEST PUSH1 0x60 SWAP2 POP JUMPDEST POP POP SWAP1 POP DUP1 PUSH2 0xC16 JUMPI PUSH1 0x40 MLOAD PUSH3 0x461BCD PUSH1 0xE5 SHL DUP2 MSTORE PUSH1 0x20 PUSH1 0x4 DUP3 ADD MSTORE PUSH1 0x1B PUSH1 0x24 DUP3 ADD MSTORE PUSH32 0x4C616E6452656769737472793A20726566756E64206661696C65640000000000 PUSH1 0x44 DUP3 ADD MSTORE PUSH1 0x64 ADD PUSH2 0xAE1 JUMP JUMPDEST POP JUMPDEST POP POP JUMPDEST PUSH1 0x40 MLOAD DUP4 SWAP1 PUSH32 0xE37218C5BB556869012C1DACB90E60B24DE6D40A9A1341391A847B43260EFF97 SWAP1 PUSH0 SWAP1 LOG2 POP POP POP JUMP JUMPDEST PUSH1 0x1 PUSH1 0x1 PUSH1 0xA0 SHL SUB DUP3 AND PUSH2 0xC73 JUMPI PUSH1 0x40 MLOAD PUSH4 0x32505749 PUSH1 0xE1 SHL DUP2 MSTORE PUSH0 PUSH1 0x4 DUP3 ADD MSTORE PUSH1 0x24 ADD PUSH2 0xAE1 JUMP JUMPDEST PUSH0 PUSH2 0xC7F DUP4 DUP4 CALLER PUSH2 0x2FC2 JUMP JUMPDEST SWAP1 POP DUP4 PUSH1 0x1 PUSH1 0x1 PUSH1 0xA0 SHL SUB AND DUP2 PUSH1 0x1 PUSH1 0x1 PUSH1 0xA0 SHL SUB AND EQ PUSH2 0xCCD JUMPI PUSH1 0x40 MLOAD PUSH4 0x64283D7B PUSH1 0xE0 SHL DUP2 MSTORE PUSH1 0x1 PUSH1 0x1 PUSH1 0xA0 SHL SUB DUP1 DUP7 AND PUSH1 0x4 DUP4 ADD MSTORE PUSH1 0x24 DUP3 ADD DUP5 SWAP1 MSTORE DUP3 AND PUSH1 0x44 DUP3 ADD MSTORE PUSH1 0x64 ADD PUSH2 0xAE1 JUMP JUMPDEST POP POP POP POP JUMP JUMPDEST PUSH0 DUP3 DUP2 MSTORE PUSH1 0x7 PUSH1 0x20 MSTORE PUSH1 0x40 SWAP1 KECCAK256 PUSH1 0x1 ADD SLOAD PUSH2 0xCED DUP2 PUSH2 0x2FB5 JUMP JUMPDEST PUSH2 0xCCD DUP4 DUP4 PUSH2 0x30B4 JUMP JUMPDEST PUSH1 0x1 PUSH1 0x1 PUSH1 0xA0 SHL SUB DUP2 AND CALLER EQ PUSH2 0xD20 JUMPI PUSH1 0x40 MLOAD PUSH4 0x334BD919 PUSH1 0xE1 SHL DUP2 MSTORE PUSH1 0x4 ADD PUSH1 0x40 MLOAD DUP1 SWAP2 SUB SWAP1 REVERT JUMPDEST PUSH2 0xD2A DUP3 DUP3 PUSH2 0x3145 JUMP JUMPDEST POP POP POP JUMP JUMPDEST PUSH0 DUP2 DUP2 MSTORE PUSH1 0x8 PUSH1 0x20 MSTORE PUSH1 0x40 SWAP1 KECCAK256 PUSH1 0x4 ADD SLOAD DUP2 SWAP1 PUSH1 0xFF AND ISZERO PUSH2 0xD62 JUMPI PUSH1 0x40 MLOAD PUSH3 0x461BCD PUSH1 0xE5 SHL DUP2 MSTORE PUSH1 0x4 ADD PUSH2 0xAE1 SWAP1 PUSH2 0x3FFB JUMP JUMPDEST PUSH0 DUP3 DUP2 MSTORE PUSH1 0x8 PUSH1 0x20 MSTORE PUSH1 0x40 SWAP1 KECCAK256 PUSH1 0x2 PUSH1 0x1 DUP3 ADD SLOAD PUSH1 0xFF AND PUSH1 0x6 DUP2 GT ISZERO PUSH2 0xD8A JUMPI PUSH2 0xD8A PUSH2 0x3B7A JUMP JUMPDEST EQ PUSH2 0xDD7 JUMPI PUSH1 0x40 MLOAD PUSH3 0x461BCD PUSH1 0xE5 SHL DUP2 MSTORE PUSH1 0x20 PUSH1 0x4 DUP3 ADD MSTORE PUSH1 0x1F PUSH1 0x24 DUP3 ADD MSTORE PUSH32 0x4C616E6452656769737472793A206E6F742054727573745265636F7264656400 PUSH1 0x44 DUP3 ADD MSTORE PUSH1 0x64 ADD PUSH2 0xAE1 JUMP JUMPDEST PUSH1 0x2 DUP2 ADD SLOAD PUSH1 0x1 PUSH1 0x1 PUSH1 0xA0 SHL SUB AND CALLER EQ DUP1 PUSH2 0xDF4 JUMPI POP PUSH1 0x10 SLOAD PUSH1 0xFF AND JUMPDEST PUSH2 0xE4B JUMPI PUSH1 0x40 MLOAD PUSH3 0x461BCD PUSH1 0xE5 SHL DUP2 MSTORE PUSH1 0x20 PUSH1 0x4 DUP3 ADD MSTORE PUSH1 0x22 PUSH1 0x24 DUP3 ADD MSTORE PUSH32 0x4C616E6452656769737472793A206E6F742064657369676E6174656420627579 PUSH1 0x44 DUP3 ADD MSTORE PUSH2 0x32B9 PUSH1 0xF1 SHL PUSH1 0x64 DUP3 ADD MSTORE PUSH1 0x84 ADD PUSH2 0xAE1 JUMP JUMPDEST DUP1 SLOAD CALLVALUE EQ PUSH2 0xE9B JUMPI PUSH1 0x40 MLOAD PUSH3 0x461BCD PUSH1 0xE5 SHL DUP2 MSTORE PUSH1 0x20 PUSH1 0x4 DUP3 ADD MSTORE PUSH1 0x1E PUSH1 0x24 DUP3 ADD MSTORE PUSH32 0x4C616E6452656769737472793A2073656E642065786163742070726963650000 PUSH1 0x44 DUP3 ADD MSTORE PUSH1 0x64 ADD PUSH2 0xAE1 JUMP JUMPDEST CALLVALUE PUSH1 0x3 DUP3 DUP2 ADD DUP3 SWAP1 SSTORE PUSH1 0x1 DUP4 ADD DUP1 SLOAD PUSH1 0xFF NOT AND SWAP1 SWAP2 OR SWAP1 SSTORE PUSH1 0x40 MLOAD SWAP1 DUP2 MSTORE CALLER SWAP1 DUP5 SWAP1 PUSH32 0x91CA0F1322E686F805F4EDC01FF8BFFB2DBE2D17568B31531060C1D723AAD8F SWAP1 PUSH1 0x20 ADD JUMPDEST PUSH1 0x40 MLOAD DUP1 SWAP2 SUB SWAP1 LOG3 POP POP POP JUMP JUMPDEST PUSH1 0x9 PUSH1 0x20 MSTORE PUSH0 SWAP1 DUP2 MSTORE PUSH1 0x40 SWAP1 KECCAK256 DUP1 SLOAD PUSH1 0x1 DUP3 ADD DUP1 SLOAD PUSH1 0x1 PUSH1 0x1 PUSH1 0xA0 SHL SUB SWAP1 SWAP3 AND SWAP3 SWAP2 PUSH2 0xF1B SWAP1 PUSH2 0x3FC3 JUMP JUMPDEST DUP1 PUSH1 0x1F ADD PUSH1 0x20 DUP1 SWAP2 DIV MUL PUSH1 0x20 ADD PUSH1 0x40 MLOAD SWAP1 DUP2 ADD PUSH1 0x40 MSTORE DUP1 SWAP3 SWAP2 SWAP1 DUP2 DUP2 MSTORE PUSH1 0x20 ADD DUP3 DUP1 SLOAD PUSH2 0xF47 SWAP1 PUSH2 0x3FC3 JUMP JUMPDEST DUP1 ISZERO PUSH2 0xF92 JUMPI DUP1 PUSH1 0x1F LT PUSH2 0xF69 JUMPI PUSH2 0x100 DUP1 DUP4 SLOAD DIV MUL DUP4 MSTORE SWAP2 PUSH1 0x20 ADD SWAP2 PUSH2 0xF92 JUMP JUMPDEST DUP3 ADD SWAP2 SWAP1 PUSH0 MSTORE PUSH1 0x20 PUSH0 KECCAK256 SWAP1 JUMPDEST DUP2 SLOAD DUP2 MSTORE SWAP1 PUSH1 0x1 ADD SWAP1 PUSH1 0x20 ADD DUP1 DUP4 GT PUSH2 0xF75 JUMPI DUP3 SWAP1 SUB PUSH1 0x1F AND DUP3 ADD SWAP2 JUMPDEST POP POP POP POP PUSH1 0x2 DUP4 ADD SLOAD PUSH1 0x3 SWAP1 SWAP4 ADD SLOAD SWAP2 SWAP3 SWAP2 PUSH1 0xFF AND SWAP1 POP DUP5 JUMP JUMPDEST PUSH2 0xD2A DUP4 DUP4 DUP4 PUSH1 0x40 MLOAD DUP1 PUSH1 0x20 ADD PUSH1 0x40 MSTORE DUP1 PUSH0 DUP2 MSTORE POP PUSH2 0x296B JUMP JUMPDEST PUSH0 DUP4 DUP2 MSTORE PUSH1 0x8 PUSH1 0x20 MSTORE PUSH1 0x40 SWAP1 KECCAK256 PUSH1 0x4 ADD SLOAD DUP4 SWAP1 PUSH1 0xFF AND ISZERO PUSH2 0xFF9 JUMPI PUSH1 0x40 MLOAD PUSH3 0x461BCD PUSH1 0xE5 SHL DUP2 MSTORE PUSH1 0x4 ADD PUSH2 0xAE1 SWAP1 PUSH2 0x3FFB JUMP JUMPDEST PUSH0 DUP5 DUP2 MSTORE PUSH1 0x8 PUSH1 0x20 MSTORE PUSH1 0x40 SWAP1 KECCAK256 PUSH1 0x1 DUP1 DUP3 ADD SLOAD PUSH1 0xFF AND PUSH1 0x6 DUP2 GT ISZERO PUSH2 0x1020 JUMPI PUSH2 0x1020 PUSH2 0x3B7A JUMP JUMPDEST EQ PUSH2 0x1077 JUMPI PUSH1 0x40 MLOAD PUSH3 0x461BCD PUSH1 0xE5 SHL DUP2 MSTORE PUSH1 0x20 PUSH1 0x4 DUP3 ADD MSTORE PUSH1 0x21 PUSH1 0x24 DUP3 ADD MSTORE PUSH32 0x4C616E6452656769737472793A2070726F7065727479206E6F74206163746976 PUSH1 0x44 DUP3 ADD MSTORE PUSH1 0x65 PUSH1 0xF8 SHL PUSH1 0x64 DUP3 ADD MSTORE PUSH1 0x84 ADD PUSH2 0xAE1 JUMP JUMPDEST PUSH1 0x1 DUP2 ADD SLOAD PUSH2 0x100 SWAP1 DIV PUSH1 0x1 PUSH1 0x1 PUSH1 0xA0 SHL SUB AND CALLER EQ DUP1 PUSH2 0x1099 JUMPI POP PUSH1 0x10 SLOAD PUSH1 0xFF AND JUMPDEST PUSH2 0x10F1 JUMPI PUSH1 0x40 MLOAD PUSH3 0x461BCD PUSH1 0xE5 SHL DUP2 MSTORE PUSH1 0x20 PUSH1 0x4 DUP3 ADD MSTORE PUSH1 0x23 PUSH1 0x24 DUP3 ADD MSTORE PUSH32 0x4C616E6452656769737472793A206F6E6C792073656C6C65722063616E206C65 PUSH1 0x44 DUP3 ADD MSTORE PUSH3 0x617365 PUSH1 0xE8 SHL PUSH1 0x64 DUP3 ADD MSTORE PUSH1 0x84 ADD PUSH2 0xAE1 JUMP JUMPDEST PUSH1 0x1 PUSH1 0x1 PUSH1 0xA0 SHL SUB DUP5 AND PUSH2 0x1147 JUMPI PUSH1 0x40 MLOAD PUSH3 0x461BCD PUSH1 0xE5 SHL DUP2 MSTORE PUSH1 0x20 PUSH1 0x4 DUP3 ADD MSTORE PUSH1 0x1C PUSH1 0x24 DUP3 ADD MSTORE PUSH32 0x4C616E6452656769737472793A20696E76616C69642074656E616E7400000000 PUSH1 0x44 DUP3 ADD MSTORE PUSH1 0x64 ADD PUSH2 0xAE1 JUMP JUMPDEST PUSH0 CALLVALUE GT PUSH2 0x1196 JUMPI PUSH1 0x40 MLOAD PUSH3 0x461BCD PUSH1 0xE5 SHL DUP2 MSTORE PUSH1 0x20 PUSH1 0x4 DUP3 ADD MSTORE PUSH1 0x1E PUSH1 0x24 DUP3 ADD MSTORE PUSH32 0x4C616E6452656769737472793A2072656E74206D757374206265203E20300000 PUSH1 0x44 DUP3 ADD MSTORE PUSH1 0x64 ADD PUSH2 0xAE1 JUMP JUMPDEST PUSH0 PUSH2 0x11A4 DUP5 PUSH3 0x15180 PUSH2 0x4044 JUMP JUMPDEST PUSH2 0x11AE SWAP1 TIMESTAMP PUSH2 0x405B JUMP JUMPDEST SWAP1 POP PUSH1 0x40 MLOAD DUP1 PUSH1 0x80 ADD PUSH1 0x40 MSTORE DUP1 DUP7 PUSH1 0x1 PUSH1 0x1 PUSH1 0xA0 SHL SUB AND DUP2 MSTORE PUSH1 0x20 ADD DUP3 DUP2 MSTORE PUSH1 0x20 ADD CALLVALUE DUP2 MSTORE PUSH1 0x20 ADD PUSH0 ISZERO ISZERO DUP2 MSTORE POP PUSH1 0xB PUSH0 DUP9 DUP2 MSTORE PUSH1 0x20 ADD SWAP1 DUP2 MSTORE PUSH1 0x20 ADD PUSH0 KECCAK256 PUSH0 DUP3 ADD MLOAD DUP2 PUSH0 ADD PUSH0 PUSH2 0x100 EXP DUP2 SLOAD DUP2 PUSH1 0x1 PUSH1 0x1 PUSH1 0xA0 SHL SUB MUL NOT AND SWAP1 DUP4 PUSH1 0x1 PUSH1 0x1 PUSH1 0xA0 SHL SUB AND MUL OR SWAP1 SSTORE POP PUSH1 0x20 DUP3 ADD MLOAD DUP2 PUSH1 0x1 ADD SSTORE PUSH1 0x40 DUP3 ADD MLOAD DUP2 PUSH1 0x2 ADD SSTORE PUSH1 0x60 DUP3 ADD MLOAD DUP2 PUSH1 0x3 ADD PUSH0 PUSH2 0x100 EXP DUP2 SLOAD DUP2 PUSH1 0xFF MUL NOT AND SWAP1 DUP4 ISZERO ISZERO MUL OR SWAP1 SSTORE POP SWAP1 POP POP DUP5 PUSH1 0x1 PUSH1 0x1 PUSH1 0xA0 SHL SUB AND DUP7 PUSH32 0x8FFCE86C5137688EE547050B94FB05FA5B34C79180EE38EBE8F32F9806155518 CALLVALUE DUP8 PUSH1 0x40 MLOAD PUSH2 0x1292 SWAP3 SWAP2 SWAP1 SWAP2 DUP3 MSTORE PUSH1 0x20 DUP3 ADD MSTORE PUSH1 0x40 ADD SWAP1 JUMP JUMPDEST PUSH1 0x40 MLOAD DUP1 SWAP2 SUB SWAP1 LOG3 POP POP POP POP POP POP JUMP JUMPDEST PUSH0 DUP2 GT PUSH2 0x12F1 JUMPI PUSH1 0x40 MLOAD PUSH3 0x461BCD PUSH1 0xE5 SHL DUP2 MSTORE PUSH1 0x20 PUSH1 0x4 DUP3 ADD MSTORE PUSH1 0x1F PUSH1 0x24 DUP3 ADD MSTORE PUSH32 0x4C616E6452656769737472793A207072696365206D757374206265203E203000 PUSH1 0x44 DUP3 ADD MSTORE PUSH1 0x64 ADD PUSH2 0xAE1 JUMP JUMPDEST PUSH0 DUP3 MLOAD GT PUSH2 0x134B JUMPI PUSH1 0x40 MLOAD PUSH3 0x461BCD PUSH1 0xE5 SHL DUP2 MSTORE PUSH1 0x20 PUSH1 0x4 DUP3 ADD MSTORE PUSH1 0x21 PUSH1 0x24 DUP3 ADD MSTORE PUSH32 0x4C616E6452656769737472793A205552492063616E6E6F7420626520656D7074 PUSH1 0x44 DUP3 ADD MSTORE PUSH1 0x79 PUSH1 0xF8 SHL PUSH1 0x64 DUP3 ADD MSTORE PUSH1 0x84 ADD PUSH2 0xAE1 JUMP JUMPDEST PUSH1 0xF DUP1 SLOAD PUSH0 SWAP2 DUP3 PUSH2 0x135B DUP4 PUSH2 0x406E JUMP JUMPDEST SWAP1 SWAP2 SSTORE POP PUSH1 0x40 DUP1 MLOAD PUSH1 0x80 DUP2 ADD DUP3 MSTORE CALLER DUP2 MSTORE PUSH1 0x20 DUP1 DUP3 ADD DUP8 DUP2 MSTORE DUP3 DUP5 ADD DUP8 SWAP1 MSTORE PUSH1 0x1 PUSH1 0x60 DUP5 ADD DUP2 SWAP1 MSTORE PUSH0 DUP7 DUP2 MSTORE PUSH1 0x9 SWAP1 SWAP4 MSTORE SWAP4 SWAP1 SWAP2 KECCAK256 DUP3 MLOAD DUP2 SLOAD PUSH1 0x1 PUSH1 0x1 PUSH1 0xA0 SHL SUB NOT AND PUSH1 0x1 PUSH1 0x1 PUSH1 0xA0 SHL SUB SWAP1 SWAP2 AND OR DUP2 SSTORE SWAP1 MLOAD SWAP4 SWAP5 POP SWAP1 SWAP3 SWAP1 SWAP2 DUP3 ADD SWAP1 PUSH2 0x13C2 SWAP1 DUP3 PUSH2 0x40CB JUMP JUMPDEST POP PUSH1 0x40 DUP3 DUP2 ADD MLOAD PUSH1 0x2 DUP4 ADD SSTORE PUSH1 0x60 SWAP1 SWAP3 ADD MLOAD PUSH1 0x3 SWAP1 SWAP2 ADD DUP1 SLOAD PUSH1 0xFF NOT AND SWAP2 ISZERO ISZERO SWAP2 SWAP1 SWAP2 OR SWAP1 SSTORE MLOAD CALLER SWAP1 DUP3 SWAP1 PUSH32 0x8E2FBAB19F509B3AC0B32E155B0CFAA5C93BBB20AE467D5394F0610793EBAABA SWAP1 PUSH2 0xEE3 SWAP1 DUP7 SWAP1 DUP9 SWAP1 PUSH2 0x4187 JUMP JUMPDEST PUSH0 DUP2 DUP2 MSTORE PUSH1 0x8 PUSH1 0x20 MSTORE PUSH1 0x40 SWAP1 KECCAK256 PUSH1 0x4 ADD SLOAD DUP2 SWAP1 PUSH1 0xFF AND ISZERO PUSH2 0x144F JUMPI PUSH1 0x40 MLOAD PUSH3 0x461BCD PUSH1 0xE5 SHL DUP2 MSTORE PUSH1 0x4 ADD PUSH2 0xAE1 SWAP1 PUSH2 0x3FFB JUMP JUMPDEST PUSH0 DUP3 DUP2 MSTORE PUSH1 0x8 PUSH1 0x20 MSTORE PUSH1 0x40 SWAP1 KECCAK256 PUSH1 0x3 PUSH1 0x1 DUP3 ADD SLOAD PUSH1 0xFF AND PUSH1 0x6 DUP2 GT ISZERO PUSH2 0x1477 JUMPI PUSH2 0x1477 PUSH2 0x3B7A JUMP JUMPDEST EQ PUSH2 0x14C4 JUMPI PUSH1 0x40 MLOAD PUSH3 0x461BCD PUSH1 0xE5 SHL DUP2 MSTORE PUSH1 0x20 PUSH1 0x4 DUP3 ADD MSTORE PUSH1 0x1D PUSH1 0x24 DUP3 ADD MSTORE PUSH32 0x4C616E6452656769737472793A206E6F742046756E64734C6F636B6564000000 PUSH1 0x44 DUP3 ADD MSTORE PUSH1 0x64 ADD PUSH2 0xAE1 JUMP JUMPDEST PUSH1 0x1 DUP2 ADD SLOAD PUSH2 0x100 SWAP1 DIV PUSH1 0x1 PUSH1 0x1 PUSH1 0xA0 SHL SUB AND CALLER EQ DUP1 PUSH2 0x14E6 JUMPI POP PUSH1 0x10 SLOAD PUSH1 0xFF AND JUMPDEST PUSH2 0x1502 JUMPI PUSH1 0x40 MLOAD PUSH3 0x461BCD PUSH1 0xE5 SHL DUP2 MSTORE PUSH1 0x4 ADD PUSH2 0xAE1 SWAP1 PUSH2 0x419F JUMP JUMPDEST PUSH1 0x2 DUP2 ADD DUP1 SLOAD PUSH1 0x1 PUSH1 0xA8 SHL PUSH1 0xFF PUSH1 0xA8 SHL NOT SWAP1 SWAP2 AND OR SWAP1 SSTORE PUSH1 0x1 DUP2 ADD DUP1 SLOAD PUSH1 0xFF NOT AND PUSH1 0x4 OR SWAP1 SSTORE PUSH1 0x40 MLOAD CALLER SWAP1 DUP5 SWAP1 PUSH32 0x3912F5E66F51DAA2463DE82E3CB302D1BAE85D4BB3A336CD314F36977120BB0F SWAP1 PUSH0 SWAP1 LOG3 POP POP POP JUMP JUMPDEST PUSH1 0xA PUSH1 0x20 MSTORE PUSH0 SWAP1 DUP2 MSTORE PUSH1 0x40 SWAP1 KECCAK256 DUP1 SLOAD DUP2 SWAP1 PUSH2 0x1573 SWAP1 PUSH2 0x3FC3 JUMP JUMPDEST DUP1 PUSH1 0x1F ADD PUSH1 0x20 DUP1 SWAP2 DIV MUL PUSH1 0x20 ADD PUSH1 0x40 MLOAD SWAP1 DUP2 ADD PUSH1 0x40 MSTORE DUP1 SWAP3 SWAP2 SWAP1 DUP2 DUP2 MSTORE PUSH1 0x20 ADD DUP3 DUP1 SLOAD PUSH2 0x159F SWAP1 PUSH2 0x3FC3 JUMP JUMPDEST DUP1 ISZERO PUSH2 0x15EA JUMPI DUP1 PUSH1 0x1F LT PUSH2 0x15C1 JUMPI PUSH2 0x100 DUP1 DUP4 SLOAD DIV MUL DUP4 MSTORE SWAP2 PUSH1 0x20 ADD SWAP2 PUSH2 0x15EA JUMP JUMPDEST DUP3 ADD SWAP2 SWAP1 PUSH0 MSTORE PUSH1 0x20 PUSH0 KECCAK256 SWAP1 JUMPDEST DUP2 SLOAD DUP2 MSTORE SWAP1 PUSH1 0x1 ADD SWAP1 PUSH1 0x20 ADD DUP1 DUP4 GT PUSH2 0x15CD JUMPI DUP3 SWAP1 SUB PUSH1 0x1F AND DUP3 ADD SWAP2 JUMPDEST POP POP POP POP POP SWAP1 DUP1 PUSH1 0x1 ADD DUP1 SLOAD PUSH2 0x15FF SWAP1 PUSH2 0x3FC3 JUMP JUMPDEST DUP1 PUSH1 0x1F ADD PUSH1 0x20 DUP1 SWAP2 DIV MUL PUSH1 0x20 ADD PUSH1 0x40 MLOAD SWAP1 DUP2 ADD PUSH1 0x40 MSTORE DUP1 SWAP3 SWAP2 SWAP1 DUP2 DUP2 MSTORE PUSH1 0x20 ADD DUP3 DUP1 SLOAD PUSH2 0x162B SWAP1 PUSH2 0x3FC3 JUMP JUMPDEST DUP1 ISZERO PUSH2 0x1676 JUMPI DUP1 PUSH1 0x1F LT PUSH2 0x164D JUMPI PUSH2 0x100 DUP1 DUP4 SLOAD DIV MUL DUP4 MSTORE SWAP2 PUSH1 0x20 ADD SWAP2 PUSH2 0x1676 JUMP JUMPDEST DUP3 ADD SWAP2 SWAP1 PUSH0 MSTORE PUSH1 0x20 PUSH0 KECCAK256 SWAP1 JUMPDEST DUP2 SLOAD DUP2 MSTORE SWAP1 PUSH1 0x1 ADD SWAP1 PUSH1 0x20 ADD DUP1 DUP4 GT PUSH2 0x1659 JUMPI DUP3 SWAP1 SUB PUSH1 0x1F AND DUP3 ADD SWAP2 JUMPDEST POP POP POP POP POP SWAP1 POP DUP3 JUMP JUMPDEST PUSH0 DUP1 MLOAD PUSH1 0x20 PUSH2 0x4399 DUP4 CODECOPY DUP2 MLOAD SWAP2 MSTORE PUSH2 0x1697 DUP2 PUSH2 0x2FB5 JUMP JUMPDEST PUSH0 DUP7 DUP2 MSTORE PUSH1 0x8 PUSH1 0x20 MSTORE PUSH1 0x40 SWAP1 KECCAK256 PUSH1 0x5 PUSH1 0x1 DUP3 ADD SLOAD PUSH1 0xFF AND PUSH1 0x6 DUP2 GT ISZERO PUSH2 0x16BF JUMPI PUSH2 0x16BF PUSH2 0x3B7A JUMP JUMPDEST SUB PUSH2 0x170C JUMPI PUSH1 0x40 MLOAD PUSH3 0x461BCD PUSH1 0xE5 SHL DUP2 MSTORE PUSH1 0x20 PUSH1 0x4 DUP3 ADD DUP2 SWAP1 MSTORE PUSH1 0x24 DUP3 ADD MSTORE PUSH32 0x4C616E6452656769737472793A2063616E6E6F7420667265657A6520736F6C64 PUSH1 0x44 DUP3 ADD MSTORE PUSH1 0x64 ADD PUSH2 0xAE1 JUMP JUMPDEST PUSH1 0x4 DUP2 ADD SLOAD PUSH1 0xFF AND ISZERO PUSH2 0x1761 JUMPI PUSH1 0x40 MLOAD PUSH3 0x461BCD PUSH1 0xE5 SHL DUP2 MSTORE PUSH1 0x20 PUSH1 0x4 DUP3 ADD MSTORE PUSH1 0x1C PUSH1 0x24 DUP3 ADD MSTORE PUSH32 0x4C616E6452656769737472793A20616C72656164792066726F7A656E00000000 PUSH1 0x44 DUP3 ADD MSTORE PUSH1 0x64 ADD PUSH2 0xAE1 JUMP JUMPDEST PUSH1 0x4 DUP2 ADD DUP1 SLOAD PUSH1 0xFF NOT SWAP1 DUP2 AND PUSH1 0x1 SWAP1 DUP2 OR SWAP1 SWAP3 SSTORE SWAP1 DUP3 ADD DUP1 SLOAD SWAP1 SWAP2 AND PUSH1 0x6 OR SWAP1 SSTORE PUSH1 0x40 DUP1 MLOAD PUSH1 0x20 PUSH1 0x1F DUP9 ADD DUP2 SWAP1 DIV MUL DUP2 ADD PUSH1 0x60 SWAP1 DUP2 ADD DUP4 MSTORE SWAP2 DUP2 ADD DUP8 DUP2 MSTORE SWAP1 SWAP2 DUP3 SWAP2 SWAP1 DUP10 SWAP1 DUP10 SWAP1 DUP2 SWAP1 DUP6 ADD DUP4 DUP3 DUP1 DUP3 DUP5 CALLDATACOPY PUSH0 SWAP3 ADD SWAP2 SWAP1 SWAP2 MSTORE POP POP POP SWAP1 DUP3 MSTORE POP PUSH1 0x40 DUP1 MLOAD PUSH1 0x20 PUSH1 0x1F DUP9 ADD DUP2 SWAP1 DIV DUP2 MUL DUP3 ADD DUP2 ADD SWAP1 SWAP3 MSTORE DUP7 DUP2 MSTORE SWAP2 DUP2 ADD SWAP2 SWAP1 DUP8 SWAP1 DUP8 SWAP1 DUP2 SWAP1 DUP5 ADD DUP4 DUP3 DUP1 DUP3 DUP5 CALLDATACOPY PUSH0 SWAP3 ADD DUP3 SWAP1 MSTORE POP SWAP4 SWAP1 SWAP5 MSTORE POP POP DUP10 DUP2 MSTORE PUSH1 0xA PUSH1 0x20 MSTORE PUSH1 0x40 SWAP1 KECCAK256 DUP3 MLOAD SWAP1 SWAP2 POP DUP2 SWAP1 PUSH2 0x1816 SWAP1 DUP3 PUSH2 0x40CB JUMP JUMPDEST POP PUSH1 0x20 DUP3 ADD MLOAD PUSH1 0x1 DUP3 ADD SWAP1 PUSH2 0x182B SWAP1 DUP3 PUSH2 0x40CB JUMP JUMPDEST POP SWAP1 POP POP DUP7 PUSH32 0x99C64B390FBCD2227222EE160824AF876EE0A284C3C34C6157C9EB681C3A0178 DUP8 DUP8 DUP8 DUP8 PUSH1 0x40 MLOAD PUSH2 0x1865 SWAP5 SWAP4 SWAP3 SWAP2 SWAP1 PUSH2 0x41FE JUMP JUMPDEST PUSH1 0x40 MLOAD DUP1 SWAP2 SUB SWAP1 LOG2 POP POP POP POP POP POP POP JUMP JUMPDEST PUSH0 PUSH2 0x9A2 DUP3 PUSH2 0x2F70 JUMP JUMPDEST PUSH0 DUP1 MLOAD PUSH1 0x20 PUSH2 0x4399 DUP4 CODECOPY DUP2 MLOAD SWAP2 MSTORE PUSH2 0x1897 DUP2 PUSH2 0x2FB5 JUMP JUMPDEST PUSH0 DUP3 DUP2 MSTORE PUSH1 0x8 PUSH1 0x20 MSTORE PUSH1 0x40 SWAP1 KECCAK256 PUSH1 0x4 ADD SLOAD DUP3 SWAP1 PUSH1 0xFF AND ISZERO PUSH2 0x18CA JUMPI PUSH1 0x40 MLOAD PUSH3 0x461BCD PUSH1 0xE5 SHL DUP2 MSTORE PUSH1 0x4 ADD PUSH2 0xAE1 SWAP1 PUSH2 0x3FFB JUMP JUMPDEST PUSH0 DUP4 DUP2 MSTORE PUSH1 0xB PUSH1 0x20 MSTORE PUSH1 0x40 SWAP1 KECCAK256 DUP1 SLOAD PUSH1 0x1 PUSH1 0x1 PUSH1 0xA0 SHL SUB AND PUSH2 0x192E JUMPI PUSH1 0x40 MLOAD PUSH3 0x461BCD PUSH1 0xE5 SHL DUP2 MSTORE PUSH1 0x20 PUSH1 0x4 DUP3 ADD MSTORE PUSH1 0x1C PUSH1 0x24 DUP3 ADD MSTORE PUSH32 0x4C616E6452656769737472793A206E6F206C6561736520666F756E6400000000 PUSH1 0x44 DUP3 ADD MSTORE PUSH1 0x64 ADD PUSH2 0xAE1 JUMP JUMPDEST PUSH1 0x3 DUP2 ADD SLOAD PUSH1 0xFF AND ISZERO PUSH2 0x1983 JUMPI PUSH1 0x40 MLOAD PUSH3 0x461BCD PUSH1 0xE5 SHL DUP2 MSTORE PUSH1 0x20 PUSH1 0x4 DUP3 ADD MSTORE PUSH1 0x1E PUSH1 0x24 DUP3 ADD MSTORE PUSH32 0x4C616E6452656769737472793A20616C726561647920617070726F7665640000 PUSH1 0x44 DUP3 ADD MSTORE PUSH1 0x64 ADD PUSH2 0xAE1 JUMP JUMPDEST PUSH0 DUP5 DUP2 MSTORE PUSH1 0x8 PUSH1 0x20 MSTORE PUSH1 0x40 SWAP1 KECCAK256 PUSH1 0x3 DUP3 ADD DUP1 SLOAD PUSH1 0xFF NOT AND PUSH1 0x1 OR SWAP1 SSTORE DUP2 SLOAD PUSH2 0x19D5 SWAP1 PUSH32 0x183424541D14CD9BD5D5E4D92B46028BE6700D27EC9E3ECC10CBE3E71DEA50A5 SWAP1 PUSH1 0x1 PUSH1 0x1 PUSH1 0xA0 SHL SUB AND PUSH2 0x30B4 JUMP JUMPDEST POP PUSH0 DUP6 DUP2 MSTORE PUSH1 0xC PUSH1 0x20 MSTORE PUSH1 0x40 SWAP1 KECCAK256 PUSH1 0x2 ADD SLOAD PUSH1 0xFF AND ISZERO PUSH2 0x1C05 JUMPI PUSH0 DUP6 DUP2 MSTORE PUSH1 0xC PUSH1 0x20 SWAP1 DUP2 MSTORE PUSH1 0x40 DUP1 DUP4 KECCAK256 DUP2 MLOAD DUP2 SLOAD PUSH1 0x80 SWAP5 DUP2 MUL DUP3 ADD DUP6 ADD SWAP1 SWAP4 MSTORE PUSH1 0x60 DUP2 ADD DUP4 DUP2 MSTORE SWAP1 SWAP4 SWAP2 SWAP3 DUP5 SWAP3 DUP5 SWAP2 SWAP1 DUP5 ADD DUP3 DUP3 DUP1 ISZERO PUSH2 0x1A56 JUMPI PUSH1 0x20 MUL DUP3 ADD SWAP2 SWAP1 PUSH0 MSTORE PUSH1 0x20 PUSH0 KECCAK256 SWAP1 JUMPDEST DUP2 SLOAD PUSH1 0x1 PUSH1 0x1 PUSH1 0xA0 SHL SUB AND DUP2 MSTORE PUSH1 0x1 SWAP1 SWAP2 ADD SWAP1 PUSH1 0x20 ADD DUP1 DUP4 GT PUSH2 0x1A38 JUMPI JUMPDEST POP POP POP POP POP DUP2 MSTORE PUSH1 0x20 ADD PUSH1 0x1 DUP3 ADD DUP1 SLOAD DUP1 PUSH1 0x20 MUL PUSH1 0x20 ADD PUSH1 0x40 MLOAD SWAP1 DUP2 ADD PUSH1 0x40 MSTORE DUP1 SWAP3 SWAP2 SWAP1 DUP2 DUP2 MSTORE PUSH1 0x20 ADD DUP3 DUP1 SLOAD DUP1 ISZERO PUSH2 0x1AAC JUMPI PUSH1 0x20 MUL DUP3 ADD SWAP2 SWAP1 PUSH0 MSTORE PUSH1 0x20 PUSH0 KECCAK256 SWAP1 JUMPDEST DUP2 SLOAD DUP2 MSTORE PUSH1 0x20 ADD SWAP1 PUSH1 0x1 ADD SWAP1 DUP1 DUP4 GT PUSH2 0x1A98 JUMPI JUMPDEST POP POP POP SWAP2 DUP4 MSTORE POP POP PUSH1 0x2 SWAP2 SWAP1 SWAP2 ADD SLOAD PUSH1 0xFF AND ISZERO ISZERO PUSH1 0x20 SWAP1 SWAP2 ADD MSTORE SWAP1 POP PUSH0 JUMPDEST DUP2 MLOAD MLOAD DUP2 LT ISZERO PUSH2 0x1BFE JUMPI PUSH0 PUSH1 0x64 DUP4 PUSH1 0x20 ADD MLOAD DUP4 DUP2 MLOAD DUP2 LT PUSH2 0x1AED JUMPI PUSH2 0x1AED PUSH2 0x422F JUMP JUMPDEST PUSH1 0x20 MUL PUSH1 0x20 ADD ADD MLOAD DUP7 PUSH1 0x2 ADD SLOAD PUSH2 0x1B04 SWAP2 SWAP1 PUSH2 0x4044 JUMP JUMPDEST PUSH2 0x1B0E SWAP2 SWAP1 PUSH2 0x4243 JUMP JUMPDEST SWAP1 POP DUP1 ISZERO PUSH2 0x1BEB JUMPI PUSH0 DUP4 PUSH0 ADD MLOAD DUP4 DUP2 MLOAD DUP2 LT PUSH2 0x1B2C JUMPI PUSH2 0x1B2C PUSH2 0x422F JUMP JUMPDEST PUSH1 0x20 MUL PUSH1 0x20 ADD ADD MLOAD PUSH1 0x1 PUSH1 0x1 PUSH1 0xA0 SHL SUB AND DUP3 PUSH1 0x40 MLOAD PUSH0 PUSH1 0x40 MLOAD DUP1 DUP4 SUB DUP2 DUP6 DUP8 GAS CALL SWAP3 POP POP POP RETURNDATASIZE DUP1 PUSH0 DUP2 EQ PUSH2 0x1B7B JUMPI PUSH1 0x40 MLOAD SWAP2 POP PUSH1 0x1F NOT PUSH1 0x3F RETURNDATASIZE ADD AND DUP3 ADD PUSH1 0x40 MSTORE RETURNDATASIZE DUP3 MSTORE RETURNDATASIZE PUSH0 PUSH1 0x20 DUP5 ADD RETURNDATACOPY PUSH2 0x1B80 JUMP JUMPDEST PUSH1 0x60 SWAP2 POP JUMPDEST POP POP SWAP1 POP DUP1 PUSH2 0x1BE9 JUMPI PUSH1 0x40 MLOAD PUSH3 0x461BCD PUSH1 0xE5 SHL DUP2 MSTORE PUSH1 0x20 PUSH1 0x4 DUP3 ADD MSTORE PUSH1 0x2F PUSH1 0x24 DUP3 ADD MSTORE PUSH32 0x4C616E6452656769737472793A204C6561736520706172746E65727368697020 PUSH1 0x44 DUP3 ADD MSTORE PUSH15 0x1D1C985B9CD9995C8819985A5B1959 PUSH1 0x8A SHL PUSH1 0x64 DUP3 ADD MSTORE PUSH1 0x84 ADD PUSH2 0xAE1 JUMP JUMPDEST POP JUMPDEST POP DUP1 PUSH2 0x1BF6 DUP2 PUSH2 0x406E JUMP JUMPDEST SWAP2 POP POP PUSH2 0x1ACA JUMP JUMPDEST POP POP PUSH2 0x1CBD JUMP JUMPDEST PUSH1 0x1 DUP2 ADD SLOAD PUSH1 0x2 DUP4 ADD SLOAD PUSH1 0x40 MLOAD PUSH0 SWAP3 PUSH2 0x100 SWAP1 DIV PUSH1 0x1 PUSH1 0x1 PUSH1 0xA0 SHL SUB AND SWAP2 SWAP1 DUP4 DUP2 DUP2 DUP2 DUP6 DUP8 GAS CALL SWAP3 POP POP POP RETURNDATASIZE DUP1 PUSH0 DUP2 EQ PUSH2 0x1C5A JUMPI PUSH1 0x40 MLOAD SWAP2 POP PUSH1 0x1F NOT PUSH1 0x3F RETURNDATASIZE ADD AND DUP3 ADD PUSH1 0x40 MSTORE RETURNDATASIZE DUP3 MSTORE RETURNDATASIZE PUSH0 PUSH1 0x20 DUP5 ADD RETURNDATACOPY PUSH2 0x1C5F JUMP JUMPDEST PUSH1 0x60 SWAP2 POP JUMPDEST POP POP SWAP1 POP DUP1 PUSH2 0x1CBB JUMPI PUSH1 0x40 MLOAD PUSH3 0x461BCD PUSH1 0xE5 SHL DUP2 MSTORE PUSH1 0x20 PUSH1 0x4 DUP3 ADD MSTORE PUSH1 0x22 PUSH1 0x24 DUP3 ADD MSTORE PUSH32 0x4C616E6452656769737472793A2072656E74207472616E73666572206661696C PUSH1 0x44 DUP3 ADD MSTORE PUSH2 0x1959 PUSH1 0xF2 SHL PUSH1 0x64 DUP3 ADD MSTORE PUSH1 0x84 ADD PUSH2 0xAE1 JUMP JUMPDEST POP JUMPDEST DUP2 SLOAD PUSH1 0x1 DUP4 ADD SLOAD PUSH1 0x40 MLOAD SWAP1 DUP2 MSTORE PUSH1 0x1 PUSH1 0x1 PUSH1 0xA0 SHL SUB SWAP1 SWAP2 AND SWAP1 DUP7 SWAP1 PUSH32 0x29C1EC3036121902CFCFA4755D1E34984B52346A432C2F8CD8157CB3A1AC4896 SWAP1 PUSH1 0x20 ADD PUSH1 0x40 MLOAD DUP1 SWAP2 SUB SWAP1 LOG3 POP POP POP POP POP JUMP JUMPDEST PUSH0 PUSH1 0x1 PUSH1 0x1 PUSH1 0xA0 SHL SUB DUP3 AND PUSH2 0x1D36 JUMPI PUSH1 0x40 MLOAD PUSH4 0x22718AD9 PUSH1 0xE2 SHL DUP2 MSTORE PUSH0 PUSH1 0x4 DUP3 ADD MSTORE PUSH1 0x24 ADD PUSH2 0xAE1 JUMP JUMPDEST POP PUSH1 0x1 PUSH1 0x1 PUSH1 0xA0 SHL SUB AND PUSH0 SWAP1 DUP2 MSTORE PUSH1 0x3 PUSH1 0x20 MSTORE PUSH1 0x40 SWAP1 KECCAK256 SLOAD SWAP1 JUMP JUMPDEST PUSH0 PUSH2 0x1D5B DUP2 PUSH2 0x2FB5 JUMP JUMPDEST POP PUSH1 0x10 DUP1 SLOAD PUSH1 0xFF NOT AND SWAP2 ISZERO ISZERO SWAP2 SWAP1 SWAP2 OR SWAP1 SSTORE JUMP JUMPDEST PUSH0 DUP3 DUP2 MSTORE PUSH1 0x8 PUSH1 0x20 MSTORE PUSH1 0x40 SWAP1 KECCAK256 PUSH1 0x4 ADD SLOAD DUP3 SWAP1 PUSH1 0xFF AND ISZERO PUSH2 0x1DA2 JUMPI PUSH1 0x40 MLOAD PUSH3 0x461BCD PUSH1 0xE5 SHL DUP2 MSTORE PUSH1 0x4 ADD PUSH2 0xAE1 SWAP1 PUSH2 0x3FFB JUMP JUMPDEST PUSH0 DUP4 DUP2 MSTORE PUSH1 0x8 PUSH1 0x20 MSTORE PUSH1 0x40 SWAP1 KECCAK256 PUSH1 0x1 DUP2 ADD SLOAD PUSH2 0x100 SWAP1 DIV PUSH1 0x1 PUSH1 0x1 PUSH1 0xA0 SHL SUB AND CALLER EQ DUP1 PUSH2 0x1DD1 JUMPI POP PUSH1 0x10 SLOAD PUSH1 0xFF AND JUMPDEST PUSH2 0x1DED JUMPI PUSH1 0x40 MLOAD PUSH3 0x461BCD PUSH1 0xE5 SHL DUP2 MSTORE PUSH1 0x4 ADD PUSH2 0xAE1 SWAP1 PUSH2 0x419F JUMP JUMPDEST PUSH1 0x1 PUSH1 0x1 PUSH1 0xA0 SHL SUB DUP4 AND PUSH2 0x1E43 JUMPI PUSH1 0x40 MLOAD PUSH3 0x461BCD PUSH1 0xE5 SHL DUP2 MSTORE PUSH1 0x20 PUSH1 0x4 DUP3 ADD MSTORE PUSH1 0x1D PUSH1 0x24 DUP3 ADD MSTORE PUSH32 0x4C616E6452656769737472793A20696E76616C696420706172746E6572000000 PUSH1 0x44 DUP3 ADD MSTORE PUSH1 0x64 ADD PUSH2 0xAE1 JUMP JUMPDEST PUSH0 DUP5 DUP2 MSTORE PUSH1 0xC PUSH1 0x20 MSTORE PUSH1 0x40 SWAP1 KECCAK256 PUSH1 0x2 ADD SLOAD PUSH1 0xFF AND ISZERO PUSH2 0x1EA4 JUMPI PUSH1 0x40 MLOAD PUSH3 0x461BCD PUSH1 0xE5 SHL DUP2 MSTORE PUSH1 0x20 PUSH1 0x4 DUP3 ADD DUP2 SWAP1 MSTORE PUSH1 0x24 DUP3 ADD MSTORE PUSH32 0x4C616E6452656769737472793A20706172746E65727368697020657869737473 PUSH1 0x44 DUP3 ADD MSTORE PUSH1 0x64 ADD PUSH2 0xAE1 JUMP JUMPDEST PUSH1 0x40 DUP1 MLOAD PUSH1 0x2 DUP1 DUP3 MSTORE PUSH1 0x60 DUP3 ADD DUP4 MSTORE PUSH0 SWAP3 PUSH1 0x20 DUP4 ADD SWAP1 DUP1 CALLDATASIZE DUP4 CALLDATACOPY ADD SWAP1 POP POP SWAP1 POP DUP2 PUSH1 0x1 ADD PUSH1 0x1 SWAP1 SLOAD SWAP1 PUSH2 0x100 EXP SWAP1 DIV PUSH1 0x1 PUSH1 0x1 PUSH1 0xA0 SHL SUB AND DUP2 PUSH0 DUP2 MLOAD DUP2 LT PUSH2 0x1EEE JUMPI PUSH2 0x1EEE PUSH2 0x422F JUMP JUMPDEST PUSH1 0x20 MUL PUSH1 0x20 ADD ADD SWAP1 PUSH1 0x1 PUSH1 0x1 PUSH1 0xA0 SHL SUB AND SWAP1 DUP2 PUSH1 0x1 PUSH1 0x1 PUSH1 0xA0 SHL SUB AND DUP2 MSTORE POP POP DUP4 DUP2 PUSH1 0x1 DUP2 MLOAD DUP2 LT PUSH2 0x1F22 JUMPI PUSH2 0x1F22 PUSH2 0x422F JUMP JUMPDEST PUSH1 0x1 PUSH1 0x1 PUSH1 0xA0 SHL SUB SWAP3 SWAP1 SWAP3 AND PUSH1 0x20 SWAP3 DUP4 MUL SWAP2 SWAP1 SWAP2 ADD DUP3 ADD MSTORE PUSH1 0x40 DUP1 MLOAD PUSH1 0x2 DUP1 DUP3 MSTORE PUSH1 0x60 DUP3 ADD DUP4 MSTORE PUSH0 SWAP4 SWAP2 SWAP3 SWAP1 SWAP2 DUP4 ADD SWAP1 DUP1 CALLDATASIZE DUP4 CALLDATACOPY ADD SWAP1 POP POP SWAP1 POP PUSH1 0x32 DUP2 PUSH0 DUP2 MLOAD DUP2 LT PUSH2 0x1F70 JUMPI PUSH2 0x1F70 PUSH2 0x422F JUMP JUMPDEST PUSH1 0x20 MUL PUSH1 0x20 ADD ADD DUP2 DUP2 MSTORE POP POP PUSH1 0x32 DUP2 PUSH1 0x1 DUP2 MLOAD DUP2 LT PUSH2 0x1F91 JUMPI PUSH2 0x1F91 PUSH2 0x422F JUMP JUMPDEST PUSH1 0x20 SWAP1 DUP2 MUL SWAP2 SWAP1 SWAP2 ADD DUP2 ADD SWAP2 SWAP1 SWAP2 MSTORE PUSH1 0x40 DUP1 MLOAD PUSH1 0x60 DUP2 ADD DUP3 MSTORE DUP5 DUP2 MSTORE DUP1 DUP4 ADD DUP5 SWAP1 MSTORE PUSH1 0x1 DUP2 DUP4 ADD MSTORE PUSH0 DUP10 DUP2 MSTORE PUSH1 0xC DUP5 MSTORE SWAP2 SWAP1 SWAP2 KECCAK256 DUP2 MLOAD DUP1 MLOAD SWAP3 SWAP4 SWAP2 SWAP3 PUSH2 0x1FDA SWAP3 DUP5 SWAP3 ADD SWAP1 PUSH2 0x397E JUMP JUMPDEST POP PUSH1 0x20 DUP3 DUP2 ADD MLOAD DUP1 MLOAD PUSH2 0x1FF3 SWAP3 PUSH1 0x1 DUP6 ADD SWAP3 ADD SWAP1 PUSH2 0x39E1 JUMP JUMPDEST POP PUSH1 0x40 SWAP2 DUP3 ADD MLOAD PUSH1 0x2 SWAP2 SWAP1 SWAP2 ADD DUP1 SLOAD PUSH1 0xFF NOT AND SWAP2 ISZERO ISZERO SWAP2 SWAP1 SWAP2 OR SWAP1 SSTORE MLOAD DUP7 SWAP1 PUSH32 0xAEF81879745BD1DE42275D206CF11582D3A7B35CD5CE172A2BAAA826EB9B858B SWAP1 PUSH2 0x2041 SWAP1 DUP6 SWAP1 DUP6 SWAP1 PUSH2 0x4262 JUMP JUMPDEST PUSH1 0x40 MLOAD DUP1 SWAP2 SUB SWAP1 LOG2 POP POP POP POP POP POP JUMP JUMPDEST PUSH0 DUP1 MLOAD PUSH1 0x20 PUSH2 0x4399 DUP4 CODECOPY DUP2 MLOAD SWAP2 MSTORE PUSH2 0x2068 DUP2 PUSH2 0x2FB5 JUMP JUMPDEST PUSH0 DUP3 DUP2 MSTORE PUSH1 0x9 PUSH1 0x20 MSTORE PUSH1 0x40 SWAP1 KECCAK256 PUSH1 0x3 DUP2 ADD SLOAD PUSH1 0xFF AND PUSH2 0x20D3 JUMPI PUSH1 0x40 MLOAD PUSH3 0x461BCD PUSH1 0xE5 SHL DUP2 MSTORE PUSH1 0x20 PUSH1 0x4 DUP3 ADD MSTORE PUSH1 0x21 PUSH1 0x24 DUP3 ADD MSTORE PUSH32 0x4C616E6452656769737472793A2072657175657374206E6F742070656E64696E PUSH1 0x44 DUP3 ADD MSTORE PUSH1 0x67 PUSH1 0xF8 SHL PUSH1 0x64 DUP3 ADD MSTORE PUSH1 0x84 ADD PUSH2 0xAE1 JUMP JUMPDEST PUSH1 0x3 DUP2 ADD DUP1 SLOAD PUSH1 0xFF NOT AND SWAP1 SSTORE PUSH1 0xE DUP1 SLOAD PUSH0 SWAP2 DUP3 PUSH2 0x20EF DUP4 PUSH2 0x406E JUMP JUMPDEST SWAP1 SWAP2 SSTORE POP DUP3 SLOAD SWAP1 SWAP2 POP PUSH2 0x210B SWAP1 PUSH1 0x1 PUSH1 0x1 PUSH1 0xA0 SHL SUB AND DUP3 PUSH2 0x31B0 JUMP JUMPDEST PUSH2 0x219F DUP2 DUP4 PUSH1 0x1 ADD DUP1 SLOAD PUSH2 0x211E SWAP1 PUSH2 0x3FC3 JUMP JUMPDEST DUP1 PUSH1 0x1F ADD PUSH1 0x20 DUP1 SWAP2 DIV MUL PUSH1 0x20 ADD PUSH1 0x40 MLOAD SWAP1 DUP2 ADD PUSH1 0x40 MSTORE DUP1 SWAP3 SWAP2 SWAP1 DUP2 DUP2 MSTORE PUSH1 0x20 ADD DUP3 DUP1 SLOAD PUSH2 0x214A SWAP1 PUSH2 0x3FC3 JUMP JUMPDEST DUP1 ISZERO PUSH2 0x2195 JUMPI DUP1 PUSH1 0x1F LT PUSH2 0x216C JUMPI PUSH2 0x100 DUP1 DUP4 SLOAD DIV MUL DUP4 MSTORE SWAP2 PUSH1 0x20 ADD SWAP2 PUSH2 0x2195 JUMP JUMPDEST DUP3 ADD SWAP2 SWAP1 PUSH0 MSTORE PUSH1 0x20 PUSH0 KECCAK256 SWAP1 JUMPDEST DUP2 SLOAD DUP2 MSTORE SWAP1 PUSH1 0x1 ADD SWAP1 PUSH1 0x20 ADD DUP1 DUP4 GT PUSH2 0x2178 JUMPI DUP3 SWAP1 SUB PUSH1 0x1F AND DUP3 ADD SWAP2 JUMPDEST POP POP POP POP POP PUSH2 0x31C9 JUMP JUMPDEST PUSH1 0x40 DUP1 MLOAD PUSH2 0x100 DUP2 ADD DUP3 MSTORE PUSH1 0x2 DUP5 ADD SLOAD DUP2 MSTORE PUSH1 0x1 PUSH1 0x20 DUP1 DUP4 ADD DUP3 DUP2 MSTORE DUP7 SLOAD PUSH1 0x1 PUSH1 0x1 PUSH1 0xA0 SHL SUB AND DUP5 DUP7 ADD MSTORE PUSH0 PUSH1 0x60 DUP6 ADD DUP2 SWAP1 MSTORE PUSH1 0x80 DUP6 ADD DUP2 SWAP1 MSTORE PUSH1 0xA0 DUP6 ADD DUP2 SWAP1 MSTORE PUSH1 0xC0 DUP6 ADD DUP2 SWAP1 MSTORE PUSH1 0xE0 DUP6 ADD DUP2 SWAP1 MSTORE DUP7 DUP2 MSTORE PUSH1 0x8 SWAP1 SWAP3 MSTORE SWAP4 SWAP1 KECCAK256 DUP3 MLOAD DUP2 SSTORE SWAP3 MLOAD DUP4 DUP3 ADD DUP1 SLOAD SWAP4 SWAP5 SWAP4 SWAP2 SWAP3 SWAP1 SWAP2 PUSH1 0xFF NOT AND SWAP1 DUP4 PUSH1 0x6 DUP2 GT ISZERO PUSH2 0x2222 JUMPI PUSH2 0x2222 PUSH2 0x3B7A JUMP JUMPDEST MUL OR SWAP1 SSTORE POP PUSH1 0x40 DUP3 DUP2 ADD MLOAD PUSH1 0x1 DUP1 DUP5 ADD DUP1 SLOAD PUSH1 0x1 PUSH1 0x1 PUSH1 0xA0 SHL SUB SWAP4 DUP5 AND PUSH2 0x100 MUL PUSH2 0x100 PUSH1 0x1 PUSH1 0xA8 SHL SUB NOT SWAP1 SWAP2 AND OR SWAP1 SSTORE PUSH1 0x60 DUP6 ADD MLOAD PUSH1 0x2 DUP1 DUP7 ADD DUP1 SLOAD PUSH1 0x80 DUP10 ADD MLOAD PUSH1 0xA0 DUP11 ADD MLOAD ISZERO ISZERO PUSH1 0x1 PUSH1 0xA8 SHL MUL PUSH1 0xFF PUSH1 0xA8 SHL NOT SWAP2 ISZERO ISZERO PUSH1 0x1 PUSH1 0xA0 SHL MUL PUSH1 0x1 PUSH1 0x1 PUSH1 0xA8 SHL SUB NOT SWAP1 SWAP4 AND SWAP6 DUP9 AND SWAP6 SWAP1 SWAP6 OR SWAP2 SWAP1 SWAP2 OR AND SWAP3 SWAP1 SWAP3 OR SWAP1 SWAP2 SSTORE PUSH1 0xC0 DUP7 ADD MLOAD PUSH1 0x3 DUP7 ADD SSTORE PUSH1 0xE0 SWAP1 SWAP6 ADD MLOAD PUSH1 0x4 SWAP1 SWAP5 ADD DUP1 SLOAD SWAP5 ISZERO ISZERO PUSH1 0xFF NOT SWAP1 SWAP6 AND SWAP5 SWAP1 SWAP5 OR SWAP1 SWAP4 SSTORE DUP6 SLOAD SWAP4 DUP7 ADD SLOAD SWAP2 MLOAD SWAP4 AND SWAP3 DUP5 SWAP3 PUSH32 0xBCB3BB9AB407224C720E86C6C2FEE4A888F1CA7FC76AD2A3F46C34D9E2A6BCDD SWAP3 PUSH2 0x2303 SWAP3 SWAP1 SWAP2 DUP9 ADD SWAP1 PUSH2 0x4286 JUMP JUMPDEST PUSH1 0x40 MLOAD DUP1 SWAP2 SUB SWAP1 LOG3 POP POP POP POP JUMP JUMPDEST PUSH0 SWAP2 DUP3 MSTORE PUSH1 0x7 PUSH1 0x20 SWAP1 DUP2 MSTORE PUSH1 0x40 DUP1 DUP5 KECCAK256 PUSH1 0x1 PUSH1 0x1 PUSH1 0xA0 SHL SUB SWAP4 SWAP1 SWAP4 AND DUP5 MSTORE SWAP2 SWAP1 MSTORE SWAP1 KECCAK256 SLOAD PUSH1 0xFF AND SWAP1 JUMP JUMPDEST PUSH1 0x60 PUSH1 0x1 DUP1 SLOAD PUSH2 0x9B6 SWAP1 PUSH2 0x3FC3 JUMP JUMPDEST PUSH0 DUP1 MLOAD PUSH1 0x20 PUSH2 0x4399 DUP4 CODECOPY DUP2 MLOAD SWAP2 MSTORE PUSH2 0x2361 DUP2 PUSH2 0x2FB5 JUMP JUMPDEST PUSH0 DUP3 DUP2 MSTORE PUSH1 0x8 PUSH1 0x20 MSTORE PUSH1 0x40 SWAP1 KECCAK256 PUSH1 0x4 ADD SLOAD DUP3 SWAP1 PUSH1 0xFF AND ISZERO PUSH2 0x2394 JUMPI PUSH1 0x40 MLOAD PUSH3 0x461BCD PUSH1 0xE5 SHL DUP2 MSTORE PUSH1 0x4 ADD PUSH2 0xAE1 SWAP1 PUSH2 0x3FFB JUMP JUMPDEST PUSH0 DUP4 DUP2 MSTORE PUSH1 0x8 PUSH1 0x20 MSTORE PUSH1 0x40 SWAP1 KECCAK256 PUSH1 0x4 PUSH1 0x1 DUP3 ADD SLOAD PUSH1 0xFF AND PUSH1 0x6 DUP2 GT ISZERO PUSH2 0x23BC JUMPI PUSH2 0x23BC PUSH2 0x3B7A JUMP JUMPDEST EQ PUSH2 0x2409 JUMPI PUSH1 0x40 MLOAD PUSH3 0x461BCD PUSH1 0xE5 SHL DUP2 MSTORE PUSH1 0x20 PUSH1 0x4 DUP3 ADD MSTORE PUSH1 0x1F PUSH1 0x24 DUP3 ADD MSTORE PUSH32 0x4C616E6452656769737472793A206E6F74204177616974696E6746696E616C00 PUSH1 0x44 DUP3 ADD MSTORE PUSH1 0x64 ADD PUSH2 0xAE1 JUMP JUMPDEST PUSH1 0x2 DUP2 ADD SLOAD PUSH1 0x1 PUSH1 0xA0 SHL SWAP1 DIV PUSH1 0xFF AND PUSH2 0x2464 JUMPI PUSH1 0x40 MLOAD PUSH3 0x461BCD PUSH1 0xE5 SHL DUP2 MSTORE PUSH1 0x20 PUSH1 0x4 DUP3 ADD DUP2 SWAP1 MSTORE PUSH1 0x24 DUP3 ADD MSTORE PUSH32 0x4C616E6452656769737472793A207472757374206E6F74207265636F72646564 PUSH1 0x44 DUP3 ADD MSTORE PUSH1 0x64 ADD PUSH2 0xAE1 JUMP JUMPDEST PUSH1 0x2 DUP2 ADD SLOAD PUSH1 0x1 PUSH1 0xA8 SHL SWAP1 DIV PUSH1 0xFF AND PUSH2 0x24CA JUMPI PUSH1 0x40 MLOAD PUSH3 0x461BCD PUSH1 0xE5 SHL DUP2 MSTORE PUSH1 0x20 PUSH1 0x4 DUP3 ADD MSTORE PUSH1 0x22 PUSH1 0x24 DUP3 ADD MSTORE PUSH32 0x4C616E6452656769737472793A2073656C6C6572206E6F7420636F6E6669726D PUSH1 0x44 DUP3 ADD MSTORE PUSH2 0x1959 PUSH1 0xF2 SHL PUSH1 0x64 DUP3 ADD MSTORE PUSH1 0x84 ADD PUSH2 0xAE1 JUMP JUMPDEST DUP1 SLOAD PUSH1 0x3 DUP3 ADD SLOAD EQ PUSH2 0x251E JUMPI PUSH1 0x40 MLOAD PUSH3 0x461BCD PUSH1 0xE5 SHL DUP2 MSTORE PUSH1 0x20 PUSH1 0x4 DUP3 ADD MSTORE PUSH1 0x1D PUSH1 0x24 DUP3 ADD MSTORE PUSH32 0x4C616E6452656769737472793A20657363726F77206D69736D61746368000000 PUSH1 0x44 DUP3 ADD MSTORE PUSH1 0x64 ADD PUSH2 0xAE1 JUMP JUMPDEST PUSH1 0x1 DUP2 ADD DUP1 SLOAD PUSH1 0x2 DUP4 ADD SLOAD PUSH1 0x3 DUP5 ADD DUP1 SLOAD PUSH1 0x5 PUSH1 0xFF NOT DUP6 AND OR SWAP1 SWAP5 SSTORE PUSH0 SWAP1 SSTORE PUSH1 0x1 PUSH1 0x1 PUSH1 0xA0 SHL SUB PUSH2 0x100 SWAP1 SWAP3 DIV DUP3 AND SWAP3 SWAP2 AND SWAP1 PUSH2 0x255C DUP4 DUP4 DUP10 PUSH2 0x3218 JUMP JUMPDEST PUSH0 DUP8 DUP2 MSTORE PUSH1 0xC PUSH1 0x20 MSTORE PUSH1 0x40 SWAP1 KECCAK256 PUSH1 0x2 ADD SLOAD PUSH1 0xFF AND ISZERO PUSH2 0x2785 JUMPI PUSH0 DUP8 DUP2 MSTORE PUSH1 0xC PUSH1 0x20 SWAP1 DUP2 MSTORE PUSH1 0x40 DUP1 DUP4 KECCAK256 DUP2 MLOAD DUP2 SLOAD PUSH1 0x80 SWAP5 DUP2 MUL DUP3 ADD DUP6 ADD SWAP1 SWAP4 MSTORE PUSH1 0x60 DUP2 ADD DUP4 DUP2 MSTORE SWAP1 SWAP4 SWAP2 SWAP3 DUP5 SWAP3 DUP5 SWAP2 SWAP1 DUP5 ADD DUP3 DUP3 DUP1 ISZERO PUSH2 0x25DC JUMPI PUSH1 0x20 MUL DUP3 ADD SWAP2 SWAP1 PUSH0 MSTORE PUSH1 0x20 PUSH0 KECCAK256 SWAP1 JUMPDEST DUP2 SLOAD PUSH1 0x1 PUSH1 0x1 PUSH1 0xA0 SHL SUB AND DUP2 MSTORE PUSH1 0x1 SWAP1 SWAP2 ADD SWAP1 PUSH1 0x20 ADD DUP1 DUP4 GT PUSH2 0x25BE JUMPI JUMPDEST POP POP POP POP POP DUP2 MSTORE PUSH1 0x20 ADD PUSH1 0x1 DUP3 ADD DUP1 SLOAD DUP1 PUSH1 0x20 MUL PUSH1 0x20 ADD PUSH1 0x40 MLOAD SWAP1 DUP2 ADD PUSH1 0x40 MSTORE DUP1 SWAP3 SWAP2 SWAP1 DUP2 DUP2 MSTORE PUSH1 0x20 ADD DUP3 DUP1 SLOAD DUP1 ISZERO PUSH2 0x2632 JUMPI PUSH1 0x20 MUL DUP3 ADD SWAP2 SWAP1 PUSH0 MSTORE PUSH1 0x20 PUSH0 KECCAK256 SWAP1 JUMPDEST DUP2 SLOAD DUP2 MSTORE PUSH1 0x20 ADD SWAP1 PUSH1 0x1 ADD SWAP1 DUP1 DUP4 GT PUSH2 0x261E JUMPI JUMPDEST POP POP POP SWAP2 DUP4 MSTORE POP POP PUSH1 0x2 SWAP2 SWAP1 SWAP2 ADD SLOAD PUSH1 0xFF AND ISZERO ISZERO PUSH1 0x20 SWAP1 SWAP2 ADD MSTORE SWAP1 POP PUSH0 JUMPDEST DUP2 MLOAD MLOAD DUP2 LT ISZERO PUSH2 0x277E JUMPI PUSH0 PUSH1 0x64 DUP4 PUSH1 0x20 ADD MLOAD DUP4 DUP2 MLOAD DUP2 LT PUSH2 0x2673 JUMPI PUSH2 0x2673 PUSH2 0x422F JUMP JUMPDEST PUSH1 0x20 MUL PUSH1 0x20 ADD ADD MLOAD DUP6 PUSH2 0x2686 SWAP2 SWAP1 PUSH2 0x4044 JUMP JUMPDEST PUSH2 0x2690 SWAP2 SWAP1 PUSH2 0x4243 JUMP JUMPDEST SWAP1 POP DUP1 ISZERO PUSH2 0x276B JUMPI PUSH0 DUP4 PUSH0 ADD MLOAD DUP4 DUP2 MLOAD DUP2 LT PUSH2 0x26AE JUMPI PUSH2 0x26AE PUSH2 0x422F JUMP JUMPDEST PUSH1 0x20 MUL PUSH1 0x20 ADD ADD MLOAD PUSH1 0x1 PUSH1 0x1 PUSH1 0xA0 SHL SUB AND DUP3 PUSH1 0x40 MLOAD PUSH0 PUSH1 0x40 MLOAD DUP1 DUP4 SUB DUP2 DUP6 DUP8 GAS CALL SWAP3 POP POP POP RETURNDATASIZE DUP1 PUSH0 DUP2 EQ PUSH2 0x26FD JUMPI PUSH1 0x40 MLOAD SWAP2 POP PUSH1 0x1F NOT PUSH1 0x3F RETURNDATASIZE ADD AND DUP3 ADD PUSH1 0x40 MSTORE RETURNDATASIZE DUP3 MSTORE RETURNDATASIZE PUSH0 PUSH1 0x20 DUP5 ADD RETURNDATACOPY PUSH2 0x2702 JUMP JUMPDEST PUSH1 0x60 SWAP2 POP JUMPDEST POP POP SWAP1 POP DUP1 PUSH2 0x2769 JUMPI PUSH1 0x40 MLOAD PUSH3 0x461BCD PUSH1 0xE5 SHL DUP2 MSTORE PUSH1 0x20 PUSH1 0x4 DUP3 ADD MSTORE PUSH1 0x2D PUSH1 0x24 DUP3 ADD MSTORE PUSH32 0x4C616E6452656769737472793A20504F4C20706172746E657273686970207472 PUSH1 0x44 DUP3 ADD MSTORE PUSH13 0x185B9CD9995C8819985A5B1959 PUSH1 0x9A SHL PUSH1 0x64 DUP3 ADD MSTORE PUSH1 0x84 ADD PUSH2 0xAE1 JUMP JUMPDEST POP JUMPDEST POP DUP1 PUSH2 0x2776 DUP2 PUSH2 0x406E JUMP JUMPDEST SWAP2 POP POP PUSH2 0x2650 JUMP JUMPDEST POP POP PUSH2 0x2830 JUMP JUMPDEST PUSH0 DUP4 PUSH1 0x1 PUSH1 0x1 PUSH1 0xA0 SHL SUB AND DUP3 PUSH1 0x40 MLOAD PUSH0 PUSH1 0x40 MLOAD DUP1 DUP4 SUB DUP2 DUP6 DUP8 GAS CALL SWAP3 POP POP POP RETURNDATASIZE DUP1 PUSH0 DUP2 EQ PUSH2 0x27CE JUMPI PUSH1 0x40 MLOAD SWAP2 POP PUSH1 0x1F NOT PUSH1 0x3F RETURNDATASIZE ADD AND DUP3 ADD PUSH1 0x40 MSTORE RETURNDATASIZE DUP3 MSTORE RETURNDATASIZE PUSH0 PUSH1 0x20 DUP5 ADD RETURNDATACOPY PUSH2 0x27D3 JUMP JUMPDEST PUSH1 0x60 SWAP2 POP JUMPDEST POP POP SWAP1 POP DUP1 PUSH2 0x282E JUMPI PUSH1 0x40 MLOAD PUSH3 0x461BCD PUSH1 0xE5 SHL DUP2 MSTORE PUSH1 0x20 PUSH1 0x4 DUP3 ADD MSTORE PUSH1 0x21 PUSH1 0x24 DUP3 ADD MSTORE PUSH32 0x4C616E6452656769737472793A20504F4C207472616E73666572206661696C65 PUSH1 0x44 DUP3 ADD MSTORE PUSH1 0x19 PUSH1 0xFA SHL PUSH1 0x64 DUP3 ADD MSTORE PUSH1 0x84 ADD PUSH2 0xAE1 JUMP JUMPDEST POP JUMPDEST DUP2 PUSH1 0x1 PUSH1 0x1 PUSH1 0xA0 SHL SUB AND DUP4 PUSH1 0x1 PUSH1 0x1 PUSH1 0xA0 SHL SUB AND DUP9 PUSH32 0x6F354EC7B9D2CA4E029F73CCB9119943A48C3295704DD66CA8BEDA0C7BAE33F DUP5 PUSH1 0x40 MLOAD PUSH2 0x2876 SWAP2 DUP2 MSTORE PUSH1 0x20 ADD SWAP1 JUMP JUMPDEST PUSH1 0x40 MLOAD DUP1 SWAP2 SUB SWAP1 LOG4 POP POP POP POP POP POP POP JUMP JUMPDEST PUSH2 0xA69 CALLER DUP4 DUP4 PUSH2 0x32C5 JUMP JUMPDEST PUSH0 DUP2 DUP2 MSTORE PUSH1 0xC PUSH1 0x20 SWAP1 DUP2 MSTORE PUSH1 0x40 DUP1 DUP4 KECCAK256 PUSH1 0x2 DUP2 ADD SLOAD DUP2 SLOAD DUP4 MLOAD DUP2 DUP7 MUL DUP2 ADD DUP7 ADD SWAP1 SWAP5 MSTORE DUP1 DUP5 MSTORE PUSH1 0x60 SWAP6 DUP7 SWAP6 SWAP1 SWAP5 DUP5 SWAP4 PUSH1 0x1 DUP6 ADD SWAP4 PUSH1 0xFF SWAP1 SWAP2 AND SWAP3 DUP6 SWAP2 SWAP1 DUP4 ADD DUP3 DUP3 DUP1 ISZERO PUSH2 0x2906 JUMPI PUSH1 0x20 MUL DUP3 ADD SWAP2 SWAP1 PUSH0 MSTORE PUSH1 0x20 PUSH0 KECCAK256 SWAP1 JUMPDEST DUP2 SLOAD PUSH1 0x1 PUSH1 0x1 PUSH1 0xA0 SHL SUB AND DUP2 MSTORE PUSH1 0x1 SWAP1 SWAP2 ADD SWAP1 PUSH1 0x20 ADD DUP1 DUP4 GT PUSH2 0x28E8 JUMPI JUMPDEST POP POP POP POP POP SWAP3 POP DUP2 DUP1 SLOAD DUP1 PUSH1 0x20 MUL PUSH1 0x20 ADD PUSH1 0x40 MLOAD SWAP1 DUP2 ADD PUSH1 0x40 MSTORE DUP1 SWAP3 SWAP2 SWAP1 DUP2 DUP2 MSTORE PUSH1 0x20 ADD DUP3 DUP1 SLOAD DUP1 ISZERO PUSH2 0x2956 JUMPI PUSH1 0x20 MUL DUP3 ADD SWAP2 SWAP1 PUSH0 MSTORE PUSH1 0x20 PUSH0 KECCAK256 SWAP1 JUMPDEST DUP2 SLOAD DUP2 MSTORE PUSH1 0x20 ADD SWAP1 PUSH1 0x1 ADD SWAP1 DUP1 DUP4 GT PUSH2 0x2942 JUMPI JUMPDEST POP POP POP POP POP SWAP2 POP SWAP4 POP SWAP4 POP SWAP4 POP POP SWAP2 SWAP4 SWAP1 SWAP3 POP JUMP JUMPDEST PUSH2 0x2976 DUP5 DUP5 DUP5 PUSH2 0xC4A JUMP JUMPDEST PUSH2 0xCCD CALLER DUP6 DUP6 DUP6 DUP6 PUSH2 0x335B JUMP JUMPDEST PUSH1 0x60 PUSH2 0x298E DUP3 PUSH2 0x2F70 JUMP JUMPDEST POP PUSH0 DUP3 DUP2 MSTORE PUSH1 0x6 PUSH1 0x20 MSTORE PUSH1 0x40 DUP2 KECCAK256 DUP1 SLOAD PUSH2 0x29A7 SWAP1 PUSH2 0x3FC3 JUMP JUMPDEST DUP1 PUSH1 0x1F ADD PUSH1 0x20 DUP1 SWAP2 DIV MUL PUSH1 0x20 ADD PUSH1 0x40 MLOAD SWAP1 DUP2 ADD PUSH1 0x40 MSTORE DUP1 SWAP3 SWAP2 SWAP1 DUP2 DUP2 MSTORE PUSH1 0x20 ADD DUP3 DUP1 SLOAD PUSH2 0x29D3 SWAP1 PUSH2 0x3FC3 JUMP JUMPDEST DUP1 ISZERO PUSH2 0x2A1E JUMPI DUP1 PUSH1 0x1F LT PUSH2 0x29F5 JUMPI PUSH2 0x100 DUP1 DUP4 SLOAD DIV MUL DUP4 MSTORE SWAP2 PUSH1 0x20 ADD SWAP2 PUSH2 0x2A1E JUMP JUMPDEST DUP3 ADD SWAP2 SWAP1 PUSH0 MSTORE PUSH1 0x20 PUSH0 KECCAK256 SWAP1 JUMPDEST DUP2 SLOAD DUP2 MSTORE SWAP1 PUSH1 0x1 ADD SWAP1 PUSH1 0x20 ADD DUP1 DUP4 GT PUSH2 0x2A01 JUMPI DUP3 SWAP1 SUB PUSH1 0x1F AND DUP3 ADD SWAP2 JUMPDEST POP POP POP POP POP SWAP1 POP PUSH0 PUSH2 0x2A3A PUSH1 0x40 DUP1 MLOAD PUSH1 0x20 DUP2 ADD SWAP1 SWAP2 MSTORE PUSH0 DUP2 MSTORE SWAP1 JUMP JUMPDEST SWAP1 POP DUP1 MLOAD PUSH0 SUB PUSH2 0x2A4B JUMPI POP SWAP3 SWAP2 POP POP JUMP JUMPDEST DUP2 MLOAD ISZERO PUSH2 0x2A7D JUMPI DUP1 DUP3 PUSH1 0x40 MLOAD PUSH1 0x20 ADD PUSH2 0x2A65 SWAP3 SWAP2 SWAP1 PUSH2 0x4313 JUMP JUMPDEST PUSH1 0x40 MLOAD PUSH1 0x20 DUP2 DUP4 SUB SUB DUP2 MSTORE SWAP1 PUSH1 0x40 MSTORE SWAP3 POP POP POP SWAP2 SWAP1 POP JUMP JUMPDEST PUSH2 0x2A86 DUP5 PUSH2 0x3482 JUMP JUMPDEST SWAP5 SWAP4 POP POP POP POP JUMP JUMPDEST PUSH0 DUP3 DUP2 MSTORE PUSH1 0x7 PUSH1 0x20 MSTORE PUSH1 0x40 SWAP1 KECCAK256 PUSH1 0x1 ADD SLOAD PUSH2 0x2AA8 DUP2 PUSH2 0x2FB5 JUMP JUMPDEST PUSH2 0xCCD DUP4 DUP4 PUSH2 0x3145 JUMP JUMPDEST PUSH0 DUP3 DUP2 MSTORE PUSH1 0x8 PUSH1 0x20 MSTORE PUSH1 0x40 SWAP1 KECCAK256 PUSH1 0x4 ADD SLOAD DUP3 SWAP1 PUSH1 0xFF AND ISZERO PUSH2 0x2AE5 JUMPI PUSH1 0x40 MLOAD PUSH3 0x461BCD PUSH1 0xE5 SHL DUP2 MSTORE PUSH1 0x4 ADD PUSH2 0xAE1 SWAP1 PUSH2 0x3FFB JUMP JUMPDEST PUSH0 DUP4 DUP2 MSTORE PUSH1 0x8 PUSH1 0x20 MSTORE PUSH1 0x40 SWAP1 KECCAK256 PUSH1 0x1 DUP1 DUP3 ADD SLOAD PUSH1 0xFF AND PUSH1 0x6 DUP2 GT ISZERO PUSH2 0x2B0C JUMPI PUSH2 0x2B0C PUSH2 0x3B7A JUMP JUMPDEST EQ PUSH2 0x2B59 JUMPI PUSH1 0x40 MLOAD PUSH3 0x461BCD PUSH1 0xE5 SHL DUP2 MSTORE PUSH1 0x20 PUSH1 0x4 DUP3 ADD MSTORE PUSH1 0x18 PUSH1 0x24 DUP3 ADD MSTORE PUSH32 0x4C616E6452656769737472793A206E6F74204163746976650000000000000000 PUSH1 0x44 DUP3 ADD MSTORE PUSH1 0x64 ADD PUSH2 0xAE1 JUMP JUMPDEST PUSH1 0x1 PUSH1 0x1 PUSH1 0xA0 SHL SUB DUP4 AND PUSH2 0x2BAF JUMPI PUSH1 0x40 MLOAD PUSH3 0x461BCD PUSH1 0xE5 SHL DUP2 MSTORE PUSH1 0x20 PUSH1 0x4 DUP3 ADD MSTORE PUSH1 0x18 PUSH1 0x24 DUP3 ADD MSTORE PUSH32 0x4C616E6452656769737472793A207A65726F2062757965720000000000000000 PUSH1 0x44 DUP3 ADD MSTORE PUSH1 0x64 ADD PUSH2 0xAE1 JUMP JUMPDEST PUSH1 0x10 SLOAD PUSH1 0xFF AND PUSH2 0x2C1E JUMPI PUSH1 0x1 DUP2 ADD SLOAD PUSH1 0x1 PUSH1 0x1 PUSH1 0xA0 SHL SUB PUSH2 0x100 SWAP1 SWAP2 DIV DUP2 AND SWAP1 DUP5 AND SUB PUSH2 0x2C1E JUMPI PUSH1 0x40 MLOAD PUSH3 0x461BCD PUSH1 0xE5 SHL DUP2 MSTORE PUSH1 0x20 PUSH1 0x4 DUP3 ADD MSTORE PUSH1 0x1F PUSH1 0x24 DUP3 ADD MSTORE PUSH32 0x4C616E6452656769737472793A2063616E6E6F742074727573742073656C6600 PUSH1 0x44 DUP3 ADD MSTORE PUSH1 0x64 ADD PUSH2 0xAE1 JUMP JUMPDEST PUSH0 DUP5 DUP2 MSTORE PUSH1 0xC PUSH1 0x20 MSTORE PUSH1 0x40 DUP2 KECCAK256 PUSH1 0x2 ADD SLOAD PUSH1 0xFF AND ISZERO PUSH2 0x2E61 JUMPI PUSH0 DUP6 DUP2 MSTORE PUSH1 0xC PUSH1 0x20 MSTORE PUSH1 0x40 DUP2 KECCAK256 DUP2 DUP1 JUMPDEST DUP3 SLOAD DUP2 LT ISZERO PUSH2 0x2CF4 JUMPI DUP3 SLOAD CALLER SWAP1 DUP5 SWAP1 DUP4 SWAP1 DUP2 LT PUSH2 0x2C66 JUMPI PUSH2 0x2C66 PUSH2 0x422F JUMP JUMPDEST PUSH0 SWAP2 DUP3 MSTORE PUSH1 0x20 SWAP1 SWAP2 KECCAK256 ADD SLOAD PUSH1 0x1 PUSH1 0x1 PUSH1 0xA0 SHL SUB AND SUB PUSH2 0x2C84 JUMPI PUSH1 0x1 SWAP4 POP JUMPDEST PUSH0 DUP10 DUP2 MSTORE PUSH1 0xD PUSH1 0x20 MSTORE PUSH1 0x40 DUP2 KECCAK256 DUP5 SLOAD SWAP1 SWAP2 SWAP1 DUP6 SWAP1 DUP5 SWAP1 DUP2 LT PUSH2 0x2CA8 JUMPI PUSH2 0x2CA8 PUSH2 0x422F JUMP JUMPDEST PUSH0 SWAP2 DUP3 MSTORE PUSH1 0x20 DUP1 DUP4 KECCAK256 SWAP1 SWAP2 ADD SLOAD PUSH1 0x1 PUSH1 0x1 PUSH1 0xA0 SHL SUB AND DUP4 MSTORE DUP3 ADD SWAP3 SWAP1 SWAP3 MSTORE PUSH1 0x40 ADD SWAP1 KECCAK256 SLOAD PUSH1 0xFF AND ISZERO PUSH2 0x2CE2 JUMPI DUP2 PUSH2 0x2CDE DUP2 PUSH2 0x406E JUMP JUMPDEST SWAP3 POP POP JUMPDEST DUP1 PUSH2 0x2CEC DUP2 PUSH2 0x406E JUMP JUMPDEST SWAP2 POP POP PUSH2 0x2C47 JUMP JUMPDEST POP DUP3 DUP1 PUSH2 0x2D03 JUMPI POP PUSH1 0x10 SLOAD PUSH1 0xFF AND JUMPDEST PUSH2 0x2D4F JUMPI PUSH1 0x40 MLOAD PUSH3 0x461BCD PUSH1 0xE5 SHL DUP2 MSTORE PUSH1 0x20 PUSH1 0x4 DUP3 ADD MSTORE PUSH1 0x1B PUSH1 0x24 DUP3 ADD MSTORE PUSH32 0x4C616E6452656769737472793A206E6F74206120706172746E65720000000000 PUSH1 0x44 DUP3 ADD MSTORE PUSH1 0x64 ADD PUSH2 0xAE1 JUMP JUMPDEST PUSH0 DUP9 DUP2 MSTORE PUSH1 0xD PUSH1 0x20 SWAP1 DUP2 MSTORE PUSH1 0x40 DUP1 DUP4 KECCAK256 CALLER DUP5 MSTORE SWAP1 SWAP2 MSTORE SWAP1 KECCAK256 SLOAD PUSH1 0xFF AND PUSH2 0x2DA0 JUMPI PUSH0 DUP9 DUP2 MSTORE PUSH1 0xD PUSH1 0x20 SWAP1 DUP2 MSTORE PUSH1 0x40 DUP1 DUP4 KECCAK256 CALLER DUP5 MSTORE SWAP1 SWAP2 MSTORE SWAP1 KECCAK256 DUP1 SLOAD PUSH1 0xFF NOT AND PUSH1 0x1 OR SWAP1 SSTORE DUP1 PUSH2 0x2D9C DUP2 PUSH2 0x406E JUMP JUMPDEST SWAP2 POP POP JUMPDEST PUSH1 0x40 DUP1 MLOAD CALLER DUP2 MSTORE PUSH1 0x1 PUSH1 0x1 PUSH1 0xA0 SHL SUB DUP10 AND PUSH1 0x20 DUP3 ADD MSTORE DUP10 SWAP2 PUSH32 0xF324902CE1C8411EBB2A675E7C505CF197D08BBCE985519E7A96D8B5274F9792 SWAP2 ADD PUSH1 0x40 MLOAD DUP1 SWAP2 SUB SWAP1 LOG2 DUP2 SLOAD PUSH0 SWAP1 PUSH2 0x2DF2 DUP4 PUSH1 0x64 PUSH2 0x4044 JUMP JUMPDEST PUSH2 0x2DFC SWAP2 SWAP1 PUSH2 0x4243 JUMP JUMPDEST SWAP1 POP PUSH1 0x32 DUP2 GT DUP1 PUSH2 0x2E0F JUMPI POP PUSH1 0x10 SLOAD PUSH1 0xFF AND JUMPDEST ISZERO PUSH2 0x2E1D JUMPI PUSH1 0x1 SWAP5 POP PUSH2 0x2E58 JUMP JUMPDEST PUSH1 0x2 DUP7 ADD SLOAD PUSH1 0x1 PUSH1 0x1 PUSH1 0xA0 SHL SUB AND PUSH2 0x2E4D JUMPI PUSH1 0x2 DUP7 ADD DUP1 SLOAD PUSH1 0x1 PUSH1 0x1 PUSH1 0xA0 SHL SUB NOT AND PUSH1 0x1 PUSH1 0x1 PUSH1 0xA0 SHL SUB DUP11 AND OR SWAP1 SSTORE JUMPDEST POP POP POP POP POP POP POP POP POP JUMP JUMPDEST POP POP POP POP PUSH2 0x2EA3 JUMP JUMPDEST PUSH1 0x1 DUP3 ADD SLOAD PUSH2 0x100 SWAP1 DIV PUSH1 0x1 PUSH1 0x1 PUSH1 0xA0 SHL SUB AND CALLER EQ DUP1 PUSH2 0x2E83 JUMPI POP PUSH1 0x10 SLOAD PUSH1 0xFF AND JUMPDEST PUSH2 0x2E9F JUMPI PUSH1 0x40 MLOAD PUSH3 0x461BCD PUSH1 0xE5 SHL DUP2 MSTORE PUSH1 0x4 ADD PUSH2 0xAE1 SWAP1 PUSH2 0x419F JUMP JUMPDEST POP PUSH1 0x1 JUMPDEST DUP1 ISZERO PUSH2 0x2F18 JUMPI PUSH1 0x2 DUP3 DUP2 ADD DUP1 SLOAD PUSH1 0x1 PUSH1 0x1 PUSH1 0xA8 SHL SUB NOT AND PUSH1 0x1 PUSH1 0x1 PUSH1 0xA0 SHL SUB DUP8 DUP2 AND SWAP2 DUP3 OR PUSH1 0x1 PUSH1 0xA0 SHL OR SWAP1 SWAP3 SSTORE PUSH1 0x1 DUP6 ADD DUP1 SLOAD PUSH1 0xFF NOT AND SWAP1 SWAP4 OR SWAP3 DUP4 SWAP1 SSTORE PUSH1 0x40 MLOAD SWAP1 SWAP3 PUSH2 0x100 SWAP1 DIV SWAP1 SWAP2 AND SWAP1 DUP8 SWAP1 PUSH32 0x31D1DD3247D4B3BD729E4D498C7B241939E4EF5D13C462FB7327793D4FBAAEE3 SWAP1 PUSH0 SWAP1 LOG4 JUMPDEST POP POP POP POP POP JUMP JUMPDEST PUSH1 0x1 PUSH1 0x1 PUSH1 0xA0 SHL SUB SWAP2 DUP3 AND PUSH0 SWAP1 DUP2 MSTORE PUSH1 0x5 PUSH1 0x20 SWAP1 DUP2 MSTORE PUSH1 0x40 DUP1 DUP4 KECCAK256 SWAP4 SWAP1 SWAP5 AND DUP3 MSTORE SWAP2 SWAP1 SWAP2 MSTORE KECCAK256 SLOAD PUSH1 0xFF AND SWAP1 JUMP JUMPDEST PUSH0 PUSH1 0x1 PUSH1 0x1 PUSH1 0xE0 SHL SUB NOT DUP3 AND PUSH4 0x7965DB0B PUSH1 0xE0 SHL EQ DUP1 PUSH2 0x9A2 JUMPI POP PUSH2 0x9A2 DUP3 PUSH2 0x34F3 JUMP JUMPDEST PUSH0 DUP2 DUP2 MSTORE PUSH1 0x2 PUSH1 0x20 MSTORE PUSH1 0x40 DUP2 KECCAK256 SLOAD PUSH1 0x1 PUSH1 0x1 PUSH1 0xA0 SHL SUB AND DUP1 PUSH2 0x9A2 JUMPI PUSH1 0x40 MLOAD PUSH4 0x7E273289 PUSH1 0xE0 SHL DUP2 MSTORE PUSH1 0x4 DUP2 ADD DUP5 SWAP1 MSTORE PUSH1 0x24 ADD PUSH2 0xAE1 JUMP JUMPDEST PUSH2 0xD2A DUP4 DUP4 DUP4 PUSH1 0x1 PUSH2 0x3517 JUMP JUMPDEST PUSH2 0x2FBF DUP2 CALLER PUSH2 0x361B JUMP JUMPDEST POP JUMP JUMPDEST PUSH0 DUP3 DUP2 MSTORE PUSH1 0x2 PUSH1 0x20 MSTORE PUSH1 0x40 DUP2 KECCAK256 SLOAD PUSH1 0x1 PUSH1 0x1 PUSH1 0xA0 SHL SUB SWAP1 DUP2 AND SWAP1 DUP4 AND ISZERO PUSH2 0x2FEE JUMPI PUSH2 0x2FEE DUP2 DUP5 DUP7 PUSH2 0x3654 JUMP JUMPDEST PUSH1 0x1 PUSH1 0x1 PUSH1 0xA0 SHL SUB DUP2 AND ISZERO PUSH2 0x3028 JUMPI PUSH2 0x3009 PUSH0 DUP6 PUSH0 DUP1 PUSH2 0x3517 JUMP JUMPDEST PUSH1 0x1 PUSH1 0x1 PUSH1 0xA0 SHL SUB DUP2 AND PUSH0 SWAP1 DUP2 MSTORE PUSH1 0x3 PUSH1 0x20 MSTORE PUSH1 0x40 SWAP1 KECCAK256 DUP1 SLOAD PUSH0 NOT ADD SWAP1 SSTORE JUMPDEST PUSH1 0x1 PUSH1 0x1 PUSH1 0xA0 SHL SUB DUP6 AND ISZERO PUSH2 0x3056 JUMPI PUSH1 0x1 PUSH1 0x1 PUSH1 0xA0 SHL SUB DUP6 AND PUSH0 SWAP1 DUP2 MSTORE PUSH1 0x3 PUSH1 0x20 MSTORE PUSH1 0x40 SWAP1 KECCAK256 DUP1 SLOAD PUSH1 0x1 ADD SWAP1 SSTORE JUMPDEST PUSH0 DUP5 DUP2 MSTORE PUSH1 0x2 PUSH1 0x20 MSTORE PUSH1 0x40 DUP1 DUP3 KECCAK256 DUP1 SLOAD PUSH1 0x1 PUSH1 0x1 PUSH1 0xA0 SHL SUB NOT AND PUSH1 0x1 PUSH1 0x1 PUSH1 0xA0 SHL SUB DUP10 DUP2 AND SWAP2 DUP3 OR SWAP1 SWAP3 SSTORE SWAP2 MLOAD DUP8 SWAP4 SWAP2 DUP6 AND SWAP2 PUSH32 0xDDF252AD1BE2C89B69C2B068FC378DAA952BA7F163C4A11628F55A4DF523B3EF SWAP2 LOG4 SWAP5 SWAP4 POP POP POP POP JUMP JUMPDEST PUSH0 PUSH2 0x30BF DUP4 DUP4 PUSH2 0x2311 JUMP JUMPDEST PUSH2 0x313E JUMPI PUSH0 DUP4 DUP2 MSTORE PUSH1 0x7 PUSH1 0x20 SWAP1 DUP2 MSTORE PUSH1 0x40 DUP1 DUP4 KECCAK256 PUSH1 0x1 PUSH1 0x1 PUSH1 0xA0 SHL SUB DUP7 AND DUP5 MSTORE SWAP1 SWAP2 MSTORE SWAP1 KECCAK256 DUP1 SLOAD PUSH1 0xFF NOT AND PUSH1 0x1 OR SWAP1 SSTORE PUSH2 0x30F6 CALLER SWAP1 JUMP JUMPDEST PUSH1 0x1 PUSH1 0x1 PUSH1 0xA0 SHL SUB AND DUP3 PUSH1 0x1 PUSH1 0x1 PUSH1 0xA0 SHL SUB AND DUP5 PUSH32 0x2F8788117E7EFF1D82E926EC794901D17C78024A50270940304540A733656F0D PUSH1 0x40 MLOAD PUSH1 0x40 MLOAD DUP1 SWAP2 SUB SWAP1 LOG4 POP PUSH1 0x1 PUSH2 0x9A2 JUMP JUMPDEST POP PUSH0 PUSH2 0x9A2 JUMP JUMPDEST PUSH0 PUSH2 0x3150 DUP4 DUP4 PUSH2 0x2311 JUMP JUMPDEST ISZERO PUSH2 0x313E JUMPI PUSH0 DUP4 DUP2 MSTORE PUSH1 0x7 PUSH1 0x20 SWAP1 DUP2 MSTORE PUSH1 0x40 DUP1 DUP4 KECCAK256 PUSH1 0x1 PUSH1 0x1 PUSH1 0xA0 SHL SUB DUP7 AND DUP1 DUP6 MSTORE SWAP3 MSTORE DUP1 DUP4 KECCAK256 DUP1 SLOAD PUSH1 0xFF NOT AND SWAP1 SSTORE MLOAD CALLER SWAP3 DUP7 SWAP2 PUSH32 0xF6391F5C32D9C69D2A47EA670B442974B53935D1EDC7FD64EB21E047A839171B SWAP2 SWAP1 LOG4 POP PUSH1 0x1 PUSH2 0x9A2 JUMP JUMPDEST PUSH2 0xA69 DUP3 DUP3 PUSH1 0x40 MLOAD DUP1 PUSH1 0x20 ADD PUSH1 0x40 MSTORE DUP1 PUSH0 DUP2 MSTORE POP PUSH2 0x36B8 JUMP JUMPDEST PUSH0 DUP3 DUP2 MSTORE PUSH1 0x6 PUSH1 0x20 MSTORE PUSH1 0x40 SWAP1 KECCAK256 PUSH2 0x31E0 DUP3 DUP3 PUSH2 0x40CB JUMP JUMPDEST POP PUSH1 0x40 MLOAD DUP3 DUP2 MSTORE PUSH32 0xF8E1A15ABA9398E019F0B49DF1A4FDE98EE17AE345CB5F6B5E2C27F5033E8CE7 SWAP1 PUSH1 0x20 ADD PUSH1 0x40 MLOAD DUP1 SWAP2 SUB SWAP1 LOG1 POP POP JUMP JUMPDEST PUSH1 0x1 PUSH1 0x1 PUSH1 0xA0 SHL SUB DUP3 AND PUSH2 0x3241 JUMPI PUSH1 0x40 MLOAD PUSH4 0x32505749 PUSH1 0xE1 SHL DUP2 MSTORE PUSH0 PUSH1 0x4 DUP3 ADD MSTORE PUSH1 0x24 ADD PUSH2 0xAE1 JUMP JUMPDEST PUSH0 PUSH2 0x324D DUP4 DUP4 PUSH0 PUSH2 0x2FC2 JUMP JUMPDEST SWAP1 POP PUSH1 0x1 PUSH1 0x1 PUSH1 0xA0 SHL SUB DUP2 AND PUSH2 0x3279 JUMPI PUSH1 0x40 MLOAD PUSH4 0x7E273289 PUSH1 0xE0 SHL DUP2 MSTORE PUSH1 0x4 DUP2 ADD DUP4 SWAP1 MSTORE PUSH1 0x24 ADD PUSH2 0xAE1 JUMP JUMPDEST DUP4 PUSH1 0x1 PUSH1 0x1 PUSH1 0xA0 SHL SUB AND DUP2 PUSH1 0x1 PUSH1 0x1 PUSH1 0xA0 SHL SUB AND EQ PUSH2 0xCCD JUMPI PUSH1 0x40 MLOAD PUSH4 0x64283D7B PUSH1 0xE0 SHL DUP2 MSTORE PUSH1 0x1 PUSH1 0x1 PUSH1 0xA0 SHL SUB DUP1 DUP7 AND PUSH1 0x4 DUP4 ADD MSTORE PUSH1 0x24 DUP3 ADD DUP5 SWAP1 MSTORE DUP3 AND PUSH1 0x44 DUP3 ADD MSTORE PUSH1 0x64 ADD PUSH2 0xAE1 JUMP JUMPDEST PUSH1 0x1 PUSH1 0x1 PUSH1 0xA0 SHL SUB DUP3 AND PUSH2 0x32F7 JUMPI PUSH1 0x40 MLOAD PUSH4 0xB611743 PUSH1 0xE3 SHL DUP2 MSTORE PUSH1 0x1 PUSH1 0x1 PUSH1 0xA0 SHL SUB DUP4 AND PUSH1 0x4 DUP3 ADD MSTORE PUSH1 0x24 ADD PUSH2 0xAE1 JUMP JUMPDEST PUSH1 0x1 PUSH1 0x1 PUSH1 0xA0 SHL SUB DUP4 DUP2 AND PUSH0 DUP2 DUP2 MSTORE PUSH1 0x5 PUSH1 0x20 SWAP1 DUP2 MSTORE PUSH1 0x40 DUP1 DUP4 KECCAK256 SWAP5 DUP8 AND DUP1 DUP5 MSTORE SWAP5 DUP3 MSTORE SWAP2 DUP3 SWAP1 KECCAK256 DUP1 SLOAD PUSH1 0xFF NOT AND DUP7 ISZERO ISZERO SWAP1 DUP2 OR SWAP1 SWAP2 SSTORE SWAP2 MLOAD SWAP2 DUP3 MSTORE PUSH32 0x17307EAB39AB6107E8899845AD3D59BD9653F200F220920489CA2B5937696C31 SWAP2 ADD PUSH2 0xEE3 JUMP JUMPDEST PUSH1 0x1 PUSH1 0x1 PUSH1 0xA0 SHL SUB DUP4 AND EXTCODESIZE ISZERO PUSH2 0x2F18 JUMPI PUSH1 0x40 MLOAD PUSH4 0xA85BD01 PUSH1 0xE1 SHL DUP2 MSTORE PUSH1 0x1 PUSH1 0x1 PUSH1 0xA0 SHL SUB DUP5 AND SWAP1 PUSH4 0x150B7A02 SWAP1 PUSH2 0x339D SWAP1 DUP9 SWAP1 DUP9 SWAP1 DUP8 SWAP1 DUP8 SWAP1 PUSH1 0x4 ADD PUSH2 0x4341 JUMP JUMPDEST PUSH1 0x20 PUSH1 0x40 MLOAD DUP1 DUP4 SUB DUP2 PUSH0 DUP8 GAS CALL SWAP3 POP POP POP DUP1 ISZERO PUSH2 0x33D7 JUMPI POP PUSH1 0x40 DUP1 MLOAD PUSH1 0x1F RETURNDATASIZE SWAP1 DUP2 ADD PUSH1 0x1F NOT AND DUP3 ADD SWAP1 SWAP3 MSTORE PUSH2 0x33D4 SWAP2 DUP2 ADD SWAP1 PUSH2 0x437D JUMP JUMPDEST PUSH1 0x1 JUMPDEST PUSH2 0x343E JUMPI RETURNDATASIZE DUP1 DUP1 ISZERO PUSH2 0x3404 JUMPI PUSH1 0x40 MLOAD SWAP2 POP PUSH1 0x1F NOT PUSH1 0x3F RETURNDATASIZE ADD AND DUP3 ADD PUSH1 0x40 MSTORE RETURNDATASIZE DUP3 MSTORE RETURNDATASIZE PUSH0 PUSH1 0x20 DUP5 ADD RETURNDATACOPY PUSH2 0x3409 JUMP JUMPDEST PUSH1 0x60 SWAP2 POP JUMPDEST POP DUP1 MLOAD PUSH0 SUB PUSH2 0x3436 JUMPI PUSH1 0x40 MLOAD PUSH4 0x32505749 PUSH1 0xE1 SHL DUP2 MSTORE PUSH1 0x1 PUSH1 0x1 PUSH1 0xA0 SHL SUB DUP6 AND PUSH1 0x4 DUP3 ADD MSTORE PUSH1 0x24 ADD PUSH2 0xAE1 JUMP JUMPDEST DUP1 MLOAD PUSH1 0x20 DUP3 ADD REVERT JUMPDEST PUSH1 0x1 PUSH1 0x1 PUSH1 0xE0 SHL SUB NOT DUP2 AND PUSH4 0xA85BD01 PUSH1 0xE1 SHL EQ PUSH2 0x347A JUMPI PUSH1 0x40 MLOAD PUSH4 0x32505749 PUSH1 0xE1 SHL DUP2 MSTORE PUSH1 0x1 PUSH1 0x1 PUSH1 0xA0 SHL SUB DUP6 AND PUSH1 0x4 DUP3 ADD MSTORE PUSH1 0x24 ADD PUSH2 0xAE1 JUMP JUMPDEST POP POP POP POP POP POP JUMP JUMPDEST PUSH1 0x60 PUSH2 0x348D DUP3 PUSH2 0x2F70 JUMP JUMPDEST POP PUSH0 PUSH2 0x34A3 PUSH1 0x40 DUP1 MLOAD PUSH1 0x20 DUP2 ADD SWAP1 SWAP2 MSTORE PUSH0 DUP2 MSTORE SWAP1 JUMP JUMPDEST SWAP1 POP PUSH0 DUP2 MLOAD GT PUSH2 0x34C1 JUMPI PUSH1 0x40 MLOAD DUP1 PUSH1 0x20 ADD PUSH1 0x40 MSTORE DUP1 PUSH0 DUP2 MSTORE POP PUSH2 0x34EC JUMP JUMPDEST DUP1 PUSH2 0x34CB DUP5 PUSH2 0x36CF JUMP JUMPDEST PUSH1 0x40 MLOAD PUSH1 0x20 ADD PUSH2 0x34DC SWAP3 SWAP2 SWAP1 PUSH2 0x4313 JUMP JUMPDEST PUSH1 0x40 MLOAD PUSH1 0x20 DUP2 DUP4 SUB SUB DUP2 MSTORE SWAP1 PUSH1 0x40 MSTORE JUMPDEST SWAP4 SWAP3 POP POP POP JUMP JUMPDEST PUSH0 PUSH1 0x1 PUSH1 0x1 PUSH1 0xE0 SHL SUB NOT DUP3 AND PUSH4 0x24832483 PUSH1 0xE1 SHL EQ DUP1 PUSH2 0x9A2 JUMPI POP PUSH2 0x9A2 DUP3 PUSH2 0x375F JUMP JUMPDEST DUP1 DUP1 PUSH2 0x352B JUMPI POP PUSH1 0x1 PUSH1 0x1 PUSH1 0xA0 SHL SUB DUP3 AND ISZERO ISZERO JUMPDEST ISZERO PUSH2 0x35EC JUMPI PUSH0 PUSH2 0x353A DUP5 PUSH2 0x2F70 JUMP JUMPDEST SWAP1 POP PUSH1 0x1 PUSH1 0x1 PUSH1 0xA0 SHL SUB DUP4 AND ISZERO DUP1 ISZERO SWAP1 PUSH2 0x3566 JUMPI POP DUP3 PUSH1 0x1 PUSH1 0x1 PUSH1 0xA0 SHL SUB AND DUP2 PUSH1 0x1 PUSH1 0x1 PUSH1 0xA0 SHL SUB AND EQ ISZERO JUMPDEST DUP1 ISZERO PUSH2 0x3579 JUMPI POP PUSH2 0x3577 DUP2 DUP5 PUSH2 0x2F1F JUMP JUMPDEST ISZERO JUMPDEST ISZERO PUSH2 0x35A2 JUMPI PUSH1 0x40 MLOAD PUSH4 0xA9FBF51F PUSH1 0xE0 SHL DUP2 MSTORE PUSH1 0x1 PUSH1 0x1 PUSH1 0xA0 SHL SUB DUP5 AND PUSH1 0x4 DUP3 ADD MSTORE PUSH1 0x24 ADD PUSH2 0xAE1 JUMP JUMPDEST DUP2 ISZERO PUSH2 0x35EA JUMPI DUP4 DUP6 PUSH1 0x1 PUSH1 0x1 PUSH1 0xA0 SHL SUB AND DUP3 PUSH1 0x1 PUSH1 0x1 PUSH1 0xA0 SHL SUB AND PUSH32 0x8C5BE1E5EBEC7D5BD14F71427D1E84F3DD0314C0F7B2291E5B200AC8C7C3B925 PUSH1 0x40 MLOAD PUSH1 0x40 MLOAD DUP1 SWAP2 SUB SWAP1 LOG4 JUMPDEST POP JUMPDEST POP POP PUSH0 SWAP1 DUP2 MSTORE PUSH1 0x4 PUSH1 0x20 MSTORE PUSH1 0x40 SWAP1 KECCAK256 DUP1 SLOAD PUSH1 0x1 PUSH1 0x1 PUSH1 0xA0 SHL SUB NOT AND PUSH1 0x1 PUSH1 0x1 PUSH1 0xA0 SHL SUB SWAP3 SWAP1 SWAP3 AND SWAP2 SWAP1 SWAP2 OR SWAP1 SSTORE JUMP JUMPDEST PUSH2 0x3625 DUP3 DUP3 PUSH2 0x2311 JUMP JUMPDEST PUSH2 0xA69 JUMPI PUSH1 0x40 MLOAD PUSH4 0xE2517D3F PUSH1 0xE0 SHL DUP2 MSTORE PUSH1 0x1 PUSH1 0x1 PUSH1 0xA0 SHL SUB DUP3 AND PUSH1 0x4 DUP3 ADD MSTORE PUSH1 0x24 DUP2 ADD DUP4 SWAP1 MSTORE PUSH1 0x44 ADD PUSH2 0xAE1 JUMP JUMPDEST PUSH2 0x365F DUP4 DUP4 DUP4 PUSH2 0x37AE JUMP JUMPDEST PUSH2 0xD2A JUMPI PUSH1 0x1 PUSH1 0x1 PUSH1 0xA0 SHL SUB DUP4 AND PUSH2 0x368D JUMPI PUSH1 0x40 MLOAD PUSH4 0x7E273289 PUSH1 0xE0 SHL DUP2 MSTORE PUSH1 0x4 DUP2 ADD DUP3 SWAP1 MSTORE PUSH1 0x24 ADD PUSH2 0xAE1 JUMP JUMPDEST PUSH1 0x40 MLOAD PUSH4 0x177E802F PUSH1 0xE0 SHL DUP2 MSTORE PUSH1 0x1 PUSH1 0x1 PUSH1 0xA0 SHL SUB DUP4 AND PUSH1 0x4 DUP3 ADD MSTORE PUSH1 0x24 DUP2 ADD DUP3 SWAP1 MSTORE PUSH1 0x44 ADD PUSH2 0xAE1 JUMP JUMPDEST PUSH2 0x36C2 DUP4 DUP4 PUSH2 0x380F JUMP JUMPDEST PUSH2 0xD2A CALLER PUSH0 DUP6 DUP6 DUP6 PUSH2 0x335B JUMP JUMPDEST PUSH1 0x60 PUSH0 PUSH2 0x36DB DUP4 PUSH2 0x3870 JUMP JUMPDEST PUSH1 0x1 ADD SWAP1 POP PUSH0 DUP2 PUSH8 0xFFFFFFFFFFFFFFFF DUP2 GT ISZERO PUSH2 0x36FA JUMPI PUSH2 0x36FA PUSH2 0x3C52 JUMP JUMPDEST PUSH1 0x40 MLOAD SWAP1 DUP1 DUP3 MSTORE DUP1 PUSH1 0x1F ADD PUSH1 0x1F NOT AND PUSH1 0x20 ADD DUP3 ADD PUSH1 0x40 MSTORE DUP1 ISZERO PUSH2 0x3724 JUMPI PUSH1 0x20 DUP3 ADD DUP2 DUP1 CALLDATASIZE DUP4 CALLDATACOPY ADD SWAP1 POP JUMPDEST POP SWAP1 POP DUP2 DUP2 ADD PUSH1 0x20 ADD JUMPDEST PUSH0 NOT ADD PUSH16 0x181899199A1A9B1B9C1CB0B131B232B3 PUSH1 0x81 SHL PUSH1 0xA DUP7 MOD BYTE DUP2 MSTORE8 PUSH1 0xA DUP6 DIV SWAP5 POP DUP5 PUSH2 0x372E JUMPI POP SWAP4 SWAP3 POP POP POP JUMP JUMPDEST PUSH0 PUSH1 0x1 PUSH1 0x1 PUSH1 0xE0 SHL SUB NOT DUP3 AND PUSH4 0x80AC58CD PUSH1 0xE0 SHL EQ DUP1 PUSH2 0x378F JUMPI POP PUSH1 0x1 PUSH1 0x1 PUSH1 0xE0 SHL SUB NOT DUP3 AND PUSH4 0x5B5E139F PUSH1 0xE0 SHL EQ JUMPDEST DUP1 PUSH2 0x9A2 JUMPI POP PUSH4 0x1FFC9A7 PUSH1 0xE0 SHL PUSH1 0x1 PUSH1 0x1 PUSH1 0xE0 SHL SUB NOT DUP4 AND EQ PUSH2 0x9A2 JUMP JUMPDEST PUSH0 PUSH1 0x1 PUSH1 0x1 PUSH1 0xA0 SHL SUB DUP4 AND ISZERO DUP1 ISZERO SWAP1 PUSH2 0x2A86 JUMPI POP DUP3 PUSH1 0x1 PUSH1 0x1 PUSH1 0xA0 SHL SUB AND DUP5 PUSH1 0x1 PUSH1 0x1 PUSH1 0xA0 SHL SUB AND EQ DUP1 PUSH2 0x37E7 JUMPI POP PUSH2 0x37E7 DUP5 DUP5 PUSH2 0x2F1F JUMP JUMPDEST DUP1 PUSH2 0x2A86 JUMPI POP POP PUSH0 SWAP1 DUP2 MSTORE PUSH1 0x4 PUSH1 0x20 MSTORE PUSH1 0x40 SWAP1 KECCAK256 SLOAD PUSH1 0x1 PUSH1 0x1 PUSH1 0xA0 SHL SUB SWAP1 DUP2 AND SWAP2 AND EQ SWAP2 SWAP1 POP JUMP JUMPDEST PUSH1 0x1 PUSH1 0x1 PUSH1 0xA0 SHL SUB DUP3 AND PUSH2 0x3838 JUMPI PUSH1 0x40 MLOAD PUSH4 0x32505749 PUSH1 0xE1 SHL DUP2 MSTORE PUSH0 PUSH1 0x4 DUP3 ADD MSTORE PUSH1 0x24 ADD PUSH2 0xAE1 JUMP JUMPDEST PUSH0 PUSH2 0x3844 DUP4 DUP4 PUSH0 PUSH2 0x2FC2 JUMP JUMPDEST SWAP1 POP PUSH1 0x1 PUSH1 0x1 PUSH1 0xA0 SHL SUB DUP2 AND ISZERO PUSH2 0xD2A JUMPI PUSH1 0x40 MLOAD PUSH4 0x39E35637 PUSH1 0xE1 SHL DUP2 MSTORE PUSH0 PUSH1 0x4 DUP3 ADD MSTORE PUSH1 0x24 ADD PUSH2 0xAE1 JUMP JUMPDEST PUSH0 DUP1 PUSH19 0x184F03E93FF9F4DAA797ED6E38ED64BF6A1F01 PUSH1 0x40 SHL DUP4 LT PUSH2 0x38AE JUMPI PUSH19 0x184F03E93FF9F4DAA797ED6E38ED64BF6A1F01 PUSH1 0x40 SHL DUP4 DIV SWAP3 POP PUSH1 0x40 ADD JUMPDEST PUSH14 0x4EE2D6D415B85ACEF8100000000 DUP4 LT PUSH2 0x38DA JUMPI PUSH14 0x4EE2D6D415B85ACEF8100000000 DUP4 DIV SWAP3 POP PUSH1 0x20 ADD JUMPDEST PUSH7 0x2386F26FC10000 DUP4 LT PUSH2 0x38F8 JUMPI PUSH7 0x2386F26FC10000 DUP4 DIV SWAP3 POP PUSH1 0x10 ADD JUMPDEST PUSH4 0x5F5E100 DUP4 LT PUSH2 0x3910 JUMPI PUSH4 0x5F5E100 DUP4 DIV SWAP3 POP PUSH1 0x8 ADD JUMPDEST PUSH2 0x2710 DUP4 LT PUSH2 0x3924 JUMPI PUSH2 0x2710 DUP4 DIV SWAP3 POP PUSH1 0x4 ADD JUMPDEST PUSH1 0x64 DUP4 LT PUSH2 0x3936 JUMPI PUSH1 0x64 DUP4 DIV SWAP3 POP PUSH1 0x2 ADD JUMPDEST PUSH1 0xA DUP4 LT PUSH2 0x9A2 JUMPI PUSH1 0x1 ADD SWAP3 SWAP2 POP POP JUMP JUMPDEST POP DUP1 SLOAD PUSH2 0x3953 SWAP1 PUSH2 0x3FC3 JUMP JUMPDEST PUSH0 DUP3 SSTORE DUP1 PUSH1 0x1F LT PUSH2 0x3962 JUMPI POP POP JUMP JUMPDEST PUSH1 0x1F ADD PUSH1 0x20 SWAP1 DIV SWAP1 PUSH0 MSTORE PUSH1 0x20 PUSH0 KECCAK256 SWAP1 DUP2 ADD SWAP1 PUSH2 0x2FBF SWAP2 SWAP1 PUSH2 0x3A1A JUMP JUMPDEST DUP3 DUP1 SLOAD DUP3 DUP3 SSTORE SWAP1 PUSH0 MSTORE PUSH1 0x20 PUSH0 KECCAK256 SWAP1 DUP2 ADD SWAP3 DUP3 ISZERO PUSH2 0x39D1 JUMPI SWAP2 PUSH1 0x20 MUL DUP3 ADD JUMPDEST DUP3 DUP2 GT ISZERO PUSH2 0x39D1 JUMPI DUP3 MLOAD DUP3 SLOAD PUSH1 0x1 PUSH1 0x1 PUSH1 0xA0 SHL SUB NOT AND PUSH1 0x1 PUSH1 0x1 PUSH1 0xA0 SHL SUB SWAP1 SWAP2 AND OR DUP3 SSTORE PUSH1 0x20 SWAP1 SWAP3 ADD SWAP2 PUSH1 0x1 SWAP1 SWAP2 ADD SWAP1 PUSH2 0x399C JUMP JUMPDEST POP PUSH2 0x39DD SWAP3 SWAP2 POP PUSH2 0x3A1A JUMP JUMPDEST POP SWAP1 JUMP JUMPDEST DUP3 DUP1 SLOAD DUP3 DUP3 SSTORE SWAP1 PUSH0 MSTORE PUSH1 0x20 PUSH0 KECCAK256 SWAP1 DUP2 ADD SWAP3 DUP3 ISZERO PUSH2 0x39D1 JUMPI SWAP2 PUSH1 0x20 MUL DUP3 ADD JUMPDEST DUP3 DUP2 GT ISZERO PUSH2 0x39D1 JUMPI DUP3 MLOAD DUP3 SSTORE SWAP2 PUSH1 0x20 ADD SWAP2 SWAP1 PUSH1 0x1 ADD SWAP1 PUSH2 0x39FF JUMP JUMPDEST JUMPDEST DUP1 DUP3 GT ISZERO PUSH2 0x39DD JUMPI PUSH0 DUP2 SSTORE PUSH1 0x1 ADD PUSH2 0x3A1B JUMP JUMPDEST PUSH1 0x1 PUSH1 0x1 PUSH1 0xE0 SHL SUB NOT DUP2 AND DUP2 EQ PUSH2 0x2FBF JUMPI PUSH0 DUP1 REVERT JUMPDEST PUSH0 PUSH1 0x20 DUP3 DUP5 SUB SLT ISZERO PUSH2 0x3A53 JUMPI PUSH0 DUP1 REVERT JUMPDEST DUP2 CALLDATALOAD PUSH2 0x34EC DUP2 PUSH2 0x3A2E JUMP JUMPDEST PUSH0 JUMPDEST DUP4 DUP2 LT ISZERO PUSH2 0x3A78 JUMPI DUP2 DUP2 ADD MLOAD DUP4 DUP3 ADD MSTORE PUSH1 0x20 ADD PUSH2 0x3A60 JUMP JUMPDEST POP POP PUSH0 SWAP2 ADD MSTORE JUMP JUMPDEST PUSH0 DUP2 MLOAD DUP1 DUP5 MSTORE PUSH2 0x3A97 DUP2 PUSH1 0x20 DUP7 ADD PUSH1 0x20 DUP7 ADD PUSH2 0x3A5E JUMP JUMPDEST PUSH1 0x1F ADD PUSH1 0x1F NOT AND SWAP3 SWAP1 SWAP3 ADD PUSH1 0x20 ADD SWAP3 SWAP2 POP POP JUMP JUMPDEST PUSH1 0x20 DUP2 MSTORE PUSH0 PUSH2 0x34EC PUSH1 0x20 DUP4 ADD DUP5 PUSH2 0x3A80 JUMP JUMPDEST PUSH0 PUSH1 0x20 DUP3 DUP5 SUB SLT ISZERO PUSH2 0x3ACD JUMPI PUSH0 DUP1 REVERT JUMPDEST POP CALLDATALOAD SWAP2 SWAP1 POP JUMP JUMPDEST DUP1 CALLDATALOAD PUSH1 0x1 PUSH1 0x1 PUSH1 0xA0 SHL SUB DUP2 AND DUP2 EQ PUSH2 0x3AEA JUMPI PUSH0 DUP1 REVERT JUMPDEST SWAP2 SWAP1 POP JUMP JUMPDEST PUSH0 DUP1 PUSH1 0x40 DUP4 DUP6 SUB SLT ISZERO PUSH2 0x3B00 JUMPI PUSH0 DUP1 REVERT JUMPDEST PUSH2 0x3B09 DUP4 PUSH2 0x3AD4 JUMP JUMPDEST SWAP5 PUSH1 0x20 SWAP4 SWAP1 SWAP4 ADD CALLDATALOAD SWAP4 POP POP POP JUMP JUMPDEST PUSH0 DUP1 PUSH0 PUSH1 0x60 DUP5 DUP7 SUB SLT ISZERO PUSH2 0x3B29 JUMPI PUSH0 DUP1 REVERT JUMPDEST PUSH2 0x3B32 DUP5 PUSH2 0x3AD4 JUMP JUMPDEST SWAP3 POP PUSH2 0x3B40 PUSH1 0x20 DUP6 ADD PUSH2 0x3AD4 JUMP JUMPDEST SWAP2 POP PUSH1 0x40 DUP5 ADD CALLDATALOAD SWAP1 POP SWAP3 POP SWAP3 POP SWAP3 JUMP JUMPDEST PUSH0 DUP1 PUSH1 0x40 DUP4 DUP6 SUB SLT ISZERO PUSH2 0x3B61 JUMPI PUSH0 DUP1 REVERT JUMPDEST DUP3 CALLDATALOAD SWAP2 POP PUSH2 0x3B71 PUSH1 0x20 DUP5 ADD PUSH2 0x3AD4 JUMP JUMPDEST SWAP1 POP SWAP3 POP SWAP3 SWAP1 POP JUMP JUMPDEST PUSH4 0x4E487B71 PUSH1 0xE0 SHL PUSH0 MSTORE PUSH1 0x21 PUSH1 0x4 MSTORE PUSH1 0x24 PUSH0 REVERT JUMPDEST DUP9 DUP2 MSTORE PUSH2 0x100 DUP2 ADD PUSH1 0x7 DUP10 LT PUSH2 0x3BB2 JUMPI PUSH4 0x4E487B71 PUSH1 0xE0 SHL PUSH0 MSTORE PUSH1 0x21 PUSH1 0x4 MSTORE PUSH1 0x24 PUSH0 REVERT JUMPDEST PUSH1 0x20 DUP3 ADD SWAP9 SWAP1 SWAP9 MSTORE PUSH1 0x1 PUSH1 0x1 PUSH1 0xA0 SHL SUB SWAP7 DUP8 AND PUSH1 0x40 DUP3 ADD MSTORE SWAP5 SWAP1 SWAP6 AND PUSH1 0x60 DUP6 ADD MSTORE SWAP2 ISZERO ISZERO PUSH1 0x80 DUP5 ADD MSTORE ISZERO ISZERO PUSH1 0xA0 DUP4 ADD MSTORE PUSH1 0xC0 DUP3 ADD MSTORE SWAP1 ISZERO ISZERO PUSH1 0xE0 SWAP1 SWAP2 ADD MSTORE SWAP2 SWAP1 POP JUMP JUMPDEST PUSH1 0x1 PUSH1 0x1 PUSH1 0xA0 SHL SUB DUP6 AND DUP2 MSTORE PUSH1 0x80 PUSH1 0x20 DUP3 ADD DUP2 SWAP1 MSTORE PUSH0 SWAP1 PUSH2 0x3C18 SWAP1 DUP4 ADD DUP7 PUSH2 0x3A80 JUMP JUMPDEST PUSH1 0x40 DUP4 ADD SWAP5 SWAP1 SWAP5 MSTORE POP SWAP1 ISZERO ISZERO PUSH1 0x60 SWAP1 SWAP2 ADD MSTORE SWAP3 SWAP2 POP POP JUMP JUMPDEST PUSH0 DUP1 PUSH0 PUSH1 0x60 DUP5 DUP7 SUB SLT ISZERO PUSH2 0x3C42 JUMPI PUSH0 DUP1 REVERT JUMPDEST DUP4 CALLDATALOAD SWAP3 POP PUSH2 0x3B40 PUSH1 0x20 DUP6 ADD PUSH2 0x3AD4 JUMP JUMPDEST PUSH4 0x4E487B71 PUSH1 0xE0 SHL PUSH0 MSTORE PUSH1 0x41 PUSH1 0x4 MSTORE PUSH1 0x24 PUSH0 REVERT JUMPDEST PUSH0 PUSH8 0xFFFFFFFFFFFFFFFF DUP1 DUP5 GT ISZERO PUSH2 0x3C80 JUMPI PUSH2 0x3C80 PUSH2 0x3C52 JUMP JUMPDEST PUSH1 0x40 MLOAD PUSH1 0x1F DUP6 ADD PUSH1 0x1F NOT SWAP1 DUP2 AND PUSH1 0x3F ADD AND DUP2 ADD SWAP1 DUP3 DUP3 GT DUP2 DUP4 LT OR ISZERO PUSH2 0x3CA8 JUMPI PUSH2 0x3CA8 PUSH2 0x3C52 JUMP JUMPDEST DUP2 PUSH1 0x40 MSTORE DUP1 SWAP4 POP DUP6 DUP2 MSTORE DUP7 DUP7 DUP7 ADD GT ISZERO PUSH2 0x3CC0 JUMPI PUSH0 DUP1 REVERT JUMPDEST DUP6 DUP6 PUSH1 0x20 DUP4 ADD CALLDATACOPY PUSH0 PUSH1 0x20 DUP8 DUP4 ADD ADD MSTORE POP POP POP SWAP4 SWAP3 POP POP POP JUMP JUMPDEST PUSH0 DUP1 PUSH1 0x40 DUP4 DUP6 SUB SLT ISZERO PUSH2 0x3CEA JUMPI PUSH0 DUP1 REVERT JUMPDEST DUP3 CALLDATALOAD PUSH8 0xFFFFFFFFFFFFFFFF DUP2 GT ISZERO PUSH2 0x3D00 JUMPI PUSH0 DUP1 REVERT JUMPDEST DUP4 ADD PUSH1 0x1F DUP2 ADD DUP6 SGT PUSH2 0x3D10 JUMPI PUSH0 DUP1 REVERT JUMPDEST PUSH2 0x3D1F DUP6 DUP3 CALLDATALOAD PUSH1 0x20 DUP5 ADD PUSH2 0x3C66 JUMP JUMPDEST SWAP6 PUSH1 0x20 SWAP5 SWAP1 SWAP5 ADD CALLDATALOAD SWAP5 POP POP POP POP JUMP JUMPDEST PUSH1 0x40 DUP2 MSTORE PUSH0 PUSH2 0x3D40 PUSH1 0x40 DUP4 ADD DUP6 PUSH2 0x3A80 JUMP JUMPDEST DUP3 DUP2 SUB PUSH1 0x20 DUP5 ADD MSTORE PUSH2 0x3D52 DUP2 DUP6 PUSH2 0x3A80 JUMP JUMPDEST SWAP6 SWAP5 POP POP POP POP POP JUMP JUMPDEST PUSH0 DUP1 DUP4 PUSH1 0x1F DUP5 ADD SLT PUSH2 0x3D6B JUMPI PUSH0 DUP1 REVERT JUMPDEST POP DUP2 CALLDATALOAD PUSH8 0xFFFFFFFFFFFFFFFF DUP2 GT ISZERO PUSH2 0x3D82 JUMPI PUSH0 DUP1 REVERT JUMPDEST PUSH1 0x20 DUP4 ADD SWAP2 POP DUP4 PUSH1 0x20 DUP3 DUP6 ADD ADD GT ISZERO PUSH2 0x3D99 JUMPI PUSH0 DUP1 REVERT JUMPDEST SWAP3 POP SWAP3 SWAP1 POP JUMP JUMPDEST PUSH0 DUP1 PUSH0 DUP1 PUSH0 PUSH1 0x60 DUP7 DUP9 SUB SLT ISZERO PUSH2 0x3DB4 JUMPI PUSH0 DUP1 REVERT JUMPDEST DUP6 CALLDATALOAD SWAP5 POP PUSH1 0x20 DUP7 ADD CALLDATALOAD PUSH8 0xFFFFFFFFFFFFFFFF DUP1 DUP3 GT ISZERO PUSH2 0x3DD2 JUMPI PUSH0 DUP1 REVERT JUMPDEST PUSH2 0x3DDE DUP10 DUP4 DUP11 ADD PUSH2 0x3D5B JUMP JUMPDEST SWAP1 SWAP7 POP SWAP5 POP PUSH1 0x40 DUP9 ADD CALLDATALOAD SWAP2 POP DUP1 DUP3 GT ISZERO PUSH2 0x3DF6 JUMPI PUSH0 DUP1 REVERT JUMPDEST POP PUSH2 0x3E03 DUP9 DUP3 DUP10 ADD PUSH2 0x3D5B JUMP JUMPDEST SWAP7 SWAP10 SWAP6 SWAP9 POP SWAP4 SWAP7 POP SWAP3 SWAP5 SWAP4 SWAP3 POP POP POP JUMP JUMPDEST PUSH0 PUSH1 0x20 DUP3 DUP5 SUB SLT ISZERO PUSH2 0x3E24 JUMPI PUSH0 DUP1 REVERT JUMPDEST PUSH2 0x34EC DUP3 PUSH2 0x3AD4 JUMP JUMPDEST DUP1 CALLDATALOAD DUP1 ISZERO ISZERO DUP2 EQ PUSH2 0x3AEA JUMPI PUSH0 DUP1 REVERT JUMPDEST PUSH0 PUSH1 0x20 DUP3 DUP5 SUB SLT ISZERO PUSH2 0x3E4C JUMPI PUSH0 DUP1 REVERT JUMPDEST PUSH2 0x34EC DUP3 PUSH2 0x3E2D JUMP JUMPDEST PUSH0 DUP1 PUSH1 0x40 DUP4 DUP6 SUB SLT ISZERO PUSH2 0x3E66 JUMPI PUSH0 DUP1 REVERT JUMPDEST PUSH2 0x3E6F DUP4 PUSH2 0x3AD4 JUMP JUMPDEST SWAP2 POP PUSH2 0x3B71 PUSH1 0x20 DUP5 ADD PUSH2 0x3E2D JUMP JUMPDEST PUSH0 DUP2 MLOAD DUP1 DUP5 MSTORE PUSH1 0x20 DUP1 DUP6 ADD SWAP5 POP DUP1 DUP5 ADD PUSH0 JUMPDEST DUP4 DUP2 LT ISZERO PUSH2 0x3EB4 JUMPI DUP2 MLOAD PUSH1 0x1 PUSH1 0x1 PUSH1 0xA0 SHL SUB AND DUP8 MSTORE SWAP6 DUP3 ADD SWAP6 SWAP1 DUP3 ADD SWAP1 PUSH1 0x1 ADD PUSH2 0x3E8F JUMP JUMPDEST POP SWAP5 SWAP6 SWAP5 POP POP POP POP POP JUMP JUMPDEST PUSH0 DUP2 MLOAD DUP1 DUP5 MSTORE PUSH1 0x20 DUP1 DUP6 ADD SWAP5 POP DUP1 DUP5 ADD PUSH0 JUMPDEST DUP4 DUP2 LT ISZERO PUSH2 0x3EB4 JUMPI DUP2 MLOAD DUP8 MSTORE SWAP6 DUP3 ADD SWAP6 SWAP1 DUP3 ADD SWAP1 PUSH1 0x1 ADD PUSH2 0x3ED1 JUMP JUMPDEST PUSH1 0x60 DUP2 MSTORE PUSH0 PUSH2 0x3EFF PUSH1 0x60 DUP4 ADD DUP7 PUSH2 0x3E7D JUMP JUMPDEST DUP3 DUP2 SUB PUSH1 0x20 DUP5 ADD MSTORE PUSH2 0x3F11 DUP2 DUP7 PUSH2 0x3EBF JUMP JUMPDEST SWAP2 POP POP DUP3 ISZERO ISZERO PUSH1 0x40 DUP4 ADD MSTORE SWAP5 SWAP4 POP POP POP POP JUMP JUMPDEST PUSH0 DUP1 PUSH0 DUP1 PUSH1 0x80 DUP6 DUP8 SUB SLT ISZERO PUSH2 0x3F37 JUMPI PUSH0 DUP1 REVERT JUMPDEST PUSH2 0x3F40 DUP6 PUSH2 0x3AD4 JUMP JUMPDEST SWAP4 POP PUSH2 0x3F4E PUSH1 0x20 DUP7 ADD PUSH2 0x3AD4 JUMP JUMPDEST SWAP3 POP PUSH1 0x40 DUP6 ADD CALLDATALOAD SWAP2 POP PUSH1 0x60 DUP6 ADD CALLDATALOAD PUSH8 0xFFFFFFFFFFFFFFFF DUP2 GT ISZERO PUSH2 0x3F70 JUMPI PUSH0 DUP1 REVERT JUMPDEST DUP6 ADD PUSH1 0x1F DUP2 ADD DUP8 SGT PUSH2 0x3F80 JUMPI PUSH0 DUP1 REVERT JUMPDEST PUSH2 0x3F8F DUP8 DUP3 CALLDATALOAD PUSH1 0x20 DUP5 ADD PUSH2 0x3C66 JUMP JUMPDEST SWAP2 POP POP SWAP3 SWAP6 SWAP2 SWAP5 POP SWAP3 POP JUMP JUMPDEST PUSH0 DUP1 PUSH1 0x40 DUP4 DUP6 SUB SLT ISZERO PUSH2 0x3FAC JUMPI PUSH0 DUP1 REVERT JUMPDEST PUSH2 0x3FB5 DUP4 PUSH2 0x3AD4 JUMP JUMPDEST SWAP2 POP PUSH2 0x3B71 PUSH1 0x20 DUP5 ADD PUSH2 0x3AD4 JUMP JUMPDEST PUSH1 0x1 DUP2 DUP2 SHR SWAP1 DUP3 AND DUP1 PUSH2 0x3FD7 JUMPI PUSH1 0x7F DUP3 AND SWAP2 POP JUMPDEST PUSH1 0x20 DUP3 LT DUP2 SUB PUSH2 0x3FF5 JUMPI PUSH4 0x4E487B71 PUSH1 0xE0 SHL PUSH0 MSTORE PUSH1 0x22 PUSH1 0x4 MSTORE PUSH1 0x24 PUSH0 REVERT JUMPDEST POP SWAP2 SWAP1 POP JUMP JUMPDEST PUSH1 0x20 DUP1 DUP3 MSTORE DUP2 DUP2 ADD MSTORE PUSH32 0x4C616E6452656769737472793A2070726F70657274792069732066726F7A656E PUSH1 0x40 DUP3 ADD MSTORE PUSH1 0x60 ADD SWAP1 JUMP JUMPDEST PUSH4 0x4E487B71 PUSH1 0xE0 SHL PUSH0 MSTORE PUSH1 0x11 PUSH1 0x4 MSTORE PUSH1 0x24 PUSH0 REVERT JUMPDEST DUP1 DUP3 MUL DUP2 ISZERO DUP3 DUP3 DIV DUP5 EQ OR PUSH2 0x9A2 JUMPI PUSH2 0x9A2 PUSH2 0x4030 JUMP JUMPDEST DUP1 DUP3 ADD DUP1 DUP3 GT ISZERO PUSH2 0x9A2 JUMPI PUSH2 0x9A2 PUSH2 0x4030 JUMP JUMPDEST PUSH0 PUSH1 0x1 DUP3 ADD PUSH2 0x407F JUMPI PUSH2 0x407F PUSH2 0x4030 JUMP JUMPDEST POP PUSH1 0x1 ADD SWAP1 JUMP JUMPDEST PUSH1 0x1F DUP3 GT ISZERO PUSH2 0xD2A JUMPI PUSH0 DUP2 DUP2 MSTORE PUSH1 0x20 DUP2 KECCAK256 PUSH1 0x1F DUP6 ADD PUSH1 0x5 SHR DUP2 ADD PUSH1 0x20 DUP7 LT ISZERO PUSH2 0x40AC JUMPI POP DUP1 JUMPDEST PUSH1 0x1F DUP6 ADD PUSH1 0x5 SHR DUP3 ADD SWAP2 POP JUMPDEST DUP2 DUP2 LT ISZERO PUSH2 0x347A JUMPI DUP3 DUP2 SSTORE PUSH1 0x1 ADD PUSH2 0x40B8 JUMP JUMPDEST DUP2 MLOAD PUSH8 0xFFFFFFFFFFFFFFFF DUP2 GT ISZERO PUSH2 0x40E5 JUMPI PUSH2 0x40E5 PUSH2 0x3C52 JUMP JUMPDEST PUSH2 0x40F9 DUP2 PUSH2 0x40F3 DUP5 SLOAD PUSH2 0x3FC3 JUMP JUMPDEST DUP5 PUSH2 0x4086 JUMP JUMPDEST PUSH1 0x20 DUP1 PUSH1 0x1F DUP4 GT PUSH1 0x1 DUP2 EQ PUSH2 0x412C JUMPI PUSH0 DUP5 ISZERO PUSH2 0x4115 JUMPI POP DUP6 DUP4 ADD MLOAD JUMPDEST PUSH0 NOT PUSH1 0x3 DUP7 SWAP1 SHL SHR NOT AND PUSH1 0x1 DUP6 SWAP1 SHL OR DUP6 SSTORE PUSH2 0x347A JUMP JUMPDEST PUSH0 DUP6 DUP2 MSTORE PUSH1 0x20 DUP2 KECCAK256 PUSH1 0x1F NOT DUP7 AND SWAP2 JUMPDEST DUP3 DUP2 LT ISZERO PUSH2 0x415A JUMPI DUP9 DUP7 ADD MLOAD DUP3 SSTORE SWAP5 DUP5 ADD SWAP5 PUSH1 0x1 SWAP1 SWAP2 ADD SWAP1 DUP5 ADD PUSH2 0x413B JUMP JUMPDEST POP DUP6 DUP3 LT ISZERO PUSH2 0x4177 JUMPI DUP8 DUP6 ADD MLOAD PUSH0 NOT PUSH1 0x3 DUP9 SWAP1 SHL PUSH1 0xF8 AND SHR NOT AND DUP2 SSTORE JUMPDEST POP POP POP POP POP PUSH1 0x1 SWAP1 DUP2 SHL ADD SWAP1 SSTORE POP JUMP JUMPDEST DUP3 DUP2 MSTORE PUSH1 0x40 PUSH1 0x20 DUP3 ADD MSTORE PUSH0 PUSH2 0x2A86 PUSH1 0x40 DUP4 ADD DUP5 PUSH2 0x3A80 JUMP JUMPDEST PUSH1 0x20 DUP1 DUP3 MSTORE PUSH1 0x19 SWAP1 DUP3 ADD MSTORE PUSH32 0x4C616E6452656769737472793A206F6E6C792073656C6C657200000000000000 PUSH1 0x40 DUP3 ADD MSTORE PUSH1 0x60 ADD SWAP1 JUMP JUMPDEST DUP2 DUP4 MSTORE DUP2 DUP2 PUSH1 0x20 DUP6 ADD CALLDATACOPY POP PUSH0 DUP3 DUP3 ADD PUSH1 0x20 SWAP1 DUP2 ADD SWAP2 SWAP1 SWAP2 MSTORE PUSH1 0x1F SWAP1 SWAP2 ADD PUSH1 0x1F NOT AND SWAP1 SWAP2 ADD ADD SWAP1 JUMP JUMPDEST PUSH1 0x40 DUP2 MSTORE PUSH0 PUSH2 0x4211 PUSH1 0x40 DUP4 ADD DUP7 DUP9 PUSH2 0x41D6 JUMP JUMPDEST DUP3 DUP2 SUB PUSH1 0x20 DUP5 ADD MSTORE PUSH2 0x4224 DUP2 DUP6 DUP8 PUSH2 0x41D6 JUMP JUMPDEST SWAP8 SWAP7 POP POP POP POP POP POP POP JUMP JUMPDEST PUSH4 0x4E487B71 PUSH1 0xE0 SHL PUSH0 MSTORE PUSH1 0x32 PUSH1 0x4 MSTORE PUSH1 0x24 PUSH0 REVERT JUMPDEST PUSH0 DUP3 PUSH2 0x425D JUMPI PUSH4 0x4E487B71 PUSH1 0xE0 SHL PUSH0 MSTORE PUSH1 0x12 PUSH1 0x4 MSTORE PUSH1 0x24 PUSH0 REVERT JUMPDEST POP DIV SWAP1 JUMP JUMPDEST PUSH1 0x40 DUP2 MSTORE PUSH0 PUSH2 0x4274 PUSH1 0x40 DUP4 ADD DUP6 PUSH2 0x3E7D JUMP JUMPDEST DUP3 DUP2 SUB PUSH1 0x20 DUP5 ADD MSTORE PUSH2 0x3D52 DUP2 DUP6 PUSH2 0x3EBF JUMP JUMPDEST DUP3 DUP2 MSTORE PUSH0 PUSH1 0x20 PUSH1 0x40 DUP2 DUP5 ADD MSTORE PUSH0 DUP5 SLOAD PUSH2 0x429E DUP2 PUSH2 0x3FC3 JUMP JUMPDEST DUP1 PUSH1 0x40 DUP8 ADD MSTORE PUSH1 0x60 PUSH1 0x1 DUP1 DUP5 AND PUSH0 DUP2 EQ PUSH2 0x42BF JUMPI PUSH1 0x1 DUP2 EQ PUSH2 0x42D9 JUMPI PUSH2 0x4304 JUMP JUMPDEST PUSH1 0xFF NOT DUP6 AND DUP10 DUP5 ADD MSTORE DUP4 ISZERO ISZERO PUSH1 0x5 SHL DUP10 ADD DUP4 ADD SWAP6 POP PUSH2 0x4304 JUMP JUMPDEST DUP10 PUSH0 MSTORE DUP7 PUSH0 KECCAK256 PUSH0 JUMPDEST DUP6 DUP2 LT ISZERO PUSH2 0x42FC JUMPI DUP2 SLOAD DUP12 DUP3 ADD DUP7 ADD MSTORE SWAP1 DUP4 ADD SWAP1 DUP9 ADD PUSH2 0x42E1 JUMP JUMPDEST DUP11 ADD DUP5 ADD SWAP7 POP POP JUMPDEST POP SWAP4 SWAP10 SWAP9 POP POP POP POP POP POP POP POP POP JUMP JUMPDEST PUSH0 DUP4 MLOAD PUSH2 0x4324 DUP2 DUP5 PUSH1 0x20 DUP9 ADD PUSH2 0x3A5E JUMP JUMPDEST DUP4 MLOAD SWAP1 DUP4 ADD SWAP1 PUSH2 0x4338 DUP2 DUP4 PUSH1 0x20 DUP9 ADD PUSH2 0x3A5E JUMP JUMPDEST ADD SWAP5 SWAP4 POP POP POP POP JUMP JUMPDEST PUSH1 0x1 PUSH1 0x1 PUSH1 0xA0 SHL SUB DUP6 DUP2 AND DUP3 MSTORE DUP5 AND PUSH1 0x20 DUP3 ADD MSTORE PUSH1 0x40 DUP2 ADD DUP4 SWAP1 MSTORE PUSH1 0x80 PUSH1 0x60 DUP3 ADD DUP2 SWAP1 MSTORE PUSH0 SWAP1 PUSH2 0x4373 SWAP1 DUP4 ADD DUP5 PUSH2 0x3A80 JUMP JUMPDEST SWAP7 SWAP6 POP POP POP POP POP POP JUMP JUMPDEST PUSH0 PUSH1 0x20 DUP3 DUP5 SUB SLT ISZERO PUSH2 0x438D JUMPI PUSH0 DUP1 REVERT JUMPDEST DUP2 MLOAD PUSH2 0x34EC DUP2 PUSH2 0x3A2E JUMP INVALID 0xED 0xCC ADDMOD 0x4D RETURNDATASIZE 0xCD PUSH6 0xA1F7F23C65C4 PUSH8 0x22FACA6953D28E43 ISZERO EXP CHAINID PUSH29 0xF43E5C309238A264697066735822122062688E58A664D6006943E1E165 SGT 0x2E PUSH19 0x70669F46835C1B0B94A4E56E73135A4364736F PUSH13 0x63430008140033000000000000 "},"methodIdentifiers":{"DEFAULT_ADMIN_ROLE()":"a217fddf","REGISTRAR_ROLE()":"f68e9553","TENANT_ROLE()":"9875ea2b","approve(address,uint256)":"095ea7b3","approveAndMint(uint256)":"8e1e8732","approveLease(uint256)":"682e0101","balanceOf(address)":"70a08231","confirmFunds(uint256)":"513311d7","createPartnership(uint256,address)":"82a61bf6","depositFunds(uint256)":"3b76594d","disputes(uint256)":"564a565d","finalizeTransfer(uint256)":"9de1322e","freezeProperty(uint256,string,string)":"5ad2d6e5","getApproved(uint256)":"081812fc","getLease(uint256)":"9f44657c","getPartnership(uint256)":"aa0ef46a","getProperty(uint256)":"32665ffb","getRoleAdmin(bytes32)":"248a9ca3","grantRole(bytes32,address)":"2f2ff15d","hasRole(bytes32,address)":"91d14854","initiateLease(uint256,address,uint256)":"47b257ed","isApprovedForAll(address,address)":"e985e9c5","isDemoMode()":"69765558","leases(uint256)":"8927a106","mintRequests(uint256)":"424e6575","name()":"06fdde03","nextRequestId()":"6a84a985","ownerOf(uint256)":"6352211e","partnerApprovals(uint256,address)":"a53887f2","partnerships(uint256)":"44f018eb","properties(uint256)":"f7b10808","recordTrust(uint256,address)":"dde5e16a","renounceRole(bytes32,address)":"36568abe","requestMint(string,uint256)":"4a406288","revokeRole(bytes32,address)":"d547741f","safeTransferFrom(address,address,uint256)":"42842e0e","safeTransferFrom(address,address,uint256,bytes)":"b88d4fde","setApprovalForAll(address,bool)":"a22cb465","setDemoMode(bool)":"7edadd54","supportsInterface(bytes4)":"01ffc9a7","symbol()":"95d89b41","tokenURI(uint256)":"c87b56dd","totalProperties()":"0b3bce20","transferFrom(address,address,uint256)":"23b872dd","unfreezeProperty(uint256)":"1d99d83f"}}}}}