{
  "_format": "hh-sol-artifact-1",
  "contractName": "LandRegistry",
  "sourceName": "contracts/LandRegistry.sol",
  "abi": [
    {
      "inputs": [],
      "stateMutability": "nonpayable",
      "type": "constructor"
    },
    {
      "inputs": [
        {
          "internalType": "address",
          "name": "sender",
          "type": "address"
        },
        {
          "internalType": "uint256",
          "name": "tokenId",
          "type": "uint256"
        },
        {
          "internalType": "address",
          "name": "owner",
          "type": "address"
        }
      ],
      "name": "ERC721IncorrectOwner",
      "type": "error"
    },
    {
      "inputs": [
        {
          "internalType": "address",
          "name": "operator",
          "type": "address"
        },
        {
          "internalType": "uint256",
          "name": "tokenId",
          "type": "uint256"
        }
      ],
      "name": "ERC721InsufficientApproval",
      "type": "error"
    },
    {
      "inputs": [
        {
          "internalType": "address",
          "name": "approver",
          "type": "address"
        }
      ],
      "name": "ERC721InvalidApprover",
      "type": "error"
    },
    {
      "inputs": [
        {
          "internalType": "address",
          "name": "operator",
          "type": "address"
        }
      ],
      "name": "ERC721InvalidOperator",
      "type": "error"
    },
    {
      "inputs": [
        {
          "internalType": "address",
          "name": "owner",
          "type": "address"
        }
      ],
      "name": "ERC721InvalidOwner",
      "type": "error"
    },
    {
      "inputs": [
        {
          "internalType": "address",
          "name": "receiver",
          "type": "address"
        }
      ],
      "name": "ERC721InvalidReceiver",
      "type": "error"
    },
    {
      "inputs": [
        {
          "internalType": "address",
          "name": "sender",
          "type": "address"
        }
      ],
      "name": "ERC721InvalidSender",
      "type": "error"
    },
    {
      "inputs": [
        {
          "internalType": "uint256",
          "name": "tokenId",
          "type": "uint256"
        }
      ],
      "name": "ERC721NonexistentToken",
      "type": "error"
    },
    {
      "inputs": [
        {
          "internalType": "address",
          "name": "owner",
          "type": "address"
        }
      ],
      "name": "OwnableInvalidOwner",
      "type": "error"
    },
    {
      "inputs": [
        {
          "internalType": "address",
          "name": "account",
          "type": "address"
        }
      ],
      "name": "OwnableUnauthorizedAccount",
      "type": "error"
    },
    {
      "anonymous": false,
      "inputs": [
        {
          "indexed": true,
          "internalType": "address",
          "name": "owner",
          "type": "address"
        },
        {
          "indexed": true,
          "internalType": "address",
          "name": "approved",
          "type": "address"
        },
        {
          "indexed": true,
          "internalType": "uint256",
          "name": "tokenId",
          "type": "uint256"
        }
      ],
      "name": "Approval",
      "type": "event"
    },
    {
      "anonymous": false,
      "inputs": [
        {
          "indexed": true,
          "internalType": "address",
          "name": "owner",
          "type": "address"
        },
        {
          "indexed": true,
          "internalType": "address",
          "name": "operator",
          "type": "address"
        },
        {
          "indexed": false,
          "internalType": "bool",
          "name": "approved",
          "type": "bool"
        }
      ],
      "name": "ApprovalForAll",
      "type": "event"
    },
    {
      "anonymous": false,
      "inputs": [
        {
          "indexed": true,
          "internalType": "address",
          "name": "previousOwner",
          "type": "address"
        },
        {
          "indexed": true,
          "internalType": "address",
          "name": "newOwner",
          "type": "address"
        }
      ],
      "name": "OwnershipTransferred",
      "type": "event"
    },
    {
      "anonymous": false,
      "inputs": [
        {
          "indexed": true,
          "internalType": "address",
          "name": "from",
          "type": "address"
        },
        {
          "indexed": true,
          "internalType": "address",
          "name": "to",
          "type": "address"
        },
        {
          "indexed": true,
          "internalType": "uint256",
          "name": "tokenId",
          "type": "uint256"
        }
      ],
      "name": "Transfer",
      "type": "event"
    },
    {
      "inputs": [
        {
          "internalType": "address",
          "name": "to",
          "type": "address"
        },
        {
          "internalType": "uint256",
          "name": "tokenId",
          "type": "uint256"
        }
      ],
      "name": "approve",
      "outputs": [],
      "stateMutability": "nonpayable",
      "type": "function"
    },
    {
      "inputs": [
        {
          "internalType": "uint256",
          "name": "_id",
          "type": "uint256"
        }
      ],
      "name": "approveTransfer",
      "outputs": [],
      "stateMutability": "nonpayable",
      "type": "function"
    },
    {
      "inputs": [
        {
          "internalType": "address",
          "name": "owner",
          "type": "address"
        }
      ],
      "name": "balanceOf",
      "outputs": [
        {
          "internalType": "uint256",
          "name": "",
          "type": "uint256"
        }
      ],
      "stateMutability": "view",
      "type": "function"
    },
    {
      "inputs": [
        {
          "internalType": "uint256",
          "name": "tokenId",
          "type": "uint256"
        }
      ],
      "name": "getApproved",
      "outputs": [
        {
          "internalType": "address",
          "name": "",
          "type": "address"
        }
      ],
      "stateMutability": "view",
      "type": "function"
    },
    {
      "inputs": [
        {
          "internalType": "uint256",
          "name": "_id",
          "type": "uint256"
        }
      ],
      "name": "initiatePurchase",
      "outputs": [],
      "stateMutability": "payable",
      "type": "function"
    },
    {
      "inputs": [
        {
          "internalType": "address",
          "name": "owner",
          "type": "address"
        },
        {
          "internalType": "address",
          "name": "operator",
          "type": "address"
        }
      ],
      "name": "isApprovedForAll",
      "outputs": [
        {
          "internalType": "bool",
          "name": "",
          "type": "bool"
        }
      ],
      "stateMutability": "view",
      "type": "function"
    },
    {
      "inputs": [
        {
          "internalType": "uint256",
          "name": "_id",
          "type": "uint256"
        },
        {
          "internalType": "uint256",
          "name": "_price",
          "type": "uint256"
        }
      ],
      "name": "listProperty",
      "outputs": [],
      "stateMutability": "nonpayable",
      "type": "function"
    },
    {
      "inputs": [
        {
          "internalType": "address",
          "name": "_to",
          "type": "address"
        },
        {
          "internalType": "uint256",
          "name": "_id",
          "type": "uint256"
        },
        {
          "internalType": "string",
          "name": "_uri",
          "type": "string"
        }
      ],
      "name": "mintProperty",
      "outputs": [],
      "stateMutability": "nonpayable",
      "type": "function"
    },
    {
      "inputs": [],
      "name": "name",
      "outputs": [
        {
          "internalType": "string",
          "name": "",
          "type": "string"
        }
      ],
      "stateMutability": "view",
      "type": "function"
    },
    {
      "inputs": [],
      "name": "owner",
      "outputs": [
        {
          "internalType": "address",
          "name": "",
          "type": "address"
        }
      ],
      "stateMutability": "view",
      "type": "function"
    },
    {
      "inputs": [
        {
          "internalType": "uint256",
          "name": "tokenId",
          "type": "uint256"
        }
      ],
      "name": "ownerOf",
      "outputs": [
        {
          "internalType": "address",
          "name": "",
          "type": "address"
        }
      ],
      "stateMutability": "view",
      "type": "function"
    },
    {
      "inputs": [
        {
          "internalType": "uint256",
          "name": "",
          "type": "uint256"
        }
      ],
      "name": "pendingBuyers",
      "outputs": [
        {
          "internalType": "address",
          "name": "",
          "type": "address"
        }
      ],
      "stateMutability": "view",
      "type": "function"
    },
    {
      "inputs": [
        {
          "internalType": "uint256",
          "name": "",
          "type": "uint256"
        }
      ],
      "name": "properties",
      "outputs": [
        {
          "internalType": "uint256",
          "name": "price",
          "type": "uint256"
        },
        {
          "internalType": "address",
          "name": "currentOwner",
          "type": "address"
        },
        {
          "internalType": "bool",
          "name": "isForSale",
          "type": "bool"
        },
        {
          "internalType": "bool",
          "name": "isFrozen",
          "type": "bool"
        },
        {
          "internalType": "string",
          "name": "ipfsMetadata",
          "type": "string"
        }
      ],
      "stateMutability": "view",
      "type": "function"
    },
    {
      "inputs": [],
      "name": "renounceOwnership",
      "outputs": [],
      "stateMutability": "nonpayable",
      "type": "function"
    },
    {
      "inputs": [
        {
          "internalType": "address",
          "name": "from",
          "type": "address"
        },
        {
          "internalType": "address",
          "name": "to",
          "type": "address"
        },
        {
          "internalType": "uint256",
          "name": "tokenId",
          "type": "uint256"
        }
      ],
      "name": "safeTransferFrom",
      "outputs": [],
      "stateMutability": "nonpayable",
      "type": "function"
    },
    {
      "inputs": [
        {
          "internalType": "address",
          "name": "from",
          "type": "address"
        },
        {
          "internalType": "address",
          "name": "to",
          "type": "address"
        },
        {
          "internalType": "uint256",
          "name": "tokenId",
          "type": "uint256"
        },
        {
          "internalType": "bytes",
          "name": "data",
          "type": "bytes"
        }
      ],
      "name": "safeTransferFrom",
      "outputs": [],
      "stateMutability": "nonpayable",
      "type": "function"
    },
    {
      "inputs": [
        {
          "internalType": "address",
          "name": "operator",
          "type": "address"
        },
        {
          "internalType": "bool",
          "name": "approved",
          "type": "bool"
        }
      ],
      "name": "setApprovalForAll",
      "outputs": [],
      "stateMutability": "nonpayable",
      "type": "function"
    },
    {
      "inputs": [
        {
          "internalType": "bytes4",
          "name": "interfaceId",
          "type": "bytes4"
        }
      ],
      "name": "supportsInterface",
      "outputs": [
        {
          "internalType": "bool",
          "name": "",
          "type": "bool"
        }
      ],
      "stateMutability": "view",
      "type": "function"
    },
    {
      "inputs": [],
      "name": "symbol",
      "outputs": [
        {
          "internalType": "string",
          "name": "",
          "type": "string"
        }
      ],
      "stateMutability": "view",
      "type": "function"
    },
    {
      "inputs": [
        {
          "internalType": "uint256",
          "name": "_id",
          "type": "uint256"
        }
      ],
      "name": "toggleFreeze",
      "outputs": [],
      "stateMutability": "nonpayable",
      "type": "function"
    },
    {
      "inputs": [
        {
          "internalType": "uint256",
          "name": "tokenId",
          "type": "uint256"
        }
      ],
      "name": "tokenURI",
      "outputs": [
        {
          "internalType": "string",
          "name": "",
          "type": "string"
        }
      ],
      "stateMutability": "view",
      "type": "function"
    },
    {
      "inputs": [
        {
          "internalType": "address",
          "name": "from",
          "type": "address"
        },
        {
          "internalType": "address",
          "name": "to",
          "type": "address"
        },
        {
          "internalType": "uint256",
          "name": "tokenId",
          "type": "uint256"
        }
      ],
      "name": "transferFrom",
      "outputs": [],
      "stateMutability": "nonpayable",
      "type": "function"
    },
    {
      "inputs": [
        {
          "internalType": "address",
          "name": "newOwner",
          "type": "address"
        }
      ],
      "name": "transferOwnership",
      "outputs": [],
      "stateMutability": "nonpayable",
      "type": "function"
    }
  ],
  "bytecode": "0x60806040523480156200001157600080fd5b50336040518060400160405280601081526020016f141c9bd9dc985b5b58589b1953185b9960821b815250604051806040016040528060048152602001631310539160e21b81525081600090816200006a9190620001b4565b506001620000798282620001b4565b5050506001600160a01b038116620000ab57604051631e4fbdf760e01b81526000600482015260240160405180910390fd5b620000b681620000bd565b5062000280565b600680546001600160a01b038381166001600160a01b0319831681179093556040519116919082907f8be0079c531659141344cd1fd0a4f28419497f9722a3daafe3b4186f6b6457e090600090a35050565b634e487b7160e01b600052604160045260246000fd5b600181811c908216806200013a57607f821691505b6020821081036200015b57634e487b7160e01b600052602260045260246000fd5b50919050565b601f821115620001af57600081815260208120601f850160051c810160208610156200018a5750805b601f850160051c820191505b81811015620001ab5782815560010162000196565b5050505b505050565b81516001600160401b03811115620001d057620001d06200010f565b620001e881620001e1845462000125565b8462000161565b602080601f831160018114620002205760008415620002075750858301515b600019600386901b1c1916600185901b178555620001ab565b600085815260208120601f198616915b82811015620002515788860151825594840194600190910190840162000230565b5085821015620002705787850151600019600388901b60f8161c191681555b5050505050600190811b01905550565b611b3080620002906000396000f3fe6080604052600436106101405760003560e01c806370a08231116100b6578063c87b56dd1161006f578063c87b56dd146103a2578063cacca4a0146103c2578063dd142be0146103e2578063e985e9c5146103f5578063f2fde38b14610415578063f7b108081461043557600080fd5b806370a08231146102ec578063715018a61461031a5780638da5cb5b1461032f57806395d89b411461034d578063a22cb46514610362578063b88d4fde1461038257600080fd5b8063322cb8db11610108578063322cb8db146102165780633f7ea3631461023657806342842e0e146102565780634eda529b1461027657806350272211146102965780636352211e146102cc57600080fd5b806301ffc9a71461014557806306fdde031461017a578063081812fc1461019c578063095ea7b3146101d457806323b872dd146101f6575b600080fd5b34801561015157600080fd5b50610165610160366004611567565b610466565b60405190151581526020015b60405180910390f35b34801561018657600080fd5b5061018f6104b8565b60405161017191906115d4565b3480156101a857600080fd5b506101bc6101b73660046115e7565b61054a565b6040516001600160a01b039091168152602001610171565b3480156101e057600080fd5b506101f46101ef36600461161c565b610573565b005b34801561020257600080fd5b506101f4610211366004611646565b610582565b34801561022257600080fd5b506101f461023136600461170e565b610612565b34801561024257600080fd5b506101f46102513660046115e7565b610731565b34801561026257600080fd5b506101f4610271366004611646565b610769565b34801561028257600080fd5b506101f4610291366004611779565b610789565b3480156102a257600080fd5b506101bc6102b13660046115e7565b6008602052600090815260409020546001600160a01b031681565b3480156102d857600080fd5b506101bc6102e73660046115e7565b61084c565b3480156102f857600080fd5b5061030c61030736600461179b565b610857565b604051908152602001610171565b34801561032657600080fd5b506101f461089f565b34801561033b57600080fd5b506006546001600160a01b03166101bc565b34801561035957600080fd5b5061018f6108b3565b34801561036e57600080fd5b506101f461037d3660046117b6565b6108c2565b34801561038e57600080fd5b506101f461039d3660046117f2565b6108cd565b3480156103ae57600080fd5b5061018f6103bd3660046115e7565b6108e5565b3480156103ce57600080fd5b506101f46103dd3660046115e7565b61095a565b6101f46103f03660046115e7565b610a94565b34801561040157600080fd5b5061016561041036600461186e565b610c1a565b34801561042157600080fd5b506101f461043036600461179b565b610c48565b34801561044157600080fd5b506104556104503660046115e7565b610c86565b6040516101719594939291906118a1565b60006001600160e01b031982166380ac58cd60e01b148061049757506001600160e01b03198216635b5e139f60e01b145b806104b257506301ffc9a760e01b6001600160e01b03198316145b92915050565b6060600080546104c7906118e6565b80601f01602080910402602001604051908101604052809291908181526020018280546104f3906118e6565b80156105405780601f1061051557610100808354040283529160200191610540565b820191906000526020600020905b81548152906001019060200180831161052357829003601f168201915b5050505050905090565b600061055582610d50565b506000828152600460205260409020546001600160a01b03166104b2565b61057e828233610d89565b5050565b6001600160a01b0382166105b157604051633250574960e11b8152600060048201526024015b60405180910390fd5b60006105be838333610d96565b9050836001600160a01b0316816001600160a01b03161461060c576040516364283d7b60e01b81526001600160a01b03808616600483015260248201849052821660448201526064016105a8565b50505050565b61061a610e8f565b6000828152600260205260409020546001600160a01b03161561067f5760405162461bcd60e51b815260206004820152601760248201527f50726f706572747920616c72656164792065786973747300000000000000000060448201526064016105a8565b6106898383610ebc565b6040805160a08101825260008082526001600160a01b03808716602080850191825284860184815260608601858152608087018981528a8752600790935296909420855181559151600183018054955197511515600160a81b0260ff60a81b19981515600160a01b026001600160a81b03199097169290951691909117949094179590951691909117909155915190919060028201906107299082611966565b505050505050565b610739610e8f565b6000908152600760205260409020600101805460ff60a81b198116600160a81b9182900460ff1615909102179055565b610784838383604051806020016040528060008152506108cd565b505050565b6000828152600760205260409020600101548290600160a81b900460ff16156107c45760405162461bcd60e51b81526004016105a890611a26565b336107ce8461084c565b6001600160a01b0316146108245760405162461bcd60e51b815260206004820152601c60248201527f596f7520646f206e6f74206f776e20746869732070726f70657274790000000060448201526064016105a8565b5060009182526007602052604090912060018101805460ff60a01b1916600160a01b17905555565b60006104b282610d50565b60006001600160a01b038216610883576040516322718ad960e21b8152600060048201526024016105a8565b506001600160a01b031660009081526003602052604090205490565b6108a7610e8f565b6108b16000610ed6565b565b6060600180546104c7906118e6565b61057e338383610f28565b6108d8848484610582565b61060c3385858585610fc7565b60606108f082610d50565b50600061090860408051602081019091526000815290565b905060008151116109285760405180602001604052806000815250610953565b80610932846110e9565b604051602001610943929190611a71565b6040516020818303038152906040525b9392505050565b610962610e8f565b6000818152600760205260409020600101548190600160a81b900460ff161561099d5760405162461bcd60e51b81526004016105a890611a26565b6000828152600860205260409020546001600160a01b0316806109f55760405162461bcd60e51b815260206004820152601060248201526f2737903832b73234b73390313abcb2b960811b60448201526064016105a8565b6000610a008461084c565b60008581526007602090815260408083208054600182018054928690556001600160a01b03808a166001600160a81b0319909416939093179055600890935281842080546001600160a01b0319169055905193945090929084169183156108fc02918491818181858888f19350505050158015610a81573d6000803e3d6000fd5b50610a8d82848761117c565b5050505050565b6000818152600760205260409020600101548190600160a81b900460ff1615610acf5760405162461bcd60e51b81526004016105a890611a26565b600082815260076020526040902060010154600160a01b900460ff16610b375760405162461bcd60e51b815260206004820152601860248201527f50726f7065727479206973206e6f7420666f722073616c65000000000000000060448201526064016105a8565b6000828152600760205260409020543414610b945760405162461bcd60e51b815260206004820152601860248201527f496e636f7272656374207061796d656e7420616d6f756e74000000000000000060448201526064016105a8565b6000828152600860205260409020546001600160a01b031615610bf95760405162461bcd60e51b815260206004820181905260248201527f416e6f7468657220627579657220697320616c72656164792070656e64696e6760448201526064016105a8565b50600090815260086020526040902080546001600160a01b03191633179055565b6001600160a01b03918216600090815260056020908152604080832093909416825291909152205460ff1690565b610c50610e8f565b6001600160a01b038116610c7a57604051631e4fbdf760e01b8152600060048201526024016105a8565b610c8381610ed6565b50565b60076020526000908152604090208054600182015460028301805492936001600160a01b0383169360ff600160a01b8504811694600160a81b9004169290610ccd906118e6565b80601f0160208091040260200160405190810160405280929190818152602001828054610cf9906118e6565b8015610d465780601f10610d1b57610100808354040283529160200191610d46565b820191906000526020600020905b815481529060010190602001808311610d2957829003601f168201915b5050505050905085565b6000818152600260205260408120546001600160a01b0316806104b257604051637e27328960e01b8152600481018490526024016105a8565b610784838383600161122c565b6000828152600260205260408120546001600160a01b0390811690831615610dc357610dc3818486611332565b6001600160a01b03811615610e0157610de060008560008061122c565b6001600160a01b038116600090815260036020526040902080546000190190555b6001600160a01b03851615610e30576001600160a01b0385166000908152600360205260409020805460010190555b60008481526002602052604080822080546001600160a01b0319166001600160a01b0389811691821790925591518793918516917fddf252ad1be2c89b69c2b068fc378daa952ba7f163c4a11628f55a4df523b3ef91a4949350505050565b6006546001600160a01b031633146108b15760405163118cdaa760e01b81523360048201526024016105a8565b61057e828260405180602001604052806000815250611396565b600680546001600160a01b038381166001600160a01b0319831681179093556040519116919082907f8be0079c531659141344cd1fd0a4f28419497f9722a3daafe3b4186f6b6457e090600090a35050565b6001600160a01b038216610f5a57604051630b61174360e31b81526001600160a01b03831660048201526024016105a8565b6001600160a01b03838116600081815260056020908152604080832094871680845294825291829020805460ff191686151590811790915591519182527f17307eab39ab6107e8899845ad3d59bd9653f200f220920489ca2b5937696c31910160405180910390a3505050565b6001600160a01b0383163b15610a8d57604051630a85bd0160e11b81526001600160a01b0384169063150b7a0290611009908890889087908790600401611aa0565b6020604051808303816000875af1925050508015611044575060408051601f3d908101601f1916820190925261104191810190611add565b60015b6110ad573d808015611072576040519150601f19603f3d011682016040523d82523d6000602084013e611077565b606091505b5080516000036110a557604051633250574960e11b81526001600160a01b03851660048201526024016105a8565b805160208201fd5b6001600160e01b03198116630a85bd0160e11b1461072957604051633250574960e11b81526001600160a01b03851660048201526024016105a8565b606060006110f6836113ae565b600101905060008167ffffffffffffffff81111561111657611116611682565b6040519080825280601f01601f191660200182016040528015611140576020820181803683370190505b5090508181016020015b600019016f181899199a1a9b1b9c1cb0b131b232b360811b600a86061a8153600a850494508461114a57509392505050565b6001600160a01b0382166111a657604051633250574960e11b8152600060048201526024016105a8565b60006111b483836000610d96565b90506001600160a01b0381166111e057604051637e27328960e01b8152600481018390526024016105a8565b836001600160a01b0316816001600160a01b03161461060c576040516364283d7b60e01b81526001600160a01b03808616600483015260248201849052821660448201526064016105a8565b808061124057506001600160a01b03821615155b1561130257600061125084610d50565b90506001600160a01b0383161580159061127c5750826001600160a01b0316816001600160a01b031614155b801561128f575061128d8184610c1a565b155b156112b85760405163a9fbf51f60e01b81526001600160a01b03841660048201526024016105a8565b81156113005783856001600160a01b0316826001600160a01b03167f8c5be1e5ebec7d5bd14f71427d1e84f3dd0314c0f7b2291e5b200ac8c7c3b92560405160405180910390a45b505b5050600090815260046020526040902080546001600160a01b0319166001600160a01b0392909216919091179055565b61133d838383611486565b610784576001600160a01b03831661136b57604051637e27328960e01b8152600481018290526024016105a8565b60405163177e802f60e01b81526001600160a01b0383166004820152602481018290526044016105a8565b6113a083836114ec565b610784336000858585610fc7565b60008072184f03e93ff9f4daa797ed6e38ed64bf6a1f0160401b83106113ed5772184f03e93ff9f4daa797ed6e38ed64bf6a1f0160401b830492506040015b6d04ee2d6d415b85acef81000000008310611419576d04ee2d6d415b85acef8100000000830492506020015b662386f26fc10000831061143757662386f26fc10000830492506010015b6305f5e100831061144f576305f5e100830492506008015b612710831061146357612710830492506004015b60648310611475576064830492506002015b600a83106104b25760010192915050565b60006001600160a01b038316158015906114e45750826001600160a01b0316846001600160a01b031614806114c057506114c08484610c1a565b806114e457506000828152600460205260409020546001600160a01b038481169116145b949350505050565b6001600160a01b03821661151657604051633250574960e11b8152600060048201526024016105a8565b600061152483836000610d96565b90506001600160a01b03811615610784576040516339e3563760e11b8152600060048201526024016105a8565b6001600160e01b031981168114610c8357600080fd5b60006020828403121561157957600080fd5b813561095381611551565b60005b8381101561159f578181015183820152602001611587565b50506000910152565b600081518084526115c0816020860160208601611584565b601f01601f19169290920160200192915050565b60208152600061095360208301846115a8565b6000602082840312156115f957600080fd5b5035919050565b80356001600160a01b038116811461161757600080fd5b919050565b6000806040838503121561162f57600080fd5b61163883611600565b946020939093013593505050565b60008060006060848603121561165b57600080fd5b61166484611600565b925061167260208501611600565b9150604084013590509250925092565b634e487b7160e01b600052604160045260246000fd5b600067ffffffffffffffff808411156116b3576116b3611682565b604051601f8501601f19908116603f011681019082821181831017156116db576116db611682565b816040528093508581528686860111156116f457600080fd5b858560208301376000602087830101525050509392505050565b60008060006060848603121561172357600080fd5b61172c84611600565b925060208401359150604084013567ffffffffffffffff81111561174f57600080fd5b8401601f8101861361176057600080fd5b61176f86823560208401611698565b9150509250925092565b6000806040838503121561178c57600080fd5b50508035926020909101359150565b6000602082840312156117ad57600080fd5b61095382611600565b600080604083850312156117c957600080fd5b6117d283611600565b9150602083013580151581146117e757600080fd5b809150509250929050565b6000806000806080858703121561180857600080fd5b61181185611600565b935061181f60208601611600565b925060408501359150606085013567ffffffffffffffff81111561184257600080fd5b8501601f8101871361185357600080fd5b61186287823560208401611698565b91505092959194509250565b6000806040838503121561188157600080fd5b61188a83611600565b915061189860208401611600565b90509250929050565b8581526001600160a01b03851660208201528315156040820152821515606082015260a0608082018190526000906118db908301846115a8565b979650505050505050565b600181811c908216806118fa57607f821691505b60208210810361191a57634e487b7160e01b600052602260045260246000fd5b50919050565b601f82111561078457600081815260208120601f850160051c810160208610156119475750805b601f850160051c820191505b8181101561072957828155600101611953565b815167ffffffffffffffff81111561198057611980611682565b6119948161198e84546118e6565b84611920565b602080601f8311600181146119c957600084156119b15750858301515b600019600386901b1c1916600185901b178555610729565b600085815260208120601f198616915b828110156119f8578886015182559484019460019091019084016119d9565b5085821015611a165787850151600019600388901b60f8161c191681555b5050505050600190811b01905550565b6020808252602b908201527f50726f70657274792069732063757272656e746c792066726f7a656e2064756560408201526a20746f206469737075746560a81b606082015260800190565b60008351611a83818460208801611584565b835190830190611a97818360208801611584565b01949350505050565b6001600160a01b0385811682528416602082015260408101839052608060608201819052600090611ad3908301846115a8565b9695505050505050565b600060208284031215611aef57600080fd5b81516109538161155156fea264697066735822122093dc23087200c6ee1f5c84fdf230490d87acbce8a5414b211923d08cb90414c064736f6c63430008140033",
  "linkReferences": {},
  "deployedLinkReferences": {}
}